{
  "transactions": [
    {
      "hash": "0x98c790e9b39db60386d4b8330529f092606afc8b822760f420d80d32d5565bcd",
      "transactionType": "CALL",
      "contractName": null,
      "contractAddress": "0xc438806b0726ade87f746d2b2ad07f6f05a26a85",
      "function": "newStrategy(address,address,string)",
      "arguments": [
        "0x7201Fb5C3BA06f10A858819F62221AE2f473815D",
        "0x02c6a2fA58cC01A18B8D9E00eA48d65E4dF26c70",
        "feUSD WHYPE Stability Pool"
      ],
      "transaction": {
        "from": "0x318d0059efe546b5687fa6744af4339391153981",
        "to": "0xc438806b0726ade87f746d2b2ad07f6f05a26a85",
        "gas": "0x470564",
        "value": "0x0",
        "input": "0x5948ecef0000000000000000000000007201fb5c3ba06f10a858819f62221ae2f473815d00000000000000000000000002c6a2fa58cc01a18b8d9e00ea48d65e4df26c700000000000000000000000000000000000000000000000000000000000000060000000000000000000000000000000000000000000000000000000000000001a66655553442057485950452053746162696c69747920506f6f6c000000000000",
        "nonce": "0x17",
        "chainId": "0x3e7"
      },
      "additionalContracts": [
        {
          "transactionType": "CREATE",
          "address": "0x41f4e8b09699ef33a603bd4afa3afc68b4b0f1d5",
          "initCode": "0x61016060405260015f806101000a81548160ff0219169083151502179055506127105f60016101000a81548161ffff021916908361ffff16021790555034801562000048575f80fd5b506040516200429c3803806200429c83398181016040528101906200006e919062000901565b828181818173ffffffffffffffffffffffffffffffffffffffff1660808173ffffffffffffffffffffffffffffffffffffffff16815250503073ffffffffffffffffffffffffffffffffffffffff1660a08173ffffffffffffffffffffffffffffffffffffffff16815250506200014a8282333333604051602401620000f9959493929190620009fa565b6040516020818303038152906040526397073ae660e01b6020820180517bffffffffffffffffffffffffffffffffffffffffffffffffffffffff83818316178352505050506200067c60201b60201c565b5073d377919fa87120584b21279a491f82d5265a139c7f360894a13ba1a3210667c828492db98dca3e2076cc3735a920a3ca505d382bbc55505050508373ffffffffffffffffffffffffffffffffffffffff1663741bef1a6040518163ffffffff1660e01b8152600401602060405180830381865afa158015620001d0573d5f803e3d5ffd5b505050506040513d601f19601f82011682018060405250810190620001f6919062000a9e565b73ffffffffffffffffffffffffffffffffffffffff1660e08173ffffffffffffffffffffffffffffffffffffffff16815250505f60e05173ffffffffffffffffffffffffffffffffffffffff16630fdb11cf6040518163ffffffff1660e01b815260040160408051808303815f875af115801562000276573d5f803e3d5ffd5b505050506040513d601f19601f820116820180604052508101906200029c919062000b40565b9150508473ffffffffffffffffffffffffffffffffffffffff1663048c661d6040518163ffffffff1660e01b8152600401602060405180830381865afa158015620002e9573d5f803e3d5ffd5b505050506040513d601f19601f820116820180604052508101906200030f919062000bc7565b73ffffffffffffffffffffffffffffffffffffffff166101008173ffffffffffffffffffffffffffffffffffffffff16815250508373ffffffffffffffffffffffffffffffffffffffff166101005173ffffffffffffffffffffffffffffffffffffffff16633e4a1b906040518163ffffffff1660e01b8152600401602060405180830381865afa158015620003a7573d5f803e3d5ffd5b505050506040513d601f19601f82011682018060405250810190620003cd919062000bf7565b73ffffffffffffffffffffffffffffffffffffffff161462000426576040517f08c379a00000000000000000000000000000000000000000000000000000000081526004016200041d9062000c75565b60405180910390fd5b6101005173ffffffffffffffffffffffffffffffffffffffff166331b8c9466040518163ffffffff1660e01b8152600401602060405180830381865afa15801562000473573d5f803e3d5ffd5b505050506040513d601f19601f8201168201806040525081019062000499919062000bf7565b73ffffffffffffffffffffffffffffffffffffffff1660c08173ffffffffffffffffffffffffffffffffffffffff16815250508273ffffffffffffffffffffffffffffffffffffffff166101408173ffffffffffffffffffffffffffffffffffffffff16815250506101405173ffffffffffffffffffffffffffffffffffffffff16630935861e856040518263ffffffff1660e01b81526004016200053f919062000c95565b6020604051808303815f875af11580156200055c573d5f803e3d5ffd5b505050506040513d601f19601f8201168201806040525081019062000582919062000cf2565b73ffffffffffffffffffffffffffffffffffffffff166101208173ffffffffffffffffffffffffffffffffffffffff16815250506101205173ffffffffffffffffffffffffffffffffffffffff16635bfa1b6860c0516040518263ffffffff1660e01b8152600401620005f6919062000c95565b5f604051808303815f87803b1580156200060e575f80fd5b505af115801562000621573d5f803e3d5ffd5b50505050642e90edd000600181905550606467016345785d8a0000670de0b6b3a764000062000651919062000d4f565b6200065d919062000d89565b60028190555066038d7ea4c68000600381905550505050505062000e35565b60605f8073d377919fa87120584b21279a491f82d5265a139c73ffffffffffffffffffffffffffffffffffffffff1684604051620006bb919062000e1d565b5f60405180830381855af49150503d805f8114620006f5576040519150601f19603f3d011682016040523d82523d5f602084013e620006fa565b606091505b50915091508162000711576040513d805f833e8082fd5b8092505050919050565b5f604051905090565b5f80fd5b5f80fd5b5f73ffffffffffffffffffffffffffffffffffffffff82169050919050565b5f62000757826200072c565b9050919050565b62000769816200074b565b811462000774575f80fd5b50565b5f8151905062000787816200075e565b92915050565b5f80fd5b5f80fd5b5f601f19601f8301169050919050565b7f4e487b71000000000000000000000000000000000000000000000000000000005f52604160045260245ffd5b620007dd8262000795565b810181811067ffffffffffffffff82111715620007ff57620007fe620007a5565b5b80604052505050565b5f620008136200071b565b9050620008218282620007d2565b919050565b5f67ffffffffffffffff821115620008435762000842620007a5565b5b6200084e8262000795565b9050602081019050919050565b5f5b838110156200087a5780820151818401526020810190506200085d565b5f8484015250505050565b5f6200089b620008958462000826565b62000808565b905082815260208101848484011115620008ba57620008b962000791565b5b620008c78482856200085b565b509392505050565b5f82601f830112620008e657620008e56200078d565b5b8151620008f884826020860162000885565b91505092915050565b5f805f80608085870312156200091c576200091b62000724565b5b5f6200092b8782880162000777565b94505060206200093e8782880162000777565b9350506040620009518782880162000777565b925050606085015167ffffffffffffffff81111562000975576200097462000728565b5b6200098387828801620008cf565b91505092959194509250565b6200099a816200074b565b82525050565b5f81519050919050565b5f82825260208201905092915050565b5f620009c682620009a0565b620009d28185620009aa565b9350620009e48185602086016200085b565b620009ef8162000795565b840191505092915050565b5f60a08201905062000a0f5f8301886200098f565b818103602083015262000a238187620009ba565b905062000a3460408301866200098f565b62000a4360608301856200098f565b62000a5260808301846200098f565b9695505050505050565b5f62000a68826200074b565b9050919050565b62000a7a8162000a5c565b811462000a85575f80fd5b50565b5f8151905062000a988162000a6f565b92915050565b5f6020828403121562000ab65762000ab562000724565b5b5f62000ac58482850162000a88565b91505092915050565b5f819050919050565b62000ae28162000ace565b811462000aed575f80fd5b50565b5f8151905062000b008162000ad7565b92915050565b5f8115159050919050565b62000b1c8162000b06565b811462000b27575f80fd5b50565b5f8151905062000b3a8162000b11565b92915050565b5f806040838503121562000b595762000b5862000724565b5b5f62000b688582860162000af0565b925050602062000b7b8582860162000b2a565b9150509250929050565b5f62000b91826200074b565b9050919050565b62000ba38162000b85565b811462000bae575f80fd5b50565b5f8151905062000bc18162000b98565b92915050565b5f6020828403121562000bdf5762000bde62000724565b5b5f62000bee8482850162000bb1565b91505092915050565b5f6020828403121562000c0f5762000c0e62000724565b5b5f62000c1e8482850162000777565b91505092915050565b7f21737000000000000000000000000000000000000000000000000000000000005f82015250565b5f62000c5d600383620009aa565b915062000c6a8262000c27565b602082019050919050565b5f6020820190508181035f83015262000c8e8162000c4f565b9050919050565b5f60208201905062000caa5f8301846200098f565b92915050565b5f62000cbc826200074b565b9050919050565b62000cce8162000cb0565b811462000cd9575f80fd5b50565b5f8151905062000cec8162000cc3565b92915050565b5f6020828403121562000d0a5762000d0962000724565b5b5f62000d198482850162000cdc565b91505092915050565b7f4e487b71000000000000000000000000000000000000000000000000000000005f52601160045260245ffd5b5f62000d5b8262000ace565b915062000d688362000ace565b925082820190508082111562000d835762000d8262000d22565b5b92915050565b5f62000d958262000ace565b915062000da28362000ace565b925082820262000db28162000ace565b9150828204841483151762000dcc5762000dcb62000d22565b5b5092915050565b5f81519050919050565b5f81905092915050565b5f62000df38262000dd3565b62000dff818562000ddd565b935062000e118185602086016200085b565b80840191505092915050565b5f62000e2a828462000de7565b915081905092915050565b60805160a05160c05160e05161010051610120516101405161330462000f985f395f610e0c01525f8181610de8015281816119ef01528181611b0f01528181611cf401528181611db401528181611e7301528181611ff30152818161211e015281816121ee015261225601525f8181610b6501528181610c17015281816112d50152818161151e01526118c701525f8181610a45015261208701525f818161078c01528181610d2701528181611a2b01528181611ad301528181611b8b01528181611d3001528181611df001528181611eaf01528181611f1b01528181611fb701528181612210015261229201525f81816106b0015281816108dc015281816109a401528181610a6901528181610e6001528181610ef101528181610f94015281816110340152818161111301528181611237015281816115ab0152818161172a015261195401525f81816107350152818161136d015261163d01526133045ff3fe608060405234801561000f575f80fd5b5060043610610229575f3560e01c8063670b82711161012e578063b6a16506116100b6578063d69686011161007a578063d69686011461061c578063e8462e8f14610638578063ea2b192314610656578063efbb5cb014610674578063fde813a8146106925761022a565b8063b6a1650614610576578063c0e79a1114610594578063c3f81cc5146105b0578063d19a3bb8146105ce578063d63a8e11146105ec5761022a565b8063950b3d73116100fd578063950b3d73146104ea5780639b90fb16146105065780639d7fb70c14610522578063ac00ff261461053e578063ad7e55ba1461055a5761022a565b8063670b8271146104725780636718835f146104905780637d969932146104ae57806393fd25ec146104cc5761022a565b806346aa2f12116101b1578063503160d911610180578063503160d9146103dd5780635262e5de146103f957806353fc1db4146104175780635d265d3f1461043557806363779c74146104545761022a565b806346aa2f121461036757806349317f1d146103975780634a5d0943146103b55780634e71d92d146103d35761022a565b80632b371ecf116101f85780632b371ecf146102d55780632b45732a146102f1578063332c557a1461030f5780633d6cb5751461032d5780634426ebd0146103495761022a565b806301681a621461026157806304bd46291461027d578063157c7ff6146102ad5780632851b669146102b75761022a565b5b5f73d377919fa87120584b21279a491f82d5265a139c9050365f80375f80365f845af43d5f803e805f811461025d573d5ff35b3d5ffd5b61027b600480360381019061027691906126a0565b6106ae565b005b610297600480360381019061029291906126f5565b610992565b6040516102a49190612738565b60405180910390f35b6102b56109a2565b005b6102bf610a43565b6040516102cc91906127ac565b60405180910390f35b6102ef60048036038101906102ea91906127ef565b610a67565b005b6102f9610b54565b6040516103069190612738565b60405180910390f35b610317610b5f565b6040516103249190612834565b60405180910390f35b610347600480360381019061034291906127ef565b610c01565b005b610351610c15565b60405161035e919061286d565b60405180910390f35b610381600480360381019061037c91906126f5565b610c39565b60405161038e9190612738565b60405180910390f35b61039f610ccd565b6040516103ac9190612738565b60405180910390f35b6103bd610cec565b6040516103ca9190612738565b60405180910390f35b6103db610d06565b005b6103f760048036038101906103f291906127ef565b610d11565b005b610401610d25565b60405161040e91906128a6565b60405180910390f35b61041f610d49565b60405161042c9190612738565b60405180910390f35b61043d610d68565b60405161044b929190612949565b60405180910390f35b61045c610de6565b6040516104699190612997565b60405180910390f35b61047a610e0a565b60405161048791906129d0565b60405180910390f35b610498610e2e565b6040516104a59190612834565b60405180910390f35b6104b6610e3e565b6040516104c39190612738565b60405180910390f35b6104d4610e58565b6040516104e19190612738565b60405180910390f35b61050460048036038101906104ff91906127ef565b610e5e565b005b610520600480360381019061051b91906127ef565b610eef565b005b61053c600480360381019061053791906127ef565b610f7e565b005b61055860048036038101906105539190612a13565b610f92565b005b610574600480360381019061056f91906127ef565b611032565b005b61057e61110b565b60405161058b9190612738565b60405180910390f35b6105ae60048036038101906105a991906126f5565b611111565b005b6105b86111ee565b6040516105c59190612834565b60405180910390f35b6105d6611200565b6040516105e39190612a4d565b60405180910390f35b610606600480360381019061060191906126f5565b611218565b6040516106139190612834565b60405180910390f35b610636600480360381019061063191906127ef565b611235565b005b6106406112c6565b60405161064d9190612738565b60405180910390f35b61065e6112cc565b60405161066b9190612738565b60405180910390f35b61067c6112d2565b6040516106899190612738565b60405180910390f35b6106ac60048036038101906106a791906127ef565b611412565b005b7f000000000000000000000000000000000000000000000000000000000000000073ffffffffffffffffffffffffffffffffffffffff166348e4a649336040518263ffffffff1660e01b81526004016107079190612a4d565b5f6040518083038186803b15801561071d575f80fd5b505afa15801561072f573d5f803e3d5ffd5b505050507f000000000000000000000000000000000000000000000000000000000000000073ffffffffffffffffffffffffffffffffffffffff168173ffffffffffffffffffffffffffffffffffffffff16141580156107db57507f000000000000000000000000000000000000000000000000000000000000000073ffffffffffffffffffffffffffffffffffffffff168173ffffffffffffffffffffffffffffffffffffffff1614155b61081a576040517f08c379a000000000000000000000000000000000000000000000000000000000815260040161081190612ac0565b60405180910390fd5b5f8173ffffffffffffffffffffffffffffffffffffffff166370a08231306040518263ffffffff1660e01b81526004016108549190612a4d565b602060405180830381865afa15801561086f573d5f803e3d5ffd5b505050506040513d601f19601f820116820180604052508101906108939190612af2565b90505f81116108d7576040517f08c379a00000000000000000000000000000000000000000000000000000000081526004016108ce90612b67565b60405180910390fd5b61098e7f000000000000000000000000000000000000000000000000000000000000000073ffffffffffffffffffffffffffffffffffffffff166388a8d6026040518163ffffffff1660e01b8152600401602060405180830381865afa158015610943573d5f803e3d5ffd5b505050506040513d601f19601f820116820180604052508101906109679190612b99565b828473ffffffffffffffffffffffffffffffffffffffff166114269092919063ffffffff16565b5050565b5f61099b6112d2565b9050919050565b7f000000000000000000000000000000000000000000000000000000000000000073ffffffffffffffffffffffffffffffffffffffff166348e4a649336040518263ffffffff1660e01b81526004016109fb9190612a4d565b5f6040518083038186803b158015610a11575f80fd5b505afa158015610a23573d5f803e3d5ffd5b5050505060015f60056101000a81548160ff021916908315150217905550565b7f000000000000000000000000000000000000000000000000000000000000000081565b7f000000000000000000000000000000000000000000000000000000000000000073ffffffffffffffffffffffffffffffffffffffff166348e4a649336040518263ffffffff1660e01b8152600401610ac09190612a4d565b5f6040518083038186803b158015610ad6575f80fd5b505afa158015610ae8573d5f803e3d5ffd5b5050505067016345785d8a0000670de0b6b3a7640000610b089190612bf1565b811015610b4a576040517f08c379a0000000000000000000000000000000000000000000000000000000008152600401610b4190612c6e565b60405180910390fd5b8060028190555050565b66038d7ea4c6800081565b5f6003547f000000000000000000000000000000000000000000000000000000000000000073ffffffffffffffffffffffffffffffffffffffff166347ea8354306040518263ffffffff1660e01b8152600401610bbc9190612a4d565b602060405180830381865afa158015610bd7573d5f803e3d5ffd5b505050506040513d601f19601f82011682018060405250810190610bfb9190612af2565b11905090565b610c096114ac565b610c128161151c565b50565b7f000000000000000000000000000000000000000000000000000000000000000081565b5f8060059054906101000a900460ff1680610c9a575060045f8373ffffffffffffffffffffffffffffffffffffffff1673ffffffffffffffffffffffffffffffffffffffff1681526020019081526020015f205f9054906101000a900460ff165b610ca4575f610cc6565b7fffffffffffffffffffffffffffffffffffffffffffffffffffffffffffffffff5b9050919050565b5f610cd66114ac565b610cde6115a8565b9050610ce9816116f8565b90565b5f8060019054906101000a900461ffff1661ffff16905090565b610d0f5f61151c565b565b610d196114ac565b610d22816118c5565b50565b7f000000000000000000000000000000000000000000000000000000000000000081565b67016345785d8a0000670de0b6b3a7640000610d659190612bf1565b81565b5f6060610d73611950565b63440368a360e01b604051602401604051602081830303815290604052907bffffffffffffffffffffffffffffffffffffffffffffffffffffffff19166020820180517bffffffffffffffffffffffffffffffffffffffffffffffffffffffff8381831617835250505050915091509091565b7f000000000000000000000000000000000000000000000000000000000000000081565b7f000000000000000000000000000000000000000000000000000000000000000081565b5f8054906101000a900460ff1681565b5f8060039054906101000a900461ffff1661ffff16905090565b60025481565b7f000000000000000000000000000000000000000000000000000000000000000073ffffffffffffffffffffffffffffffffffffffff166348e4a649336040518263ffffffff1660e01b8152600401610eb79190612a4d565b5f6040518083038186803b158015610ecd575f80fd5b505afa158015610edf573d5f803e3d5ffd5b50505050610eec81611c34565b50565b7f000000000000000000000000000000000000000000000000000000000000000073ffffffffffffffffffffffffffffffffffffffff166348e4a649336040518263ffffffff1660e01b8152600401610f489190612a4d565b5f6040518083038186803b158015610f5e575f80fd5b505afa158015610f70573d5f803e3d5ffd5b505050508060018190555050565b610f866114ac565b610f8f81611cdc565b50565b7f000000000000000000000000000000000000000000000000000000000000000073ffffffffffffffffffffffffffffffffffffffff166348e4a649336040518263ffffffff1660e01b8152600401610feb9190612a4d565b5f6040518083038186803b158015611001575f80fd5b505afa158015611013573d5f803e3d5ffd5b50505050805f806101000a81548160ff02191690831515021790555050565b7f000000000000000000000000000000000000000000000000000000000000000073ffffffffffffffffffffffffffffffffffffffff166348e4a649336040518263ffffffff1660e01b815260040161108b9190612a4d565b5f6040518083038186803b1580156110a1575f80fd5b505afa1580156110b3573d5f803e3d5ffd5b5050505066038d7ea4c68000811015611101576040517f08c379a00000000000000000000000000000000000000000000000000000000081526004016110f890612cd6565b60405180910390fd5b8060038190555050565b60015481565b7f000000000000000000000000000000000000000000000000000000000000000073ffffffffffffffffffffffffffffffffffffffff166348e4a649336040518263ffffffff1660e01b815260040161116a9190612a4d565b5f6040518083038186803b158015611180575f80fd5b505afa158015611192573d5f803e3d5ffd5b50505050600160045f8373ffffffffffffffffffffffffffffffffffffffff1673ffffffffffffffffffffffffffffffffffffffff1681526020019081526020015f205f6101000a81548160ff02191690831515021790555050565b5f60059054906101000a900460ff1681565b73d377919fa87120584b21279a491f82d5265a139c81565b6004602052805f5260405f205f915054906101000a900460ff1681565b7f000000000000000000000000000000000000000000000000000000000000000073ffffffffffffffffffffffffffffffffffffffff166348e4a649336040518263ffffffff1660e01b815260040161128e9190612a4d565b5f6040518083038186803b1580156112a4575f80fd5b505afa1580156112b6573d5f803e3d5ffd5b505050506112c381612317565b50565b60035481565b6103e881565b5f7f000000000000000000000000000000000000000000000000000000000000000073ffffffffffffffffffffffffffffffffffffffff1663e96ae764306040518263ffffffff1660e01b815260040161132c9190612a4d565b602060405180830381865afa158015611347573d5f803e3d5ffd5b505050506040513d601f19601f8201168201806040525081019061136b9190612af2565b7f000000000000000000000000000000000000000000000000000000000000000073ffffffffffffffffffffffffffffffffffffffff166370a08231306040518263ffffffff1660e01b81526004016113c49190612a4d565b602060405180830381865afa1580156113df573d5f803e3d5ffd5b505050506040513d601f19601f820116820180604052508101906114039190612af2565b61140d9190612bf1565b905090565b61141a6114ac565b6114238161237a565b50565b6114a78363a9059cbb60e01b8484604051602401611445929190612cf4565b604051602081830303815290604052907bffffffffffffffffffffffffffffffffffffffffffffffffffffffff19166020820180517bffffffffffffffffffffffffffffffffffffffffffffffffffffffff83818316178352505050506123a6565b505050565b3073ffffffffffffffffffffffffffffffffffffffff163373ffffffffffffffffffffffffffffffffffffffff161461151a576040517f08c379a000000000000000000000000000000000000000000000000000000000815260040161151190612d65565b60405180910390fd5b565b7f000000000000000000000000000000000000000000000000000000000000000073ffffffffffffffffffffffffffffffffffffffff1663cfddf5f58260016040518363ffffffff1660e01b8152600401611578929190612d83565b5f604051808303815f87803b15801561158f575f80fd5b505af11580156115a1573d5f803e3d5ffd5b5050505050565b5f7f000000000000000000000000000000000000000000000000000000000000000073ffffffffffffffffffffffffffffffffffffffff1663bf86d6906040518163ffffffff1660e01b8152600401602060405180830381865afa158015611612573d5f803e3d5ffd5b505050506040513d601f19601f820116820180604052508101906116369190612dbe565b6116eb575f7f000000000000000000000000000000000000000000000000000000000000000073ffffffffffffffffffffffffffffffffffffffff166370a08231306040518263ffffffff1660e01b81526004016116949190612a4d565b602060405180830381865afa1580156116af573d5f803e3d5ffd5b505050506040513d601f19601f820116820180604052508101906116d39190612af2565b90506003548111156116e9576116e8816118c5565b5b505b6116f36112d2565b905090565b5f8054906101000a900460ff166117275760015f806101000a81548160ff0219169083151502179055506118c2565b5f7f000000000000000000000000000000000000000000000000000000000000000073ffffffffffffffffffffffffffffffffffffffff166301e1d1146040518163ffffffff1660e01b8152600401602060405180830381865afa158015611791573d5f803e3d5ffd5b505050506040513d601f19601f820116820180604052508101906117b59190612af2565b90508082111561183d576127105f60019054906101000a900461ffff1661ffff16826117e19190612de9565b6117eb9190612e57565b81836117f79190612e87565b1115611838576040517f08c379a000000000000000000000000000000000000000000000000000000000815260040161182f90612f04565b60405180910390fd5b6118c0565b818111156118bf576127105f60039054906101000a900461ffff1661ffff16826118679190612de9565b6118719190612e57565b828261187d9190612e87565b11156118be576040517f08c379a00000000000000000000000000000000000000000000000000000000081526004016118b590612f04565b60405180910390fd5b5b5b505b50565b7f000000000000000000000000000000000000000000000000000000000000000073ffffffffffffffffffffffffffffffffffffffff1663aeb4b970825f6040518363ffffffff1660e01b8152600401611920929190612d83565b5f604051808303815f87803b158015611937575f80fd5b505af1158015611949573d5f803e3d5ffd5b5050505050565b5f807f000000000000000000000000000000000000000000000000000000000000000073ffffffffffffffffffffffffffffffffffffffff166301e1d1146040518163ffffffff1660e01b8152600401602060405180830381865afa1580156119bb573d5f803e3d5ffd5b505050506040513d601f19601f820116820180604052508101906119df9190612af2565b036119ec575f9050611c31565b5f7f000000000000000000000000000000000000000000000000000000000000000073ffffffffffffffffffffffffffffffffffffffff166310098ad57f00000000000000000000000000000000000000000000000000000000000000006040518263ffffffff1660e01b8152600401611a669190612a4d565b602060405180830381865afa158015611a81573d5f803e3d5ffd5b505050506040513d601f19601f82011682018060405250810190611aa59190612af2565b1115611ab3575f9050611c31565b6001544811158015611c2e5750611ac8610b5f565b80611c2d57506003547f000000000000000000000000000000000000000000000000000000000000000073ffffffffffffffffffffffffffffffffffffffff166370a082317f00000000000000000000000000000000000000000000000000000000000000006040518263ffffffff1660e01b8152600401611b4a9190612a4d565b602060405180830381865afa158015611b65573d5f803e3d5ffd5b505050506040513d601f19601f82011682018060405250810190611b899190612af2565b7f000000000000000000000000000000000000000000000000000000000000000073ffffffffffffffffffffffffffffffffffffffff166370a08231306040518263ffffffff1660e01b8152600401611be29190612a4d565b602060405180830381865afa158015611bfd573d5f803e3d5ffd5b505050506040513d601f19601f82011682018060405250810190611c219190612af2565b611c2b9190612bf1565b115b5b90505b90565b5f8111611c76576040517f08c379a0000000000000000000000000000000000000000000000000000000008152600401611c6d90612f6c565b60405180910390fd5b61ffff8016811115611cbd576040517f08c379a0000000000000000000000000000000000000000000000000000000008152600401611cb490612fd4565b60405180910390fd5b805f60016101000a81548161ffff021916908361ffff16021790555050565b611ce4610b5f565b15611cf257611cf1610d06565b5b7f000000000000000000000000000000000000000000000000000000000000000073ffffffffffffffffffffffffffffffffffffffff16639f8a13d77f00000000000000000000000000000000000000000000000000000000000000006040518263ffffffff1660e01b8152600401611d6b9190612a4d565b602060405180830381865afa158015611d86573d5f803e3d5ffd5b505050506040513d601f19601f82011682018060405250810190611daa9190612dbe565b8015611e6c57505f7f000000000000000000000000000000000000000000000000000000000000000073ffffffffffffffffffffffffffffffffffffffff166310098ad57f00000000000000000000000000000000000000000000000000000000000000006040518263ffffffff1660e01b8152600401611e2b9190612a4d565b602060405180830381865afa158015611e46573d5f803e3d5ffd5b505050506040513d601f19601f82011682018060405250810190611e6a9190612af2565b145b15611f18577f000000000000000000000000000000000000000000000000000000000000000073ffffffffffffffffffffffffffffffffffffffff16636a256b297f00000000000000000000000000000000000000000000000000000000000000006040518263ffffffff1660e01b8152600401611eea9190612a4d565b5f604051808303815f87803b158015611f01575f80fd5b505af1158015611f13573d5f803e3d5ffd5b505050505b5f7f000000000000000000000000000000000000000000000000000000000000000073ffffffffffffffffffffffffffffffffffffffff166370a08231306040518263ffffffff1660e01b8152600401611f729190612a4d565b602060405180830381865afa158015611f8d573d5f803e3d5ffd5b505050506040513d601f19601f82011682018060405250810190611fb19190612af2565b90505f817f000000000000000000000000000000000000000000000000000000000000000073ffffffffffffffffffffffffffffffffffffffff166370a082317f00000000000000000000000000000000000000000000000000000000000000006040518263ffffffff1660e01b815260040161202e9190612a4d565b602060405180830381865afa158015612049573d5f803e3d5ffd5b505050506040513d601f19601f8201168201806040525081019061206d9190612af2565b6120779190612bf1565b9050600354811115612312575f807f000000000000000000000000000000000000000000000000000000000000000073ffffffffffffffffffffffffffffffffffffffff16630fdb11cf6040518163ffffffff1660e01b815260040160408051808303815f875af11580156120ee573d5f803e3d5ffd5b505050506040513d601f19601f820116820180604052508101906121129190612ff2565b915091505f60025490507f000000000000000000000000000000000000000000000000000000000000000073ffffffffffffffffffffffffffffffffffffffff16630f73b4f4670de0b6b3a76400008084670de0b6b3a7640000888a6121789190612de9565b6121829190612e57565b61218c9190612de9565b6121969190612e57565b6121a09190612e57565b6040518263ffffffff1660e01b81526004016121bc9190612738565b5f604051808303815f87803b1580156121d3575f80fd5b505af11580156121e5573d5f803e3d5ffd5b505050506122547f0000000000000000000000000000000000000000000000000000000000000000867f000000000000000000000000000000000000000000000000000000000000000073ffffffffffffffffffffffffffffffffffffffff166114269092919063ffffffff16565b7f000000000000000000000000000000000000000000000000000000000000000073ffffffffffffffffffffffffffffffffffffffff166396c551757f00000000000000000000000000000000000000000000000000000000000000006040518263ffffffff1660e01b81526004016122cd9190612a4d565b6020604051808303815f875af11580156122e9573d5f803e3d5ffd5b505050506040513d601f19601f8201168201806040525081019061230d9190612af2565b505050505b505050565b612710811061235b576040517f08c379a00000000000000000000000000000000000000000000000000000000081526004016123529061307a565b60405180910390fd5b805f60036101000a81548161ffff021916908361ffff16021790555050565b6123a37fffffffffffffffffffffffffffffffffffffffffffffffffffffffffffffffff61151c565b50565b5f612407826040518060400160405280602081526020017f5361666545524332303a206c6f772d6c6576656c2063616c6c206661696c65648152508573ffffffffffffffffffffffffffffffffffffffff1661246c9092919063ffffffff16565b90505f815114806124285750808060200190518101906124279190612dbe565b5b612467576040517f08c379a000000000000000000000000000000000000000000000000000000000815260040161245e90613108565b60405180910390fd5b505050565b606061247a84845f85612483565b90509392505050565b6060824710156124c8576040517f08c379a00000000000000000000000000000000000000000000000000000000081526004016124bf90613196565b60405180910390fd5b5f808673ffffffffffffffffffffffffffffffffffffffff1685876040516124f091906131ee565b5f6040518083038185875af1925050503d805f811461252a576040519150601f19603f3d011682016040523d82523d5f602084013e61252f565b606091505b50915091506125408783838761254c565b92505050949350505050565b606083156125ad575f8351036125a557612565856125c0565b6125a4576040517f08c379a000000000000000000000000000000000000000000000000000000000815260040161259b9061324e565b60405180910390fd5b5b8290506125b8565b6125b783836125e2565b5b949350505050565b5f808273ffffffffffffffffffffffffffffffffffffffff163b119050919050565b5f825111156125f45781518083602001fd5b806040517f08c379a000000000000000000000000000000000000000000000000000000000815260040161262891906132ae565b60405180910390fd5b5f80fd5b5f73ffffffffffffffffffffffffffffffffffffffff82169050919050565b5f61265e82612635565b9050919050565b5f61266f82612654565b9050919050565b61267f81612665565b8114612689575f80fd5b50565b5f8135905061269a81612676565b92915050565b5f602082840312156126b5576126b4612631565b5b5f6126c28482850161268c565b91505092915050565b6126d481612654565b81146126de575f80fd5b50565b5f813590506126ef816126cb565b92915050565b5f6020828403121561270a57612709612631565b5b5f612717848285016126e1565b91505092915050565b5f819050919050565b61273281612720565b82525050565b5f60208201905061274b5f830184612729565b92915050565b5f819050919050565b5f61277461276f61276a84612635565b612751565b612635565b9050919050565b5f6127858261275a565b9050919050565b5f6127968261277b565b9050919050565b6127a68161278c565b82525050565b5f6020820190506127bf5f83018461279d565b92915050565b6127ce81612720565b81146127d8575f80fd5b50565b5f813590506127e9816127c5565b92915050565b5f6020828403121561280457612803612631565b5b5f612811848285016127db565b91505092915050565b5f8115159050919050565b61282e8161281a565b82525050565b5f6020820190506128475f830184612825565b92915050565b5f6128578261277b565b9050919050565b6128678161284d565b82525050565b5f6020820190506128805f83018461285e565b92915050565b5f6128908261277b565b9050919050565b6128a081612886565b82525050565b5f6020820190506128b95f830184612897565b92915050565b5f81519050919050565b5f82825260208201905092915050565b5f5b838110156128f65780820151818401526020810190506128db565b5f8484015250505050565b5f601f19601f8301169050919050565b5f61291b826128bf565b61292581856128c9565b93506129358185602086016128d9565b61293e81612901565b840191505092915050565b5f60408201905061295c5f830185612825565b818103602083015261296e8184612911565b90509392505050565b5f6129818261277b565b9050919050565b61299181612977565b82525050565b5f6020820190506129aa5f830184612988565b92915050565b5f6129ba8261277b565b9050919050565b6129ca816129b0565b82525050565b5f6020820190506129e35f8301846129c1565b92915050565b6129f28161281a565b81146129fc575f80fd5b50565b5f81359050612a0d816129e9565b92915050565b5f60208284031215612a2857612a27612631565b5b5f612a35848285016129ff565b91505092915050565b612a4781612654565b82525050565b5f602082019050612a605f830184612a3e565b92915050565b5f82825260208201905092915050565b7f21746f6b656e00000000000000000000000000000000000000000000000000005f82015250565b5f612aaa600683612a66565b9150612ab582612a76565b602082019050919050565b5f6020820190508181035f830152612ad781612a9e565b9050919050565b5f81519050612aec816127c5565b92915050565b5f60208284031215612b0757612b06612631565b5b5f612b1484828501612ade565b91505092915050565b7f2162616c616e63650000000000000000000000000000000000000000000000005f82015250565b5f612b51600883612a66565b9150612b5c82612b1d565b602082019050919050565b5f6020820190508181035f830152612b7e81612b45565b9050919050565b5f81519050612b93816126cb565b92915050565b5f60208284031215612bae57612bad612631565b5b5f612bbb84828501612b85565b91505092915050565b7f4e487b71000000000000000000000000000000000000000000000000000000005f52601160045260245ffd5b5f612bfb82612720565b9150612c0683612720565b9250828201905080821115612c1e57612c1d612bc4565b5b92915050565b7f216d696e427566666572000000000000000000000000000000000000000000005f82015250565b5f612c58600a83612a66565b9150612c6382612c24565b602082019050919050565b5f6020820190508181035f830152612c8581612c4c565b9050919050565b7f216d696e447573740000000000000000000000000000000000000000000000005f82015250565b5f612cc0600883612a66565b9150612ccb82612c8c565b602082019050919050565b5f6020820190508181035f830152612ced81612cb4565b9050919050565b5f604082019050612d075f830185612a3e565b612d146020830184612729565b9392505050565b7f2173656c660000000000000000000000000000000000000000000000000000005f82015250565b5f612d4f600583612a66565b9150612d5a82612d1b565b602082019050919050565b5f6020820190508181035f830152612d7c81612d43565b9050919050565b5f604082019050612d965f830185612729565b612da36020830184612825565b9392505050565b5f81519050612db8816129e9565b92915050565b5f60208284031215612dd357612dd2612631565b5b5f612de084828501612daa565b91505092915050565b5f612df382612720565b9150612dfe83612720565b9250828202612e0c81612720565b91508282048414831517612e2357612e22612bc4565b5b5092915050565b7f4e487b71000000000000000000000000000000000000000000000000000000005f52601260045260245ffd5b5f612e6182612720565b9150612e6c83612720565b925082612e7c57612e7b612e2a565b5b828204905092915050565b5f612e9182612720565b9150612e9c83612720565b9250828203905081811115612eb457612eb3612bc4565b5b92915050565b7f6865616c7468436865636b0000000000000000000000000000000000000000005f82015250565b5f612eee600b83612a66565b9150612ef982612eba565b602082019050919050565b5f6020820190508181035f830152612f1b81612ee2565b9050919050565b7f217a65726f2070726f66697400000000000000000000000000000000000000005f82015250565b5f612f56600c83612a66565b9150612f6182612f22565b602082019050919050565b5f6020820190508181035f830152612f8381612f4a565b9050919050565b7f21746f6f206869676800000000000000000000000000000000000000000000005f82015250565b5f612fbe600983612a66565b9150612fc982612f8a565b602082019050919050565b5f6020820190508181035f830152612feb81612fb2565b9050919050565b5f806040838503121561300857613007612631565b5b5f61301585828601612ade565b925050602061302685828601612daa565b9150509250929050565b7f216c6f7373206c696d69740000000000000000000000000000000000000000005f82015250565b5f613064600b83612a66565b915061306f82613030565b602082019050919050565b5f6020820190508181035f83015261309181613058565b9050919050565b7f5361666545524332303a204552433230206f7065726174696f6e20646964206e5f8201527f6f74207375636365656400000000000000000000000000000000000000000000602082015250565b5f6130f2602a83612a66565b91506130fd82613098565b604082019050919050565b5f6020820190508181035f83015261311f816130e6565b9050919050565b7f416464726573733a20696e73756666696369656e742062616c616e636520666f5f8201527f722063616c6c0000000000000000000000000000000000000000000000000000602082015250565b5f613180602683612a66565b915061318b82613126565b604082019050919050565b5f6020820190508181035f8301526131ad81613174565b9050919050565b5f81905092915050565b5f6131c8826128bf565b6131d281856131b4565b93506131e28185602086016128d9565b80840191505092915050565b5f6131f982846131be565b915081905092915050565b7f416464726573733a2063616c6c20746f206e6f6e2d636f6e74726163740000005f82015250565b5f613238601d83612a66565b915061324382613204565b602082019050919050565b5f6020820190508181035f8301526132658161322c565b9050919050565b5f81519050919050565b5f6132808261326c565b61328a8185612a66565b935061329a8185602086016128d9565b6132a381612901565b840191505092915050565b5f6020820190508181035f8301526132c68184613276565b90509291505056fea2646970667358221220bf7588ab04dbc3843f7e477697ba9ac18321bf48a16cd39c6b06ea5c9991877b64736f6c634300081700330000000000000000000000007201fb5c3ba06f10a858819f62221ae2f473815d00000000000000000000000002c6a2fa58cc01a18b8d9e00ea48d65e4df26c7000000000000000000000000071ccf86cf63a5d55b12aa7e7079c22f39112dd7d0000000000000000000000000000000000000000000000000000000000000080000000000000000000000000000000000000000000000000000000000000001a66655553442057485950452053746162696c69747920506f6f6c000000000000"
        },
        {
          "transactionType": "CREATE",
          "address": "0x9ca580103d1c711ad198c369c63b46f3e66976d6",
          "initCode": "0x3d602d80600a3d3981f3363d3d373d3d3d363d734c2ff4558424010336a0382364fa5f492f7cd22d5af43d82803e903d91602b57fd5bf3"
        }
      ],
      "isFixedGasLimit": false
    },
    {
      "hash": "0x7f905c215d9ad76e4d3d35da0dadec0d27d4cb82b34a8d5d65ed9d17fd7e1c6e",
      "transactionType": "CALL",
      "contractName": null,
      "contractAddress": "0xc438806b0726ade87f746d2b2ad07f6f05a26a85",
      "function": "newStrategy(address,address,string)",
      "arguments": [
        "0xfC4e20bd9F0e4F8782beA92a7bd8002367882407",
        "0x02c6a2fA58cC01A18B8D9E00eA48d65E4dF26c70",
        "feUSD feUBTC Stability Pool"
      ],
      "transaction": {
        "from": "0x318d0059efe546b5687fa6744af4339391153981",
        "to": "0xc438806b0726ade87f746d2b2ad07f6f05a26a85",
        "gas": "0x46fba0",
        "value": "0x0",
        "input": "0x5948ecef000000000000000000000000fc4e20bd9f0e4f8782bea92a7bd800236788240700000000000000000000000002c6a2fa58cc01a18b8d9e00ea48d65e4df26c700000000000000000000000000000000000000000000000000000000000000060000000000000000000000000000000000000000000000000000000000000001b6665555344206665554254432053746162696c69747920506f6f6c0000000000",
        "nonce": "0x18",
        "chainId": "0x3e7"
      },
      "additionalContracts": [
        {
          "transactionType": "CREATE",
          "address": "0xf649b92fea08eaad2fa5c00553dda561eb1379ee",
          "initCode": "0x61016060405260015f806101000a81548160ff0219169083151502179055506127105f60016101000a81548161ffff021916908361ffff16021790555034801562000048575f80fd5b506040516200429c3803806200429c83398181016040528101906200006e919062000901565b828181818173ffffffffffffffffffffffffffffffffffffffff1660808173ffffffffffffffffffffffffffffffffffffffff16815250503073ffffffffffffffffffffffffffffffffffffffff1660a08173ffffffffffffffffffffffffffffffffffffffff16815250506200014a8282333333604051602401620000f9959493929190620009fa565b6040516020818303038152906040526397073ae660e01b6020820180517bffffffffffffffffffffffffffffffffffffffffffffffffffffffff83818316178352505050506200067c60201b60201c565b5073d377919fa87120584b21279a491f82d5265a139c7f360894a13ba1a3210667c828492db98dca3e2076cc3735a920a3ca505d382bbc55505050508373ffffffffffffffffffffffffffffffffffffffff1663741bef1a6040518163ffffffff1660e01b8152600401602060405180830381865afa158015620001d0573d5f803e3d5ffd5b505050506040513d601f19601f82011682018060405250810190620001f6919062000a9e565b73ffffffffffffffffffffffffffffffffffffffff1660e08173ffffffffffffffffffffffffffffffffffffffff16815250505f60e05173ffffffffffffffffffffffffffffffffffffffff16630fdb11cf6040518163ffffffff1660e01b815260040160408051808303815f875af115801562000276573d5f803e3d5ffd5b505050506040513d601f19601f820116820180604052508101906200029c919062000b40565b9150508473ffffffffffffffffffffffffffffffffffffffff1663048c661d6040518163ffffffff1660e01b8152600401602060405180830381865afa158015620002e9573d5f803e3d5ffd5b505050506040513d601f19601f820116820180604052508101906200030f919062000bc7565b73ffffffffffffffffffffffffffffffffffffffff166101008173ffffffffffffffffffffffffffffffffffffffff16815250508373ffffffffffffffffffffffffffffffffffffffff166101005173ffffffffffffffffffffffffffffffffffffffff16633e4a1b906040518163ffffffff1660e01b8152600401602060405180830381865afa158015620003a7573d5f803e3d5ffd5b505050506040513d601f19601f82011682018060405250810190620003cd919062000bf7565b73ffffffffffffffffffffffffffffffffffffffff161462000426576040517f08c379a00000000000000000000000000000000000000000000000000000000081526004016200041d9062000c75565b60405180910390fd5b6101005173ffffffffffffffffffffffffffffffffffffffff166331b8c9466040518163ffffffff1660e01b8152600401602060405180830381865afa15801562000473573d5f803e3d5ffd5b505050506040513d601f19601f8201168201806040525081019062000499919062000bf7565b73ffffffffffffffffffffffffffffffffffffffff1660c08173ffffffffffffffffffffffffffffffffffffffff16815250508273ffffffffffffffffffffffffffffffffffffffff166101408173ffffffffffffffffffffffffffffffffffffffff16815250506101405173ffffffffffffffffffffffffffffffffffffffff16630935861e856040518263ffffffff1660e01b81526004016200053f919062000c95565b6020604051808303815f875af11580156200055c573d5f803e3d5ffd5b505050506040513d601f19601f8201168201806040525081019062000582919062000cf2565b73ffffffffffffffffffffffffffffffffffffffff166101208173ffffffffffffffffffffffffffffffffffffffff16815250506101205173ffffffffffffffffffffffffffffffffffffffff16635bfa1b6860c0516040518263ffffffff1660e01b8152600401620005f6919062000c95565b5f604051808303815f87803b1580156200060e575f80fd5b505af115801562000621573d5f803e3d5ffd5b50505050642e90edd000600181905550606467016345785d8a0000670de0b6b3a764000062000651919062000d4f565b6200065d919062000d89565b60028190555066038d7ea4c68000600381905550505050505062000e35565b60605f8073d377919fa87120584b21279a491f82d5265a139c73ffffffffffffffffffffffffffffffffffffffff1684604051620006bb919062000e1d565b5f60405180830381855af49150503d805f8114620006f5576040519150601f19603f3d011682016040523d82523d5f602084013e620006fa565b606091505b50915091508162000711576040513d805f833e8082fd5b8092505050919050565b5f604051905090565b5f80fd5b5f80fd5b5f73ffffffffffffffffffffffffffffffffffffffff82169050919050565b5f62000757826200072c565b9050919050565b62000769816200074b565b811462000774575f80fd5b50565b5f8151905062000787816200075e565b92915050565b5f80fd5b5f80fd5b5f601f19601f8301169050919050565b7f4e487b71000000000000000000000000000000000000000000000000000000005f52604160045260245ffd5b620007dd8262000795565b810181811067ffffffffffffffff82111715620007ff57620007fe620007a5565b5b80604052505050565b5f620008136200071b565b9050620008218282620007d2565b919050565b5f67ffffffffffffffff821115620008435762000842620007a5565b5b6200084e8262000795565b9050602081019050919050565b5f5b838110156200087a5780820151818401526020810190506200085d565b5f8484015250505050565b5f6200089b620008958462000826565b62000808565b905082815260208101848484011115620008ba57620008b962000791565b5b620008c78482856200085b565b509392505050565b5f82601f830112620008e657620008e56200078d565b5b8151620008f884826020860162000885565b91505092915050565b5f805f80608085870312156200091c576200091b62000724565b5b5f6200092b8782880162000777565b94505060206200093e8782880162000777565b9350506040620009518782880162000777565b925050606085015167ffffffffffffffff81111562000975576200097462000728565b5b6200098387828801620008cf565b91505092959194509250565b6200099a816200074b565b82525050565b5f81519050919050565b5f82825260208201905092915050565b5f620009c682620009a0565b620009d28185620009aa565b9350620009e48185602086016200085b565b620009ef8162000795565b840191505092915050565b5f60a08201905062000a0f5f8301886200098f565b818103602083015262000a238187620009ba565b905062000a3460408301866200098f565b62000a4360608301856200098f565b62000a5260808301846200098f565b9695505050505050565b5f62000a68826200074b565b9050919050565b62000a7a8162000a5c565b811462000a85575f80fd5b50565b5f8151905062000a988162000a6f565b92915050565b5f6020828403121562000ab65762000ab562000724565b5b5f62000ac58482850162000a88565b91505092915050565b5f819050919050565b62000ae28162000ace565b811462000aed575f80fd5b50565b5f8151905062000b008162000ad7565b92915050565b5f8115159050919050565b62000b1c8162000b06565b811462000b27575f80fd5b50565b5f8151905062000b3a8162000b11565b92915050565b5f806040838503121562000b595762000b5862000724565b5b5f62000b688582860162000af0565b925050602062000b7b8582860162000b2a565b9150509250929050565b5f62000b91826200074b565b9050919050565b62000ba38162000b85565b811462000bae575f80fd5b50565b5f8151905062000bc18162000b98565b92915050565b5f6020828403121562000bdf5762000bde62000724565b5b5f62000bee8482850162000bb1565b91505092915050565b5f6020828403121562000c0f5762000c0e62000724565b5b5f62000c1e8482850162000777565b91505092915050565b7f21737000000000000000000000000000000000000000000000000000000000005f82015250565b5f62000c5d600383620009aa565b915062000c6a8262000c27565b602082019050919050565b5f6020820190508181035f83015262000c8e8162000c4f565b9050919050565b5f60208201905062000caa5f8301846200098f565b92915050565b5f62000cbc826200074b565b9050919050565b62000cce8162000cb0565b811462000cd9575f80fd5b50565b5f8151905062000cec8162000cc3565b92915050565b5f6020828403121562000d0a5762000d0962000724565b5b5f62000d198482850162000cdc565b91505092915050565b7f4e487b71000000000000000000000000000000000000000000000000000000005f52601160045260245ffd5b5f62000d5b8262000ace565b915062000d688362000ace565b925082820190508082111562000d835762000d8262000d22565b5b92915050565b5f62000d958262000ace565b915062000da28362000ace565b925082820262000db28162000ace565b9150828204841483151762000dcc5762000dcb62000d22565b5b5092915050565b5f81519050919050565b5f81905092915050565b5f62000df38262000dd3565b62000dff818562000ddd565b935062000e118185602086016200085b565b80840191505092915050565b5f62000e2a828462000de7565b915081905092915050565b60805160a05160c05160e05161010051610120516101405161330462000f985f395f610e0c01525f8181610de8015281816119ef01528181611b0f01528181611cf401528181611db401528181611e7301528181611ff30152818161211e015281816121ee015261225601525f8181610b6501528181610c17015281816112d50152818161151e01526118c701525f8181610a45015261208701525f818161078c01528181610d2701528181611a2b01528181611ad301528181611b8b01528181611d3001528181611df001528181611eaf01528181611f1b01528181611fb701528181612210015261229201525f81816106b0015281816108dc015281816109a401528181610a6901528181610e6001528181610ef101528181610f94015281816110340152818161111301528181611237015281816115ab0152818161172a015261195401525f81816107350152818161136d015261163d01526133045ff3fe608060405234801561000f575f80fd5b5060043610610229575f3560e01c8063670b82711161012e578063b6a16506116100b6578063d69686011161007a578063d69686011461061c578063e8462e8f14610638578063ea2b192314610656578063efbb5cb014610674578063fde813a8146106925761022a565b8063b6a1650614610576578063c0e79a1114610594578063c3f81cc5146105b0578063d19a3bb8146105ce578063d63a8e11146105ec5761022a565b8063950b3d73116100fd578063950b3d73146104ea5780639b90fb16146105065780639d7fb70c14610522578063ac00ff261461053e578063ad7e55ba1461055a5761022a565b8063670b8271146104725780636718835f146104905780637d969932146104ae57806393fd25ec146104cc5761022a565b806346aa2f12116101b1578063503160d911610180578063503160d9146103dd5780635262e5de146103f957806353fc1db4146104175780635d265d3f1461043557806363779c74146104545761022a565b806346aa2f121461036757806349317f1d146103975780634a5d0943146103b55780634e71d92d146103d35761022a565b80632b371ecf116101f85780632b371ecf146102d55780632b45732a146102f1578063332c557a1461030f5780633d6cb5751461032d5780634426ebd0146103495761022a565b806301681a621461026157806304bd46291461027d578063157c7ff6146102ad5780632851b669146102b75761022a565b5b5f73d377919fa87120584b21279a491f82d5265a139c9050365f80375f80365f845af43d5f803e805f811461025d573d5ff35b3d5ffd5b61027b600480360381019061027691906126a0565b6106ae565b005b610297600480360381019061029291906126f5565b610992565b6040516102a49190612738565b60405180910390f35b6102b56109a2565b005b6102bf610a43565b6040516102cc91906127ac565b60405180910390f35b6102ef60048036038101906102ea91906127ef565b610a67565b005b6102f9610b54565b6040516103069190612738565b60405180910390f35b610317610b5f565b6040516103249190612834565b60405180910390f35b610347600480360381019061034291906127ef565b610c01565b005b610351610c15565b60405161035e919061286d565b60405180910390f35b610381600480360381019061037c91906126f5565b610c39565b60405161038e9190612738565b60405180910390f35b61039f610ccd565b6040516103ac9190612738565b60405180910390f35b6103bd610cec565b6040516103ca9190612738565b60405180910390f35b6103db610d06565b005b6103f760048036038101906103f291906127ef565b610d11565b005b610401610d25565b60405161040e91906128a6565b60405180910390f35b61041f610d49565b60405161042c9190612738565b60405180910390f35b61043d610d68565b60405161044b929190612949565b60405180910390f35b61045c610de6565b6040516104699190612997565b60405180910390f35b61047a610e0a565b60405161048791906129d0565b60405180910390f35b610498610e2e565b6040516104a59190612834565b60405180910390f35b6104b6610e3e565b6040516104c39190612738565b60405180910390f35b6104d4610e58565b6040516104e19190612738565b60405180910390f35b61050460048036038101906104ff91906127ef565b610e5e565b005b610520600480360381019061051b91906127ef565b610eef565b005b61053c600480360381019061053791906127ef565b610f7e565b005b61055860048036038101906105539190612a13565b610f92565b005b610574600480360381019061056f91906127ef565b611032565b005b61057e61110b565b60405161058b9190612738565b60405180910390f35b6105ae60048036038101906105a991906126f5565b611111565b005b6105b86111ee565b6040516105c59190612834565b60405180910390f35b6105d6611200565b6040516105e39190612a4d565b60405180910390f35b610606600480360381019061060191906126f5565b611218565b6040516106139190612834565b60405180910390f35b610636600480360381019061063191906127ef565b611235565b005b6106406112c6565b60405161064d9190612738565b60405180910390f35b61065e6112cc565b60405161066b9190612738565b60405180910390f35b61067c6112d2565b6040516106899190612738565b60405180910390f35b6106ac60048036038101906106a791906127ef565b611412565b005b7f000000000000000000000000000000000000000000000000000000000000000073ffffffffffffffffffffffffffffffffffffffff166348e4a649336040518263ffffffff1660e01b81526004016107079190612a4d565b5f6040518083038186803b15801561071d575f80fd5b505afa15801561072f573d5f803e3d5ffd5b505050507f000000000000000000000000000000000000000000000000000000000000000073ffffffffffffffffffffffffffffffffffffffff168173ffffffffffffffffffffffffffffffffffffffff16141580156107db57507f000000000000000000000000000000000000000000000000000000000000000073ffffffffffffffffffffffffffffffffffffffff168173ffffffffffffffffffffffffffffffffffffffff1614155b61081a576040517f08c379a000000000000000000000000000000000000000000000000000000000815260040161081190612ac0565b60405180910390fd5b5f8173ffffffffffffffffffffffffffffffffffffffff166370a08231306040518263ffffffff1660e01b81526004016108549190612a4d565b602060405180830381865afa15801561086f573d5f803e3d5ffd5b505050506040513d601f19601f820116820180604052508101906108939190612af2565b90505f81116108d7576040517f08c379a00000000000000000000000000000000000000000000000000000000081526004016108ce90612b67565b60405180910390fd5b61098e7f000000000000000000000000000000000000000000000000000000000000000073ffffffffffffffffffffffffffffffffffffffff166388a8d6026040518163ffffffff1660e01b8152600401602060405180830381865afa158015610943573d5f803e3d5ffd5b505050506040513d601f19601f820116820180604052508101906109679190612b99565b828473ffffffffffffffffffffffffffffffffffffffff166114269092919063ffffffff16565b5050565b5f61099b6112d2565b9050919050565b7f000000000000000000000000000000000000000000000000000000000000000073ffffffffffffffffffffffffffffffffffffffff166348e4a649336040518263ffffffff1660e01b81526004016109fb9190612a4d565b5f6040518083038186803b158015610a11575f80fd5b505afa158015610a23573d5f803e3d5ffd5b5050505060015f60056101000a81548160ff021916908315150217905550565b7f000000000000000000000000000000000000000000000000000000000000000081565b7f000000000000000000000000000000000000000000000000000000000000000073ffffffffffffffffffffffffffffffffffffffff166348e4a649336040518263ffffffff1660e01b8152600401610ac09190612a4d565b5f6040518083038186803b158015610ad6575f80fd5b505afa158015610ae8573d5f803e3d5ffd5b5050505067016345785d8a0000670de0b6b3a7640000610b089190612bf1565b811015610b4a576040517f08c379a0000000000000000000000000000000000000000000000000000000008152600401610b4190612c6e565b60405180910390fd5b8060028190555050565b66038d7ea4c6800081565b5f6003547f000000000000000000000000000000000000000000000000000000000000000073ffffffffffffffffffffffffffffffffffffffff166347ea8354306040518263ffffffff1660e01b8152600401610bbc9190612a4d565b602060405180830381865afa158015610bd7573d5f803e3d5ffd5b505050506040513d601f19601f82011682018060405250810190610bfb9190612af2565b11905090565b610c096114ac565b610c128161151c565b50565b7f000000000000000000000000000000000000000000000000000000000000000081565b5f8060059054906101000a900460ff1680610c9a575060045f8373ffffffffffffffffffffffffffffffffffffffff1673ffffffffffffffffffffffffffffffffffffffff1681526020019081526020015f205f9054906101000a900460ff165b610ca4575f610cc6565b7fffffffffffffffffffffffffffffffffffffffffffffffffffffffffffffffff5b9050919050565b5f610cd66114ac565b610cde6115a8565b9050610ce9816116f8565b90565b5f8060019054906101000a900461ffff1661ffff16905090565b610d0f5f61151c565b565b610d196114ac565b610d22816118c5565b50565b7f000000000000000000000000000000000000000000000000000000000000000081565b67016345785d8a0000670de0b6b3a7640000610d659190612bf1565b81565b5f6060610d73611950565b63440368a360e01b604051602401604051602081830303815290604052907bffffffffffffffffffffffffffffffffffffffffffffffffffffffff19166020820180517bffffffffffffffffffffffffffffffffffffffffffffffffffffffff8381831617835250505050915091509091565b7f000000000000000000000000000000000000000000000000000000000000000081565b7f000000000000000000000000000000000000000000000000000000000000000081565b5f8054906101000a900460ff1681565b5f8060039054906101000a900461ffff1661ffff16905090565b60025481565b7f000000000000000000000000000000000000000000000000000000000000000073ffffffffffffffffffffffffffffffffffffffff166348e4a649336040518263ffffffff1660e01b8152600401610eb79190612a4d565b5f6040518083038186803b158015610ecd575f80fd5b505afa158015610edf573d5f803e3d5ffd5b50505050610eec81611c34565b50565b7f000000000000000000000000000000000000000000000000000000000000000073ffffffffffffffffffffffffffffffffffffffff166348e4a649336040518263ffffffff1660e01b8152600401610f489190612a4d565b5f6040518083038186803b158015610f5e575f80fd5b505afa158015610f70573d5f803e3d5ffd5b505050508060018190555050565b610f866114ac565b610f8f81611cdc565b50565b7f000000000000000000000000000000000000000000000000000000000000000073ffffffffffffffffffffffffffffffffffffffff166348e4a649336040518263ffffffff1660e01b8152600401610feb9190612a4d565b5f6040518083038186803b158015611001575f80fd5b505afa158015611013573d5f803e3d5ffd5b50505050805f806101000a81548160ff02191690831515021790555050565b7f000000000000000000000000000000000000000000000000000000000000000073ffffffffffffffffffffffffffffffffffffffff166348e4a649336040518263ffffffff1660e01b815260040161108b9190612a4d565b5f6040518083038186803b1580156110a1575f80fd5b505afa1580156110b3573d5f803e3d5ffd5b5050505066038d7ea4c68000811015611101576040517f08c379a00000000000000000000000000000000000000000000000000000000081526004016110f890612cd6565b60405180910390fd5b8060038190555050565b60015481565b7f000000000000000000000000000000000000000000000000000000000000000073ffffffffffffffffffffffffffffffffffffffff166348e4a649336040518263ffffffff1660e01b815260040161116a9190612a4d565b5f6040518083038186803b158015611180575f80fd5b505afa158015611192573d5f803e3d5ffd5b50505050600160045f8373ffffffffffffffffffffffffffffffffffffffff1673ffffffffffffffffffffffffffffffffffffffff1681526020019081526020015f205f6101000a81548160ff02191690831515021790555050565b5f60059054906101000a900460ff1681565b73d377919fa87120584b21279a491f82d5265a139c81565b6004602052805f5260405f205f915054906101000a900460ff1681565b7f000000000000000000000000000000000000000000000000000000000000000073ffffffffffffffffffffffffffffffffffffffff166348e4a649336040518263ffffffff1660e01b815260040161128e9190612a4d565b5f6040518083038186803b1580156112a4575f80fd5b505afa1580156112b6573d5f803e3d5ffd5b505050506112c381612317565b50565b60035481565b6103e881565b5f7f000000000000000000000000000000000000000000000000000000000000000073ffffffffffffffffffffffffffffffffffffffff1663e96ae764306040518263ffffffff1660e01b815260040161132c9190612a4d565b602060405180830381865afa158015611347573d5f803e3d5ffd5b505050506040513d601f19601f8201168201806040525081019061136b9190612af2565b7f000000000000000000000000000000000000000000000000000000000000000073ffffffffffffffffffffffffffffffffffffffff166370a08231306040518263ffffffff1660e01b81526004016113c49190612a4d565b602060405180830381865afa1580156113df573d5f803e3d5ffd5b505050506040513d601f19601f820116820180604052508101906114039190612af2565b61140d9190612bf1565b905090565b61141a6114ac565b6114238161237a565b50565b6114a78363a9059cbb60e01b8484604051602401611445929190612cf4565b604051602081830303815290604052907bffffffffffffffffffffffffffffffffffffffffffffffffffffffff19166020820180517bffffffffffffffffffffffffffffffffffffffffffffffffffffffff83818316178352505050506123a6565b505050565b3073ffffffffffffffffffffffffffffffffffffffff163373ffffffffffffffffffffffffffffffffffffffff161461151a576040517f08c379a000000000000000000000000000000000000000000000000000000000815260040161151190612d65565b60405180910390fd5b565b7f000000000000000000000000000000000000000000000000000000000000000073ffffffffffffffffffffffffffffffffffffffff1663cfddf5f58260016040518363ffffffff1660e01b8152600401611578929190612d83565b5f604051808303815f87803b15801561158f575f80fd5b505af11580156115a1573d5f803e3d5ffd5b5050505050565b5f7f000000000000000000000000000000000000000000000000000000000000000073ffffffffffffffffffffffffffffffffffffffff1663bf86d6906040518163ffffffff1660e01b8152600401602060405180830381865afa158015611612573d5f803e3d5ffd5b505050506040513d601f19601f820116820180604052508101906116369190612dbe565b6116eb575f7f000000000000000000000000000000000000000000000000000000000000000073ffffffffffffffffffffffffffffffffffffffff166370a08231306040518263ffffffff1660e01b81526004016116949190612a4d565b602060405180830381865afa1580156116af573d5f803e3d5ffd5b505050506040513d601f19601f820116820180604052508101906116d39190612af2565b90506003548111156116e9576116e8816118c5565b5b505b6116f36112d2565b905090565b5f8054906101000a900460ff166117275760015f806101000a81548160ff0219169083151502179055506118c2565b5f7f000000000000000000000000000000000000000000000000000000000000000073ffffffffffffffffffffffffffffffffffffffff166301e1d1146040518163ffffffff1660e01b8152600401602060405180830381865afa158015611791573d5f803e3d5ffd5b505050506040513d601f19601f820116820180604052508101906117b59190612af2565b90508082111561183d576127105f60019054906101000a900461ffff1661ffff16826117e19190612de9565b6117eb9190612e57565b81836117f79190612e87565b1115611838576040517f08c379a000000000000000000000000000000000000000000000000000000000815260040161182f90612f04565b60405180910390fd5b6118c0565b818111156118bf576127105f60039054906101000a900461ffff1661ffff16826118679190612de9565b6118719190612e57565b828261187d9190612e87565b11156118be576040517f08c379a00000000000000000000000000000000000000000000000000000000081526004016118b590612f04565b60405180910390fd5b5b5b505b50565b7f000000000000000000000000000000000000000000000000000000000000000073ffffffffffffffffffffffffffffffffffffffff1663aeb4b970825f6040518363ffffffff1660e01b8152600401611920929190612d83565b5f604051808303815f87803b158015611937575f80fd5b505af1158015611949573d5f803e3d5ffd5b5050505050565b5f807f000000000000000000000000000000000000000000000000000000000000000073ffffffffffffffffffffffffffffffffffffffff166301e1d1146040518163ffffffff1660e01b8152600401602060405180830381865afa1580156119bb573d5f803e3d5ffd5b505050506040513d601f19601f820116820180604052508101906119df9190612af2565b036119ec575f9050611c31565b5f7f000000000000000000000000000000000000000000000000000000000000000073ffffffffffffffffffffffffffffffffffffffff166310098ad57f00000000000000000000000000000000000000000000000000000000000000006040518263ffffffff1660e01b8152600401611a669190612a4d565b602060405180830381865afa158015611a81573d5f803e3d5ffd5b505050506040513d601f19601f82011682018060405250810190611aa59190612af2565b1115611ab3575f9050611c31565b6001544811158015611c2e5750611ac8610b5f565b80611c2d57506003547f000000000000000000000000000000000000000000000000000000000000000073ffffffffffffffffffffffffffffffffffffffff166370a082317f00000000000000000000000000000000000000000000000000000000000000006040518263ffffffff1660e01b8152600401611b4a9190612a4d565b602060405180830381865afa158015611b65573d5f803e3d5ffd5b505050506040513d601f19601f82011682018060405250810190611b899190612af2565b7f000000000000000000000000000000000000000000000000000000000000000073ffffffffffffffffffffffffffffffffffffffff166370a08231306040518263ffffffff1660e01b8152600401611be29190612a4d565b602060405180830381865afa158015611bfd573d5f803e3d5ffd5b505050506040513d601f19601f82011682018060405250810190611c219190612af2565b611c2b9190612bf1565b115b5b90505b90565b5f8111611c76576040517f08c379a0000000000000000000000000000000000000000000000000000000008152600401611c6d90612f6c565b60405180910390fd5b61ffff8016811115611cbd576040517f08c379a0000000000000000000000000000000000000000000000000000000008152600401611cb490612fd4565b60405180910390fd5b805f60016101000a81548161ffff021916908361ffff16021790555050565b611ce4610b5f565b15611cf257611cf1610d06565b5b7f000000000000000000000000000000000000000000000000000000000000000073ffffffffffffffffffffffffffffffffffffffff16639f8a13d77f00000000000000000000000000000000000000000000000000000000000000006040518263ffffffff1660e01b8152600401611d6b9190612a4d565b602060405180830381865afa158015611d86573d5f803e3d5ffd5b505050506040513d601f19601f82011682018060405250810190611daa9190612dbe565b8015611e6c57505f7f000000000000000000000000000000000000000000000000000000000000000073ffffffffffffffffffffffffffffffffffffffff166310098ad57f00000000000000000000000000000000000000000000000000000000000000006040518263ffffffff1660e01b8152600401611e2b9190612a4d565b602060405180830381865afa158015611e46573d5f803e3d5ffd5b505050506040513d601f19601f82011682018060405250810190611e6a9190612af2565b145b15611f18577f000000000000000000000000000000000000000000000000000000000000000073ffffffffffffffffffffffffffffffffffffffff16636a256b297f00000000000000000000000000000000000000000000000000000000000000006040518263ffffffff1660e01b8152600401611eea9190612a4d565b5f604051808303815f87803b158015611f01575f80fd5b505af1158015611f13573d5f803e3d5ffd5b505050505b5f7f000000000000000000000000000000000000000000000000000000000000000073ffffffffffffffffffffffffffffffffffffffff166370a08231306040518263ffffffff1660e01b8152600401611f729190612a4d565b602060405180830381865afa158015611f8d573d5f803e3d5ffd5b505050506040513d601f19601f82011682018060405250810190611fb19190612af2565b90505f817f000000000000000000000000000000000000000000000000000000000000000073ffffffffffffffffffffffffffffffffffffffff166370a082317f00000000000000000000000000000000000000000000000000000000000000006040518263ffffffff1660e01b815260040161202e9190612a4d565b602060405180830381865afa158015612049573d5f803e3d5ffd5b505050506040513d601f19601f8201168201806040525081019061206d9190612af2565b6120779190612bf1565b9050600354811115612312575f807f000000000000000000000000000000000000000000000000000000000000000073ffffffffffffffffffffffffffffffffffffffff16630fdb11cf6040518163ffffffff1660e01b815260040160408051808303815f875af11580156120ee573d5f803e3d5ffd5b505050506040513d601f19601f820116820180604052508101906121129190612ff2565b915091505f60025490507f000000000000000000000000000000000000000000000000000000000000000073ffffffffffffffffffffffffffffffffffffffff16630f73b4f4670de0b6b3a76400008084670de0b6b3a7640000888a6121789190612de9565b6121829190612e57565b61218c9190612de9565b6121969190612e57565b6121a09190612e57565b6040518263ffffffff1660e01b81526004016121bc9190612738565b5f604051808303815f87803b1580156121d3575f80fd5b505af11580156121e5573d5f803e3d5ffd5b505050506122547f0000000000000000000000000000000000000000000000000000000000000000867f000000000000000000000000000000000000000000000000000000000000000073ffffffffffffffffffffffffffffffffffffffff166114269092919063ffffffff16565b7f000000000000000000000000000000000000000000000000000000000000000073ffffffffffffffffffffffffffffffffffffffff166396c551757f00000000000000000000000000000000000000000000000000000000000000006040518263ffffffff1660e01b81526004016122cd9190612a4d565b6020604051808303815f875af11580156122e9573d5f803e3d5ffd5b505050506040513d601f19601f8201168201806040525081019061230d9190612af2565b505050505b505050565b612710811061235b576040517f08c379a00000000000000000000000000000000000000000000000000000000081526004016123529061307a565b60405180910390fd5b805f60036101000a81548161ffff021916908361ffff16021790555050565b6123a37fffffffffffffffffffffffffffffffffffffffffffffffffffffffffffffffff61151c565b50565b5f612407826040518060400160405280602081526020017f5361666545524332303a206c6f772d6c6576656c2063616c6c206661696c65648152508573ffffffffffffffffffffffffffffffffffffffff1661246c9092919063ffffffff16565b90505f815114806124285750808060200190518101906124279190612dbe565b5b612467576040517f08c379a000000000000000000000000000000000000000000000000000000000815260040161245e90613108565b60405180910390fd5b505050565b606061247a84845f85612483565b90509392505050565b6060824710156124c8576040517f08c379a00000000000000000000000000000000000000000000000000000000081526004016124bf90613196565b60405180910390fd5b5f808673ffffffffffffffffffffffffffffffffffffffff1685876040516124f091906131ee565b5f6040518083038185875af1925050503d805f811461252a576040519150601f19603f3d011682016040523d82523d5f602084013e61252f565b606091505b50915091506125408783838761254c565b92505050949350505050565b606083156125ad575f8351036125a557612565856125c0565b6125a4576040517f08c379a000000000000000000000000000000000000000000000000000000000815260040161259b9061324e565b60405180910390fd5b5b8290506125b8565b6125b783836125e2565b5b949350505050565b5f808273ffffffffffffffffffffffffffffffffffffffff163b119050919050565b5f825111156125f45781518083602001fd5b806040517f08c379a000000000000000000000000000000000000000000000000000000000815260040161262891906132ae565b60405180910390fd5b5f80fd5b5f73ffffffffffffffffffffffffffffffffffffffff82169050919050565b5f61265e82612635565b9050919050565b5f61266f82612654565b9050919050565b61267f81612665565b8114612689575f80fd5b50565b5f8135905061269a81612676565b92915050565b5f602082840312156126b5576126b4612631565b5b5f6126c28482850161268c565b91505092915050565b6126d481612654565b81146126de575f80fd5b50565b5f813590506126ef816126cb565b92915050565b5f6020828403121561270a57612709612631565b5b5f612717848285016126e1565b91505092915050565b5f819050919050565b61273281612720565b82525050565b5f60208201905061274b5f830184612729565b92915050565b5f819050919050565b5f61277461276f61276a84612635565b612751565b612635565b9050919050565b5f6127858261275a565b9050919050565b5f6127968261277b565b9050919050565b6127a68161278c565b82525050565b5f6020820190506127bf5f83018461279d565b92915050565b6127ce81612720565b81146127d8575f80fd5b50565b5f813590506127e9816127c5565b92915050565b5f6020828403121561280457612803612631565b5b5f612811848285016127db565b91505092915050565b5f8115159050919050565b61282e8161281a565b82525050565b5f6020820190506128475f830184612825565b92915050565b5f6128578261277b565b9050919050565b6128678161284d565b82525050565b5f6020820190506128805f83018461285e565b92915050565b5f6128908261277b565b9050919050565b6128a081612886565b82525050565b5f6020820190506128b95f830184612897565b92915050565b5f81519050919050565b5f82825260208201905092915050565b5f5b838110156128f65780820151818401526020810190506128db565b5f8484015250505050565b5f601f19601f8301169050919050565b5f61291b826128bf565b61292581856128c9565b93506129358185602086016128d9565b61293e81612901565b840191505092915050565b5f60408201905061295c5f830185612825565b818103602083015261296e8184612911565b90509392505050565b5f6129818261277b565b9050919050565b61299181612977565b82525050565b5f6020820190506129aa5f830184612988565b92915050565b5f6129ba8261277b565b9050919050565b6129ca816129b0565b82525050565b5f6020820190506129e35f8301846129c1565b92915050565b6129f28161281a565b81146129fc575f80fd5b50565b5f81359050612a0d816129e9565b92915050565b5f60208284031215612a2857612a27612631565b5b5f612a35848285016129ff565b91505092915050565b612a4781612654565b82525050565b5f602082019050612a605f830184612a3e565b92915050565b5f82825260208201905092915050565b7f21746f6b656e00000000000000000000000000000000000000000000000000005f82015250565b5f612aaa600683612a66565b9150612ab582612a76565b602082019050919050565b5f6020820190508181035f830152612ad781612a9e565b9050919050565b5f81519050612aec816127c5565b92915050565b5f60208284031215612b0757612b06612631565b5b5f612b1484828501612ade565b91505092915050565b7f2162616c616e63650000000000000000000000000000000000000000000000005f82015250565b5f612b51600883612a66565b9150612b5c82612b1d565b602082019050919050565b5f6020820190508181035f830152612b7e81612b45565b9050919050565b5f81519050612b93816126cb565b92915050565b5f60208284031215612bae57612bad612631565b5b5f612bbb84828501612b85565b91505092915050565b7f4e487b71000000000000000000000000000000000000000000000000000000005f52601160045260245ffd5b5f612bfb82612720565b9150612c0683612720565b9250828201905080821115612c1e57612c1d612bc4565b5b92915050565b7f216d696e427566666572000000000000000000000000000000000000000000005f82015250565b5f612c58600a83612a66565b9150612c6382612c24565b602082019050919050565b5f6020820190508181035f830152612c8581612c4c565b9050919050565b7f216d696e447573740000000000000000000000000000000000000000000000005f82015250565b5f612cc0600883612a66565b9150612ccb82612c8c565b602082019050919050565b5f6020820190508181035f830152612ced81612cb4565b9050919050565b5f604082019050612d075f830185612a3e565b612d146020830184612729565b9392505050565b7f2173656c660000000000000000000000000000000000000000000000000000005f82015250565b5f612d4f600583612a66565b9150612d5a82612d1b565b602082019050919050565b5f6020820190508181035f830152612d7c81612d43565b9050919050565b5f604082019050612d965f830185612729565b612da36020830184612825565b9392505050565b5f81519050612db8816129e9565b92915050565b5f60208284031215612dd357612dd2612631565b5b5f612de084828501612daa565b91505092915050565b5f612df382612720565b9150612dfe83612720565b9250828202612e0c81612720565b91508282048414831517612e2357612e22612bc4565b5b5092915050565b7f4e487b71000000000000000000000000000000000000000000000000000000005f52601260045260245ffd5b5f612e6182612720565b9150612e6c83612720565b925082612e7c57612e7b612e2a565b5b828204905092915050565b5f612e9182612720565b9150612e9c83612720565b9250828203905081811115612eb457612eb3612bc4565b5b92915050565b7f6865616c7468436865636b0000000000000000000000000000000000000000005f82015250565b5f612eee600b83612a66565b9150612ef982612eba565b602082019050919050565b5f6020820190508181035f830152612f1b81612ee2565b9050919050565b7f217a65726f2070726f66697400000000000000000000000000000000000000005f82015250565b5f612f56600c83612a66565b9150612f6182612f22565b602082019050919050565b5f6020820190508181035f830152612f8381612f4a565b9050919050565b7f21746f6f206869676800000000000000000000000000000000000000000000005f82015250565b5f612fbe600983612a66565b9150612fc982612f8a565b602082019050919050565b5f6020820190508181035f830152612feb81612fb2565b9050919050565b5f806040838503121561300857613007612631565b5b5f61301585828601612ade565b925050602061302685828601612daa565b9150509250929050565b7f216c6f7373206c696d69740000000000000000000000000000000000000000005f82015250565b5f613064600b83612a66565b915061306f82613030565b602082019050919050565b5f6020820190508181035f83015261309181613058565b9050919050565b7f5361666545524332303a204552433230206f7065726174696f6e20646964206e5f8201527f6f74207375636365656400000000000000000000000000000000000000000000602082015250565b5f6130f2602a83612a66565b91506130fd82613098565b604082019050919050565b5f6020820190508181035f83015261311f816130e6565b9050919050565b7f416464726573733a20696e73756666696369656e742062616c616e636520666f5f8201527f722063616c6c0000000000000000000000000000000000000000000000000000602082015250565b5f613180602683612a66565b915061318b82613126565b604082019050919050565b5f6020820190508181035f8301526131ad81613174565b9050919050565b5f81905092915050565b5f6131c8826128bf565b6131d281856131b4565b93506131e28185602086016128d9565b80840191505092915050565b5f6131f982846131be565b915081905092915050565b7f416464726573733a2063616c6c20746f206e6f6e2d636f6e74726163740000005f82015250565b5f613238601d83612a66565b915061324382613204565b602082019050919050565b5f6020820190508181035f8301526132658161322c565b9050919050565b5f81519050919050565b5f6132808261326c565b61328a8185612a66565b935061329a8185602086016128d9565b6132a381612901565b840191505092915050565b5f6020820190508181035f8301526132c68184613276565b90509291505056fea2646970667358221220bf7588ab04dbc3843f7e477697ba9ac18321bf48a16cd39c6b06ea5c9991877b64736f6c63430008170033000000000000000000000000fc4e20bd9f0e4f8782bea92a7bd800236788240700000000000000000000000002c6a2fa58cc01a18b8d9e00ea48d65e4df26c7000000000000000000000000071ccf86cf63a5d55b12aa7e7079c22f39112dd7d0000000000000000000000000000000000000000000000000000000000000080000000000000000000000000000000000000000000000000000000000000001b6665555344206665554254432053746162696c69747920506f6f6c0000000000"
        },
        {
          "transactionType": "CREATE",
          "address": "0x7ef166fcf670e549a0e046bb043833531a7e3d53",
          "initCode": "0x3d602d80600a3d3981f3363d3d373d3d3d363d734c2ff4558424010336a0382364fa5f492f7cd22d5af43d82803e903d91602b57fd5bf3"
        }
      ],
      "isFixedGasLimit": false
    },
    {
      "hash": "0x6a161de2c3a5cb83cea1291065e28c5419152641ff112c5bed8f2fb8365f1f80",
      "transactionType": "CALL",
      "contractName": null,
      "contractAddress": "0x770d0d1fb036483ed4abb6d53c1c88fb277d812f",
      "function": "deploy_new_vault(address,string,string,address,uint256)",
      "arguments": [
        "0x02c6a2fA58cC01A18B8D9E00eA48d65E4dF26c70",
        "temp-Savings feUSD",
        "temp-sfeUSD",
        "0x318d0059efE546b5687FA6744aF4339391153981",
        "86400"
      ],
      "transaction": {
        "from": "0x318d0059efe546b5687fa6744af4339391153981",
        "to": "0x770d0d1fb036483ed4abb6d53c1c88fb277d812f",
        "gas": "0x5f0f3",
        "value": "0x0",
        "input": "0xb4aeee7700000000000000000000000002c6a2fa58cc01a18b8d9e00ea48d65e4df26c7000000000000000000000000000000000000000000000000000000000000000a000000000000000000000000000000000000000000000000000000000000000e0000000000000000000000000318d0059efe546b5687fa6744af43393911539810000000000000000000000000000000000000000000000000000000000015180000000000000000000000000000000000000000000000000000000000000001274656d702d536176696e67732066655553440000000000000000000000000000000000000000000000000000000000000000000000000000000000000000000b74656d702d736665555344000000000000000000000000000000000000000000",
        "nonce": "0x19",
        "chainId": "0x3e7"
      },
      "additionalContracts": [
        {
          "transactionType": "CREATE2",
          "address": "0x93bd1d61b54bb80edf95f40e80cc16da61c34a3f",
          "initCode": "0x602d3d8160093d39f3363d3d373d3d3d363d73d8063123bba3b480569244ae66bfe72b6c84b00d5af43d82803e903d91602b57fd5bf3"
        }
      ],
      "isFixedGasLimit": false
    },
    {
      "hash": "0x2faffe045f00d6afa5811b246c31612c57f09d777f704255ec1554af319644bc",
      "transactionType": "CALL",
      "contractName": null,
      "contractAddress": "0x93bd1d61b54bb80edf95f40e80cc16da61c34a3f",
      "function": "set_role(address,uint256)",
      "arguments": [
        "0x318d0059efE546b5687FA6744aF4339391153981",
        "16383"
      ],
      "transaction": {
        "from": "0x318d0059efe546b5687fa6744af4339391153981",
        "to": "0x93bd1d61b54bb80edf95f40e80cc16da61c34a3f",
        "gas": "0x110c8",
        "value": "0x0",
        "input": "0x2cf7fd85000000000000000000000000318d0059efe546b5687fa6744af43393911539810000000000000000000000000000000000000000000000000000000000003fff",
        "nonce": "0x1a",
        "chainId": "0x3e7"
      },
      "additionalContracts": [],
      "isFixedGasLimit": false
    },
    {
      "hash": "0xc7fa5c1e0a0657cbe0fcfab324fe30e7f2758f0489f75a8aeab62e385f54e974",
      "transactionType": "CALL",
      "contractName": null,
      "contractAddress": "0x93bd1d61b54bb80edf95f40e80cc16da61c34a3f",
      "function": "set_deposit_limit(uint256)",
      "arguments": [
        "100000000000000000000000000000"
      ],
      "transaction": {
        "from": "0x318d0059efe546b5687fa6744af4339391153981",
        "to": "0x93bd1d61b54bb80edf95f40e80cc16da61c34a3f",
        "gas": "0x122d4",
        "value": "0x0",
        "input": "0x6fe01d1e0000000000000000000000000000000000000001431e0fae6d7217caa0000000",
        "nonce": "0x1b",
        "chainId": "0x3e7"
      },
      "additionalContracts": [],
      "isFixedGasLimit": false
    },
    {
      "hash": "0xd8eb1fa6d5585830e09c72f4ad150cde77458469e04284f9d11fd676f532bd74",
      "transactionType": "CALL",
      "contractName": null,
      "contractAddress": "0x93bd1d61b54bb80edf95f40e80cc16da61c34a3f",
      "function": "set_auto_allocate(bool)",
      "arguments": [
        "true"
      ],
      "transaction": {
        "from": "0x318d0059efe546b5687fa6744af4339391153981",
        "to": "0x93bd1d61b54bb80edf95f40e80cc16da61c34a3f",
        "gas": "0x11af5",
        "value": "0x0",
        "input": "0x6f71047d0000000000000000000000000000000000000000000000000000000000000001",
        "nonce": "0x1c",
        "chainId": "0x3e7"
      },
      "additionalContracts": [],
      "isFixedGasLimit": false
    },
    {
      "hash": "0xc9298ec6094b612ede9a0d62b933b89969c3489baa883042224268ba71fa455d",
      "transactionType": "CALL",
      "contractName": null,
      "contractAddress": "0x93bd1d61b54bb80edf95f40e80cc16da61c34a3f",
      "function": "add_strategy(address)",
      "arguments": [
        "0x41F4E8B09699Ef33A603bd4afa3aFC68b4b0F1d5"
      ],
      "transaction": {
        "from": "0x318d0059efe546b5687fa6744af4339391153981",
        "to": "0x93bd1d61b54bb80edf95f40e80cc16da61c34a3f",
        "gas": "0x2f371",
        "value": "0x0",
        "input": "0xde7aeb4100000000000000000000000041f4e8b09699ef33a603bd4afa3afc68b4b0f1d5",
        "nonce": "0x1d",
        "chainId": "0x3e7"
      },
      "additionalContracts": [],
      "isFixedGasLimit": false
    },
    {
      "hash": "0xee06d0e07fad0cf453ae5318c3aad99d35386e9c7deb17f9d7d4e1c054c6b8aa",
      "transactionType": "CALL",
      "contractName": null,
      "contractAddress": "0x93bd1d61b54bb80edf95f40e80cc16da61c34a3f",
      "function": "update_max_debt_for_strategy(address,uint256)",
      "arguments": [
        "0x41F4E8B09699Ef33A603bd4afa3aFC68b4b0F1d5",
        "10000000000000000000000000000"
      ],
      "transaction": {
        "from": "0x318d0059efe546b5687fa6744af4339391153981",
        "to": "0x93bd1d61b54bb80edf95f40e80cc16da61c34a3f",
        "gas": "0x120ec",
        "value": "0x0",
        "input": "0xb9ddcd6800000000000000000000000041f4e8b09699ef33a603bd4afa3afc68b4b0f1d50000000000000000000000000000000000000000204fce5e3e25026110000000",
        "nonce": "0x1e",
        "chainId": "0x3e7"
      },
      "additionalContracts": [],
      "isFixedGasLimit": false
    },
    {
      "hash": "0x679da21d74836b5a138fa2ede498bb000d98164bef44ea517ef962295daeb9b7",
      "transactionType": "CALL",
      "contractName": null,
      "contractAddress": "0x93bd1d61b54bb80edf95f40e80cc16da61c34a3f",
      "function": "add_strategy(address)",
      "arguments": [
        "0xf649b92fEa08EaAd2fa5c00553Dda561eb1379Ee"
      ],
      "transaction": {
        "from": "0x318d0059efe546b5687fa6744af4339391153981",
        "to": "0x93bd1d61b54bb80edf95f40e80cc16da61c34a3f",
        "gas": "0x26d35",
        "value": "0x0",
        "input": "0xde7aeb41000000000000000000000000f649b92fea08eaad2fa5c00553dda561eb1379ee",
        "nonce": "0x1f",
        "chainId": "0x3e7"
      },
      "additionalContracts": [],
      "isFixedGasLimit": false
    },
    {
      "hash": "0x3a2b578bdb1e47a9235a7875058eec0089c00bb003001162dbb67e826f0bdce0",
      "transactionType": "CALL",
      "contractName": null,
      "contractAddress": "0x93bd1d61b54bb80edf95f40e80cc16da61c34a3f",
      "function": "update_max_debt_for_strategy(address,uint256)",
      "arguments": [
        "0xf649b92fEa08EaAd2fa5c00553Dda561eb1379Ee",
        "10000000000000000000000000000"
      ],
      "transaction": {
        "from": "0x318d0059efe546b5687fa6744af4339391153981",
        "to": "0x93bd1d61b54bb80edf95f40e80cc16da61c34a3f",
        "gas": "0x120ec",
        "value": "0x0",
        "input": "0xb9ddcd68000000000000000000000000f649b92fea08eaad2fa5c00553dda561eb1379ee0000000000000000000000000000000000000000204fce5e3e25026110000000",
        "nonce": "0x20",
        "chainId": "0x3e7"
      },
      "additionalContracts": [],
      "isFixedGasLimit": false
    },
    {
      "hash": "0x3c0237dc0d2b0068b5584e2c66e995b567290395e82ee72a5483ed9f19073fcb",
      "transactionType": "CALL",
      "contractName": "LiquityV2SPStrategy",
      "contractAddress": "0x41f4e8b09699ef33a603bd4afa3afc68b4b0f1d5",
      "function": null,
      "arguments": null,
      "transaction": {
        "from": "0x318d0059efe546b5687fa6744af4339391153981",
        "to": "0x41f4e8b09699ef33a603bd4afa3afc68b4b0f1d5",
        "gas": "0xb0d7",
        "value": "0x0",
        "input": "0xc8c2fe6c",
        "nonce": "0x21",
        "chainId": "0x3e7"
      },
      "additionalContracts": [],
      "isFixedGasLimit": false
    },
    {
      "hash": "0xcc1714d87211c0407e6b325f3cacd47d5acb7a93a3d5f7318f58955abf769177",
      "transactionType": "CALL",
      "contractName": "LiquityV2SPStrategy",
      "contractAddress": "0x41f4e8b09699ef33a603bd4afa3afc68b4b0f1d5",
      "function": null,
      "arguments": null,
      "transaction": {
        "from": "0x318d0059efe546b5687fa6744af4339391153981",
        "to": "0x41f4e8b09699ef33a603bd4afa3afc68b4b0f1d5",
        "gas": "0xb23f",
        "value": "0x0",
        "input": "0xdf69b22a0000000000000000000000000000000000000000000000000000000000015180",
        "nonce": "0x22",
        "chainId": "0x3e7"
      },
      "additionalContracts": [],
      "isFixedGasLimit": false
    },
    {
      "hash": "0x626a3ac821daca3f27ce6e0a1a251903cc0cf0b5730b31988f5dcafcb64bdb3e",
      "transactionType": "CALL",
      "contractName": "LiquityV2SPStrategy",
      "contractAddress": "0x41f4e8b09699ef33a603bd4afa3afc68b4b0f1d5",
      "function": "setAllowed(address)",
      "arguments": [
        "0x93Bd1D61B54BB80eDf95F40E80CC16DA61c34a3f"
      ],
      "transaction": {
        "from": "0x318d0059efe546b5687fa6744af4339391153981",
        "to": "0x41f4e8b09699ef33a603bd4afa3afc68b4b0f1d5",
        "gas": "0x10fca",
        "value": "0x0",
        "input": "0xc0e79a1100000000000000000000000093bd1d61b54bb80edf95f40e80cc16da61c34a3f",
        "nonce": "0x23",
        "chainId": "0x3e7"
      },
      "additionalContracts": [],
      "isFixedGasLimit": false
    },
    {
      "hash": "0xe16e02251815a10e517b25f3a1bcff0a55fee527a2e138c68af9882cd7ddcb1e",
      "transactionType": "CALL",
      "contractName": "LiquityV2SPStrategy",
      "contractAddress": "0x41f4e8b09699ef33a603bd4afa3afc68b4b0f1d5",
      "function": null,
      "arguments": null,
      "transaction": {
        "from": "0x318d0059efe546b5687fa6744af4339391153981",
        "to": "0x41f4e8b09699ef33a603bd4afa3afc68b4b0f1d5",
        "gas": "0x110eb",
        "value": "0x0",
        "input": "0xf629b7900000000000000000000000005e061c197d69c0e809e9269ed212730d91e8cb39",
        "nonce": "0x24",
        "chainId": "0x3e7"
      },
      "additionalContracts": [],
      "isFixedGasLimit": false
    },
    {
      "hash": "0xfd96dfc93ed0c614cdaf7ac04c05d7df09d06c16a6aecdb65d7df2d8306189e1",
      "transactionType": "CALL",
      "contractName": "LiquityV2SPStrategy",
      "contractAddress": "0x41f4e8b09699ef33a603bd4afa3afc68b4b0f1d5",
      "function": null,
      "arguments": null,
      "transaction": {
        "from": "0x318d0059efe546b5687fa6744af4339391153981",
        "to": "0x41f4e8b09699ef33a603bd4afa3afc68b4b0f1d5",
        "gas": "0xb279",
        "value": "0x0",
        "input": "0xaa290e6d0000000000000000000000000000000000000000000000000000000000000000",
        "nonce": "0x25",
        "chainId": "0x3e7"
      },
      "additionalContracts": [],
      "isFixedGasLimit": false
    },
    {
      "hash": "0x880d01a95e00ba86e6e74436cfae940724fc513b0081bf515ca6ffaa0d6fd9bd",
      "transactionType": "CALL",
      "contractName": "LiquityV2SPStrategy",
      "contractAddress": "0xf649b92fea08eaad2fa5c00553dda561eb1379ee",
      "function": null,
      "arguments": null,
      "transaction": {
        "from": "0x318d0059efe546b5687fa6744af4339391153981",
        "to": "0xf649b92fea08eaad2fa5c00553dda561eb1379ee",
        "gas": "0xb0d7",
        "value": "0x0",
        "input": "0xc8c2fe6c",
        "nonce": "0x26",
        "chainId": "0x3e7"
      },
      "additionalContracts": [],
      "isFixedGasLimit": false
    },
    {
      "hash": "0xcfc0764f1e1ddcfaab363af2e53c0359e7e043b70a8cdb092f7ef7087cc53295",
      "transactionType": "CALL",
      "contractName": "LiquityV2SPStrategy",
      "contractAddress": "0xf649b92fea08eaad2fa5c00553dda561eb1379ee",
      "function": null,
      "arguments": null,
      "transaction": {
        "from": "0x318d0059efe546b5687fa6744af4339391153981",
        "to": "0xf649b92fea08eaad2fa5c00553dda561eb1379ee",
        "gas": "0xb23f",
        "value": "0x0",
        "input": "0xdf69b22a0000000000000000000000000000000000000000000000000000000000015180",
        "nonce": "0x27",
        "chainId": "0x3e7"
      },
      "additionalContracts": [],
      "isFixedGasLimit": false
    },
    {
      "hash": "0x0541f2c5a4d1cd88bf7a69bd145b3b6d5b18519da7f4c1a4cc4b64afd486c789",
      "transactionType": "CALL",
      "contractName": "LiquityV2SPStrategy",
      "contractAddress": "0xf649b92fea08eaad2fa5c00553dda561eb1379ee",
      "function": "setAllowed(address)",
      "arguments": [
        "0x93Bd1D61B54BB80eDf95F40E80CC16DA61c34a3f"
      ],
      "transaction": {
        "from": "0x318d0059efe546b5687fa6744af4339391153981",
        "to": "0xf649b92fea08eaad2fa5c00553dda561eb1379ee",
        "gas": "0x10fca",
        "value": "0x0",
        "input": "0xc0e79a1100000000000000000000000093bd1d61b54bb80edf95f40e80cc16da61c34a3f",
        "nonce": "0x28",
        "chainId": "0x3e7"
      },
      "additionalContracts": [],
      "isFixedGasLimit": false
    },
    {
      "hash": "0xac8514bde34efa8d111b37de7ab13e8da24fccffd0edce577d44c353a262f7d1",
      "transactionType": "CALL",
      "contractName": "LiquityV2SPStrategy",
      "contractAddress": "0xf649b92fea08eaad2fa5c00553dda561eb1379ee",
      "function": null,
      "arguments": null,
      "transaction": {
        "from": "0x318d0059efe546b5687fa6744af4339391153981",
        "to": "0xf649b92fea08eaad2fa5c00553dda561eb1379ee",
        "gas": "0x110eb",
        "value": "0x0",
        "input": "0xf629b7900000000000000000000000005e061c197d69c0e809e9269ed212730d91e8cb39",
        "nonce": "0x29",
        "chainId": "0x3e7"
      },
      "additionalContracts": [],
      "isFixedGasLimit": false
    },
    {
      "hash": "0x1c7b6906c1ece584c7f68893e422e10b11cb7e7dbbec0208be9567d677ecdef1",
      "transactionType": "CALL",
      "contractName": "LiquityV2SPStrategy",
      "contractAddress": "0xf649b92fea08eaad2fa5c00553dda561eb1379ee",
      "function": null,
      "arguments": null,
      "transaction": {
        "from": "0x318d0059efe546b5687fa6744af4339391153981",
        "to": "0xf649b92fea08eaad2fa5c00553dda561eb1379ee",
        "gas": "0xb279",
        "value": "0x0",
        "input": "0xaa290e6d0000000000000000000000000000000000000000000000000000000000000000",
        "nonce": "0x2a",
        "chainId": "0x3e7"
      },
      "additionalContracts": [],
      "isFixedGasLimit": false
    }
  ],
  "receipts": [
    {
      "status": "0x1",
      "cumulativeGasUsed": "0x3a213c",
      "logs": [
        {
          "address": "0x41f4e8b09699ef33a603bd4afa3afc68b4b0f1d5",
          "topics": [
            "0xfb1616746b8474b6b7c67f2fe5ada156ed24774d0efe8bfe529cf537ba173330",
            "0x00000000000000000000000041f4e8b09699ef33a603bd4afa3afc68b4b0f1d5",
            "0x00000000000000000000000002c6a2fa58cc01a18b8d9e00ea48d65e4df26c70"
          ],
          "data": "0x00000000000000000000000000000000000000000000000000000000000000200000000000000000000000000000000000000000000000000000000000000005332e302e34000000000000000000000000000000000000000000000000000000",
          "blockHash": "0x7196dce7757ed81fbb5c789d9a8870acf436420d81f29cf1adeaaf43317df926",
          "blockNumber": "0x831d8c",
          "blockTimestamp": "0x687810f0",
          "transactionHash": "0x98c790e9b39db60386d4b8330529f092606afc8b822760f420d80d32d5565bcd",
          "transactionIndex": "0x4",
          "logIndex": "0x10",
          "removed": false
        },
        {
          "address": "0x9ca580103d1c711ad198c369c63b46f3e66976d6",
          "topics": [
            "0x9a662b9b8a431c26da8dea3d6a011bf4959a20ddbc3dfe618abfc3898d2c901f"
          ],
          "data": "0x00000000000000000000000000000000000000000000000000000000000f4240",
          "blockHash": "0x7196dce7757ed81fbb5c789d9a8870acf436420d81f29cf1adeaaf43317df926",
          "blockNumber": "0x831d8c",
          "blockTimestamp": "0x687810f0",
          "transactionHash": "0x98c790e9b39db60386d4b8330529f092606afc8b822760f420d80d32d5565bcd",
          "transactionIndex": "0x4",
          "logIndex": "0x11",
          "removed": false
        },
        {
          "address": "0x71ccf86cf63a5d55b12aa7e7079c22f39112dd7d",
          "topics": [
            "0xbc4082f61ad2c1141396485591a31655629009271d5910d28313c0460ced44db",
            "0x0000000000000000000000009ca580103d1c711ad198c369c63b46f3e66976d6",
            "0x00000000000000000000000002c6a2fa58cc01a18b8d9e00ea48d65e4df26c70"
          ],
          "data": "0x",
          "blockHash": "0x7196dce7757ed81fbb5c789d9a8870acf436420d81f29cf1adeaaf43317df926",
          "blockNumber": "0x831d8c",
          "blockTimestamp": "0x687810f0",
          "transactionHash": "0x98c790e9b39db60386d4b8330529f092606afc8b822760f420d80d32d5565bcd",
          "transactionIndex": "0x4",
          "logIndex": "0x12",
          "removed": false
        },
        {
          "address": "0x5555555555555555555555555555555555555555",
          "topics": [
            "0x8c5be1e5ebec7d5bd14f71427d1e84f3dd0314c0f7b2291e5b200ac8c7c3b925",
            "0x0000000000000000000000009ca580103d1c711ad198c369c63b46f3e66976d6",
            "0x000000000000000000000000c92e8bdf79f0507f65a392b0ab4667716bfe0110"
          ],
          "data": "0xffffffffffffffffffffffffffffffffffffffffffffffffffffffffffffffff",
          "blockHash": "0x7196dce7757ed81fbb5c789d9a8870acf436420d81f29cf1adeaaf43317df926",
          "blockNumber": "0x831d8c",
          "blockTimestamp": "0x687810f0",
          "transactionHash": "0x98c790e9b39db60386d4b8330529f092606afc8b822760f420d80d32d5565bcd",
          "transactionIndex": "0x4",
          "logIndex": "0x13",
          "removed": false
        },
        {
          "address": "0x9ca580103d1c711ad198c369c63b46f3e66976d6",
          "topics": [
            "0xed6bfe4670b251246a8da2ece7f7b4f47fd7761ae0b2843a64d1ae1ee90fef4d",
            "0x0000000000000000000000005555555555555555555555555555555555555555",
            "0x00000000000000000000000002c6a2fa58cc01a18b8d9e00ea48d65e4df26c70"
          ],
          "data": "0x",
          "blockHash": "0x7196dce7757ed81fbb5c789d9a8870acf436420d81f29cf1adeaaf43317df926",
          "blockNumber": "0x831d8c",
          "blockTimestamp": "0x687810f0",
          "transactionHash": "0x98c790e9b39db60386d4b8330529f092606afc8b822760f420d80d32d5565bcd",
          "transactionIndex": "0x4",
          "logIndex": "0x14",
          "removed": false
        },
        {
          "address": "0x41f4e8b09699ef33a603bd4afa3afc68b4b0f1d5",
          "topics": [
            "0x9ebbf695dd251e855d9d15a146a72f5f654dc6f8630fbc11212f27e0c88ba11a",
            "0x0000000000000000000000005e061c197d69c0e809e9269ed212730d91e8cb39"
          ],
          "data": "0x",
          "blockHash": "0x7196dce7757ed81fbb5c789d9a8870acf436420d81f29cf1adeaaf43317df926",
          "blockNumber": "0x831d8c",
          "blockTimestamp": "0x687810f0",
          "transactionHash": "0x98c790e9b39db60386d4b8330529f092606afc8b822760f420d80d32d5565bcd",
          "transactionIndex": "0x4",
          "logIndex": "0x15",
          "removed": false
        },
        {
          "address": "0x41f4e8b09699ef33a603bd4afa3afc68b4b0f1d5",
          "topics": [
            "0xd7f49e282c36d417b290d4181a56943f6d670aaa2987c0d40e60d39919c68882",
            "0x000000000000000000000000318d0059efe546b5687fa6744af4339391153981"
          ],
          "data": "0x",
          "blockHash": "0x7196dce7757ed81fbb5c789d9a8870acf436420d81f29cf1adeaaf43317df926",
          "blockNumber": "0x831d8c",
          "blockTimestamp": "0x687810f0",
          "transactionHash": "0x98c790e9b39db60386d4b8330529f092606afc8b822760f420d80d32d5565bcd",
          "transactionIndex": "0x4",
          "logIndex": "0x16",
          "removed": false
        },
        {
          "address": "0x41f4e8b09699ef33a603bd4afa3afc68b4b0f1d5",
          "topics": [
            "0xd74668a8c80a07cc56d7c3318a06439eaa815e740d97dcd83487e1fc75076b8b",
            "0x000000000000000000000000318d0059efe546b5687fa6744af4339391153981"
          ],
          "data": "0x",
          "blockHash": "0x7196dce7757ed81fbb5c789d9a8870acf436420d81f29cf1adeaaf43317df926",
          "blockNumber": "0x831d8c",
          "blockTimestamp": "0x687810f0",
          "transactionHash": "0x98c790e9b39db60386d4b8330529f092606afc8b822760f420d80d32d5565bcd",
          "transactionIndex": "0x4",
          "logIndex": "0x17",
          "removed": false
        },
        {
          "address": "0x41f4e8b09699ef33a603bd4afa3afc68b4b0f1d5",
          "topics": [
            "0x2bf242d027263e45fab022c28b4144255c97b30b8e54c30f1f5757906d487f09",
            "0x0000000000000000000000005e061c197d69c0e809e9269ed212730d91e8cb39"
          ],
          "data": "0x",
          "blockHash": "0x7196dce7757ed81fbb5c789d9a8870acf436420d81f29cf1adeaaf43317df926",
          "blockNumber": "0x831d8c",
          "blockTimestamp": "0x687810f0",
          "transactionHash": "0x98c790e9b39db60386d4b8330529f092606afc8b822760f420d80d32d5565bcd",
          "transactionIndex": "0x4",
          "logIndex": "0x18",
          "removed": false
        },
        {
          "address": "0xc438806b0726ade87f746d2b2ad07f6f05a26a85",
          "topics": [
            "0x8df0e8eb14c6434c85afc8f6f514518422607c8a8696492397a729a010ba83f9",
            "0x00000000000000000000000041f4e8b09699ef33a603bd4afa3afc68b4b0f1d5",
            "0x00000000000000000000000002c6a2fa58cc01a18b8d9e00ea48d65e4df26c70"
          ],
          "data": "0x",
          "blockHash": "0x7196dce7757ed81fbb5c789d9a8870acf436420d81f29cf1adeaaf43317df926",
          "blockNumber": "0x831d8c",
          "blockTimestamp": "0x687810f0",
          "transactionHash": "0x98c790e9b39db60386d4b8330529f092606afc8b822760f420d80d32d5565bcd",
          "transactionIndex": "0x4",
          "logIndex": "0x19",
          "removed": false
        }
      ],
      "logsBloom": "0x00000000000002000000000001000400000000000800500000000000000000010001020000400000000000000000000000000040040000001000000100200000002404400000000000000000800400002100002000000000001200000000000040100000000020000000010000101020000001000100000208200000000000000000002000008000080000000000040040000000000000000100000002000000020000000000000080000040000000000000000000000000000000000000000000000400000000000000000000000000000a00000000000100200000100000000010108810080000400200000000000000008000000000000001000000000400",
      "type": "0x0",
      "transactionHash": "0x98c790e9b39db60386d4b8330529f092606afc8b822760f420d80d32d5565bcd",
      "transactionIndex": "0x4",
      "blockHash": "0x7196dce7757ed81fbb5c789d9a8870acf436420d81f29cf1adeaaf43317df926",
      "blockNumber": "0x831d8c",
      "gasUsed": "0x336b00",
      "effectiveGasPrice": "0x2ae966bb",
      "from": "0x318d0059efe546b5687fa6744af4339391153981",
      "to": "0xc438806b0726ade87f746d2b2ad07f6f05a26a85",
      "contractAddress": null
    },
    {
      "status": "0x1",
      "cumulativeGasUsed": "0x3363ef",
      "logs": [
        {
          "address": "0xf649b92fea08eaad2fa5c00553dda561eb1379ee",
          "topics": [
            "0xfb1616746b8474b6b7c67f2fe5ada156ed24774d0efe8bfe529cf537ba173330",
            "0x000000000000000000000000f649b92fea08eaad2fa5c00553dda561eb1379ee",
            "0x00000000000000000000000002c6a2fa58cc01a18b8d9e00ea48d65e4df26c70"
          ],
          "data": "0x00000000000000000000000000000000000000000000000000000000000000200000000000000000000000000000000000000000000000000000000000000005332e302e34000000000000000000000000000000000000000000000000000000",
          "blockHash": "0xa0f77f18efa21754bd03a512c192da8c287f4bcabe1c0a284cfdd5cb6be75002",
          "blockNumber": "0x831dc9",
          "blockTimestamp": "0x6878112c",
          "transactionHash": "0x7f905c215d9ad76e4d3d35da0dadec0d27d4cb82b34a8d5d65ed9d17fd7e1c6e",
          "transactionIndex": "0x0",
          "logIndex": "0x0",
          "removed": false
        },
        {
          "address": "0x7ef166fcf670e549a0e046bb043833531a7e3d53",
          "topics": [
            "0x9a662b9b8a431c26da8dea3d6a011bf4959a20ddbc3dfe618abfc3898d2c901f"
          ],
          "data": "0x00000000000000000000000000000000000000000000000000000000000f4240",
          "blockHash": "0xa0f77f18efa21754bd03a512c192da8c287f4bcabe1c0a284cfdd5cb6be75002",
          "blockNumber": "0x831dc9",
          "blockTimestamp": "0x6878112c",
          "transactionHash": "0x7f905c215d9ad76e4d3d35da0dadec0d27d4cb82b34a8d5d65ed9d17fd7e1c6e",
          "transactionIndex": "0x0",
          "logIndex": "0x1",
          "removed": false
        },
        {
          "address": "0x71ccf86cf63a5d55b12aa7e7079c22f39112dd7d",
          "topics": [
            "0xbc4082f61ad2c1141396485591a31655629009271d5910d28313c0460ced44db",
            "0x0000000000000000000000007ef166fcf670e549a0e046bb043833531a7e3d53",
            "0x00000000000000000000000002c6a2fa58cc01a18b8d9e00ea48d65e4df26c70"
          ],
          "data": "0x",
          "blockHash": "0xa0f77f18efa21754bd03a512c192da8c287f4bcabe1c0a284cfdd5cb6be75002",
          "blockNumber": "0x831dc9",
          "blockTimestamp": "0x6878112c",
          "transactionHash": "0x7f905c215d9ad76e4d3d35da0dadec0d27d4cb82b34a8d5d65ed9d17fd7e1c6e",
          "transactionIndex": "0x0",
          "logIndex": "0x2",
          "removed": false
        },
        {
          "address": "0xefbd9cfe88235f0e648aefb52c8e8dc152a9ad6f",
          "topics": [
            "0x8c5be1e5ebec7d5bd14f71427d1e84f3dd0314c0f7b2291e5b200ac8c7c3b925",
            "0x0000000000000000000000007ef166fcf670e549a0e046bb043833531a7e3d53",
            "0x000000000000000000000000c92e8bdf79f0507f65a392b0ab4667716bfe0110"
          ],
          "data": "0xffffffffffffffffffffffffffffffffffffffffffffffffffffffffffffffff",
          "blockHash": "0xa0f77f18efa21754bd03a512c192da8c287f4bcabe1c0a284cfdd5cb6be75002",
          "blockNumber": "0x831dc9",
          "blockTimestamp": "0x6878112c",
          "transactionHash": "0x7f905c215d9ad76e4d3d35da0dadec0d27d4cb82b34a8d5d65ed9d17fd7e1c6e",
          "transactionIndex": "0x0",
          "logIndex": "0x3",
          "removed": false
        },
        {
          "address": "0x7ef166fcf670e549a0e046bb043833531a7e3d53",
          "topics": [
            "0xed6bfe4670b251246a8da2ece7f7b4f47fd7761ae0b2843a64d1ae1ee90fef4d",
            "0x000000000000000000000000efbd9cfe88235f0e648aefb52c8e8dc152a9ad6f",
            "0x00000000000000000000000002c6a2fa58cc01a18b8d9e00ea48d65e4df26c70"
          ],
          "data": "0x",
          "blockHash": "0xa0f77f18efa21754bd03a512c192da8c287f4bcabe1c0a284cfdd5cb6be75002",
          "blockNumber": "0x831dc9",
          "blockTimestamp": "0x6878112c",
          "transactionHash": "0x7f905c215d9ad76e4d3d35da0dadec0d27d4cb82b34a8d5d65ed9d17fd7e1c6e",
          "transactionIndex": "0x0",
          "logIndex": "0x4",
          "removed": false
        },
        {
          "address": "0xf649b92fea08eaad2fa5c00553dda561eb1379ee",
          "topics": [
            "0x9ebbf695dd251e855d9d15a146a72f5f654dc6f8630fbc11212f27e0c88ba11a",
            "0x0000000000000000000000005e061c197d69c0e809e9269ed212730d91e8cb39"
          ],
          "data": "0x",
          "blockHash": "0xa0f77f18efa21754bd03a512c192da8c287f4bcabe1c0a284cfdd5cb6be75002",
          "blockNumber": "0x831dc9",
          "blockTimestamp": "0x6878112c",
          "transactionHash": "0x7f905c215d9ad76e4d3d35da0dadec0d27d4cb82b34a8d5d65ed9d17fd7e1c6e",
          "transactionIndex": "0x0",
          "logIndex": "0x5",
          "removed": false
        },
        {
          "address": "0xf649b92fea08eaad2fa5c00553dda561eb1379ee",
          "topics": [
            "0xd7f49e282c36d417b290d4181a56943f6d670aaa2987c0d40e60d39919c68882",
            "0x000000000000000000000000318d0059efe546b5687fa6744af4339391153981"
          ],
          "data": "0x",
          "blockHash": "0xa0f77f18efa21754bd03a512c192da8c287f4bcabe1c0a284cfdd5cb6be75002",
          "blockNumber": "0x831dc9",
          "blockTimestamp": "0x6878112c",
          "transactionHash": "0x7f905c215d9ad76e4d3d35da0dadec0d27d4cb82b34a8d5d65ed9d17fd7e1c6e",
          "transactionIndex": "0x0",
          "logIndex": "0x6",
          "removed": false
        },
        {
          "address": "0xf649b92fea08eaad2fa5c00553dda561eb1379ee",
          "topics": [
            "0xd74668a8c80a07cc56d7c3318a06439eaa815e740d97dcd83487e1fc75076b8b",
            "0x000000000000000000000000318d0059efe546b5687fa6744af4339391153981"
          ],
          "data": "0x",
          "blockHash": "0xa0f77f18efa21754bd03a512c192da8c287f4bcabe1c0a284cfdd5cb6be75002",
          "blockNumber": "0x831dc9",
          "blockTimestamp": "0x6878112c",
          "transactionHash": "0x7f905c215d9ad76e4d3d35da0dadec0d27d4cb82b34a8d5d65ed9d17fd7e1c6e",
          "transactionIndex": "0x0",
          "logIndex": "0x7",
          "removed": false
        },
        {
          "address": "0xf649b92fea08eaad2fa5c00553dda561eb1379ee",
          "topics": [
            "0x2bf242d027263e45fab022c28b4144255c97b30b8e54c30f1f5757906d487f09",
            "0x0000000000000000000000005e061c197d69c0e809e9269ed212730d91e8cb39"
          ],
          "data": "0x",
          "blockHash": "0xa0f77f18efa21754bd03a512c192da8c287f4bcabe1c0a284cfdd5cb6be75002",
          "blockNumber": "0x831dc9",
          "blockTimestamp": "0x6878112c",
          "transactionHash": "0x7f905c215d9ad76e4d3d35da0dadec0d27d4cb82b34a8d5d65ed9d17fd7e1c6e",
          "transactionIndex": "0x0",
          "logIndex": "0x8",
          "removed": false
        },
        {
          "address": "0xc438806b0726ade87f746d2b2ad07f6f05a26a85",
          "topics": [
            "0x8df0e8eb14c6434c85afc8f6f514518422607c8a8696492397a729a010ba83f9",
            "0x000000000000000000000000f649b92fea08eaad2fa5c00553dda561eb1379ee",
            "0x00000000000000000000000002c6a2fa58cc01a18b8d9e00ea48d65e4df26c70"
          ],
          "data": "0x",
          "blockHash": "0xa0f77f18efa21754bd03a512c192da8c287f4bcabe1c0a284cfdd5cb6be75002",
          "blockNumber": "0x831dc9",
          "blockTimestamp": "0x6878112c",
          "transactionHash": "0x7f905c215d9ad76e4d3d35da0dadec0d27d4cb82b34a8d5d65ed9d17fd7e1c6e",
          "transactionIndex": "0x0",
          "logIndex": "0x9",
          "removed": false
        }
      ],
      "logsBloom": "0x00000000000002000000000001000400000000000000500000000000000000010201020000400000000000000000020000008040800000000400000100200020002404000000000000000000800400000100002000000000001a000000000000000000000000a0000000000000101020000001000100000200200000000000000000002000000000000000000000000040000000000000000100000002000000020000000000000080000040000200000000200000000000008000000000000000000400000000000020000000000000000a02000000000000200000100002000210108010000000000000000000000000008000000000000003000000000402",
      "type": "0x0",
      "transactionHash": "0x7f905c215d9ad76e4d3d35da0dadec0d27d4cb82b34a8d5d65ed9d17fd7e1c6e",
      "transactionIndex": "0x0",
      "blockHash": "0xa0f77f18efa21754bd03a512c192da8c287f4bcabe1c0a284cfdd5cb6be75002",
      "blockNumber": "0x831dc9",
      "gasUsed": "0x3363ef",
      "effectiveGasPrice": "0x2ae966bb",
      "from": "0x318d0059efe546b5687fa6744af4339391153981",
      "to": "0xc438806b0726ade87f746d2b2ad07f6f05a26a85",
      "contractAddress": null
    },
    {
      "status": "0x1",
      "cumulativeGasUsed": "0x44d24",
      "logs": [
        {
          "address": "0x770d0d1fb036483ed4abb6d53c1c88fb277d812f",
          "topics": [
            "0x4241302c393c713e690702c4a45a57e93cef59aa8c6e2358495853b3420551d8",
            "0x00000000000000000000000093bd1d61b54bb80edf95f40e80cc16da61c34a3f",
            "0x00000000000000000000000002c6a2fa58cc01a18b8d9e00ea48d65e4df26c70"
          ],
          "data": "0x",
          "blockHash": "0x0b3696e7af34426e4f5d4a46aef1a27614411bdab27b06bb38492a26975f176b",
          "blockNumber": "0x831e06",
          "blockTimestamp": "0x68781168",
          "transactionHash": "0x6a161de2c3a5cb83cea1291065e28c5419152641ff112c5bed8f2fb8365f1f80",
          "transactionIndex": "0x0",
          "logIndex": "0x0",
          "removed": false
        }
      ],
      "logsBloom": "0x00000000040000000000000000000000000000000000000000200000000000000000000000000000000000000000000000000000000000000000000000000000000020000000000000000000a00000000100000000010000000000000000000000000000000000000000000000000000000000000000000000000000000000000000000000000000000200000000000000000000000000000000000000000000000000000000000000000000000000000000000000000000000000000000000000800000000000000000000000000000000000000000000000000000000000000000800010020000000000000000000000000000000000000000000000000000",
      "type": "0x0",
      "transactionHash": "0x6a161de2c3a5cb83cea1291065e28c5419152641ff112c5bed8f2fb8365f1f80",
      "transactionIndex": "0x0",
      "blockHash": "0x0b3696e7af34426e4f5d4a46aef1a27614411bdab27b06bb38492a26975f176b",
      "blockNumber": "0x831e06",
      "gasUsed": "0x44d24",
      "effectiveGasPrice": "0x2ae966bb",
      "from": "0x318d0059efe546b5687fa6744af4339391153981",
      "to": "0x770d0d1fb036483ed4abb6d53c1c88fb277d812f",
      "contractAddress": null
    },
    {
      "status": "0x1",
      "cumulativeGasUsed": "0x2454b",
      "logs": [
        {
          "address": "0x93bd1d61b54bb80edf95f40e80cc16da61c34a3f",
          "topics": [
            "0x78557646b1d8efa2cd49740d66df5aca39eb610ca8ca0e1ccac08979b6b2c46e",
            "0x000000000000000000000000318d0059efe546b5687fa6744af4339391153981",
            "0x0000000000000000000000000000000000000000000000000000000000003fff"
          ],
          "data": "0x",
          "blockHash": "0xf1b57032f95532e09c07b06cde29929eb7145aad02ecf1d3a798391988751ec1",
          "blockNumber": "0x831e43",
          "blockTimestamp": "0x687811a4",
          "transactionHash": "0x2faffe045f00d6afa5811b246c31612c57f09d777f704255ec1554af319644bc",
          "transactionIndex": "0x2",
          "logIndex": "0x2",
          "removed": false
        }
      ],
      "logsBloom": "0x00000000000000000000000000000000000000000000100000000000001000000000020000000000000000000000000000000000000000000000000000000000000000000000000000000000000000000000000000000000000040000000000000000000000000000000000000000000000000000000000000000000000000000000000000000000000000000000000000000000000000000000000000000000000010000000000000000040000000000000000000000000000000000000000000000000000000000000000000000000000000000102000000000000100000000000000000000000000000010000040000000000040000000000000000000000",
      "type": "0x0",
      "transactionHash": "0x2faffe045f00d6afa5811b246c31612c57f09d777f704255ec1554af319644bc",
      "transactionIndex": "0x2",
      "blockHash": "0xf1b57032f95532e09c07b06cde29929eb7145aad02ecf1d3a798391988751ec1",
      "blockNumber": "0x831e43",
      "gasUsed": "0xc57e",
      "effectiveGasPrice": "0x2ae966bb",
      "from": "0x318d0059efe546b5687fa6744af4339391153981",
      "to": "0x93bd1d61b54bb80edf95f40e80cc16da61c34a3f",
      "contractAddress": null
    },
    {
      "status": "0x1",
      "cumulativeGasUsed": "0xd28f",
      "logs": [
        {
          "address": "0x93bd1d61b54bb80edf95f40e80cc16da61c34a3f",
          "topics": [
            "0xae565aab888bca5e19e25a13db7b0c9144305bf55cb0f3f4d724f730e5acdd62"
          ],
          "data": "0x0000000000000000000000000000000000000001431e0fae6d7217caa0000000",
          "blockHash": "0x7915534f29c02b6e6d90e9f4427e19c8a8e428c1a7e170cd58859dfd285790e4",
          "blockNumber": "0x831e80",
          "blockTimestamp": "0x687811e0",
          "transactionHash": "0xc7fa5c1e0a0657cbe0fcfab324fe30e7f2758f0489f75a8aeab62e385f54e974",
          "transactionIndex": "0x0",
          "logIndex": "0x0",
          "removed": false
        }
      ],
      "logsBloom": "0x00000000000000000000000000000000000000000000000000001000000000000000000000000000000000000000000000000000000000000000000000000000000000000000000000000000000000000000000000000000000000000000000000000000000000000000000000000000000000040000000000000800000000000000000000000000000000000000000000000000000000000000000000000000000010000000000000000000000000000000000000000000000000000000000000000000000000000000000000000000000000000000000000000000000000000000000000000000000000000000040000000000040000000000000000000000",
      "type": "0x0",
      "transactionHash": "0xc7fa5c1e0a0657cbe0fcfab324fe30e7f2758f0489f75a8aeab62e385f54e974",
      "transactionIndex": "0x0",
      "blockHash": "0x7915534f29c02b6e6d90e9f4427e19c8a8e428c1a7e170cd58859dfd285790e4",
      "blockNumber": "0x831e80",
      "gasUsed": "0xd28f",
      "effectiveGasPrice": "0x2ae966bb",
      "from": "0x318d0059efe546b5687fa6744af4339391153981",
      "to": "0x93bd1d61b54bb80edf95f40e80cc16da61c34a3f",
      "contractAddress": null
    },
    {
      "status": "0x1",
      "cumulativeGasUsed": "0xc17a",
      "logs": [
        {
          "address": "0x93bd1d61b54bb80edf95f40e80cc16da61c34a3f",
          "topics": [
            "0x68d2a9e78bb2679fce38ced936827f483b51ff64f0776fc33fc39b2881f237f8"
          ],
          "data": "0x0000000000000000000000000000000000000000000000000000000000000001",
          "blockHash": "0xce59a4814ac5ca70fc69443fecdcabeed83aa8efefced5cb9e67402935567169",
          "blockNumber": "0x831ebd",
          "blockTimestamp": "0x6878121c",
          "transactionHash": "0xd8eb1fa6d5585830e09c72f4ad150cde77458469e04284f9d11fd676f532bd74",
          "transactionIndex": "0x0",
          "logIndex": "0x0",
          "removed": false
        }
      ],
      "logsBloom": "0x00000000000000000000000000000000000000000000000000000000000000000000000000000000000004020000000000000000000000000000000000000000000000000000000000000000000000000000000000000000000000000000000000000000000000000000000000000000000000000000000000000000000000000000000000000000000000000000000000000000000000000000000000000000000010000000000000000000000000000000000000000000000000000000000000000000000000000000000000000000000000000000000000000000000000000000000000000000000000000000040000000000040000002000000000000000",
      "type": "0x0",
      "transactionHash": "0xd8eb1fa6d5585830e09c72f4ad150cde77458469e04284f9d11fd676f532bd74",
      "transactionIndex": "0x0",
      "blockHash": "0xce59a4814ac5ca70fc69443fecdcabeed83aa8efefced5cb9e67402935567169",
      "blockNumber": "0x831ebd",
      "gasUsed": "0xc17a",
      "effectiveGasPrice": "0x2ae966bb",
      "from": "0x318d0059efe546b5687fa6744af4339391153981",
      "to": "0x93bd1d61b54bb80edf95f40e80cc16da61c34a3f",
      "contractAddress": null
    },
    {
      "status": "0x1",
      "cumulativeGasUsed": "0x25693",
      "logs": [
        {
          "address": "0x93bd1d61b54bb80edf95f40e80cc16da61c34a3f",
          "topics": [
            "0xde8ff765a5c5dad48d27bc9faa99836fb81f3b07c9dc62cfe005475d6b83a2ca",
            "0x00000000000000000000000041f4e8b09699ef33a603bd4afa3afc68b4b0f1d5",
            "0x0000000000000000000000000000000000000000000000000000000000000001"
          ],
          "data": "0x",
          "blockHash": "0x4ecf49c4d537b4ba2a20425e3c9a4e7f73b583c198a3d562048833021416e09f",
          "blockNumber": "0x831efa",
          "blockTimestamp": "0x68781258",
          "transactionHash": "0xc9298ec6094b612ede9a0d62b933b89969c3489baa883042224268ba71fa455d",
          "transactionIndex": "0x1",
          "logIndex": "0x0",
          "removed": false
        }
      ],
      "logsBloom": "0x00000000000000002000000000000000000000000000000000004000000000000000000000000000000000000000000000000000000000000000000000040000000000000000000000000000000000000000000000040000000000000000000000000000000000000000010000000000000000000000000000000000000000000000000000008000000000000000040000000001000000000000000000000000000010000000000000000000000000000000000000000000000000000000000000000000000000000000000000000000000000000000000000000000000040000000000000000000000000000000040000000000040000000000000000000000",
      "type": "0x0",
      "transactionHash": "0xc9298ec6094b612ede9a0d62b933b89969c3489baa883042224268ba71fa455d",
      "transactionIndex": "0x1",
      "blockHash": "0x4ecf49c4d537b4ba2a20425e3c9a4e7f73b583c198a3d562048833021416e09f",
      "blockNumber": "0x831efa",
      "gasUsed": "0x2048b",
      "effectiveGasPrice": "0x2ae966bb",
      "from": "0x318d0059efe546b5687fa6744af4339391153981",
      "to": "0x93bd1d61b54bb80edf95f40e80cc16da61c34a3f",
      "contractAddress": null
    },
    {
      "status": "0x1",
      "cumulativeGasUsed": "0xd12e",
      "logs": [
        {
          "address": "0x93bd1d61b54bb80edf95f40e80cc16da61c34a3f",
          "topics": [
            "0xb3eef2123fec1523a6bbc90aceb203000154c1a4974335fe06b544c7534d4b89",
            "0x000000000000000000000000318d0059efe546b5687fa6744af4339391153981",
            "0x00000000000000000000000041f4e8b09699ef33a603bd4afa3afc68b4b0f1d5"
          ],
          "data": "0x0000000000000000000000000000000000000000204fce5e3e25026110000000",
          "blockHash": "0x4825eaecb94c0dbf8a44579f2c4b4c26cec4b4584ee5d7a0726f01c8862b5fae",
          "blockNumber": "0x831f37",
          "blockTimestamp": "0x68781294",
          "transactionHash": "0xee06d0e07fad0cf453ae5318c3aad99d35386e9c7deb17f9d7d4e1c054c6b8aa",
          "transactionIndex": "0x0",
          "logIndex": "0x0",
          "removed": false
        }
      ],
      "logsBloom": "0x00000000000000000000000400000000000000000000100000000000000000000000020000000000000000000000000000000000000000000000000000000000000000000000000000000000000000000000000000000000000000000000000000000000000000000000010000000000000000000000000100000000000000000000000000008010000000000000040000000000000000000000000000000000000010000000000000000000000000000000000000000000000000000000000000000000000000000000000000000000000000000000000000000000100000000000000000000000000000000000040000000000040000000000000000000000",
      "type": "0x0",
      "transactionHash": "0xee06d0e07fad0cf453ae5318c3aad99d35386e9c7deb17f9d7d4e1c054c6b8aa",
      "transactionIndex": "0x0",
      "blockHash": "0x4825eaecb94c0dbf8a44579f2c4b4c26cec4b4584ee5d7a0726f01c8862b5fae",
      "blockNumber": "0x831f37",
      "gasUsed": "0xd12e",
      "effectiveGasPrice": "0x2ae966bb",
      "from": "0x318d0059efe546b5687fa6744af4339391153981",
      "to": "0x93bd1d61b54bb80edf95f40e80cc16da61c34a3f",
      "contractAddress": null
    },
    {
      "status": "0x1",
      "cumulativeGasUsed": "0x1c1bf",
      "logs": [
        {
          "address": "0x93bd1d61b54bb80edf95f40e80cc16da61c34a3f",
          "topics": [
            "0xde8ff765a5c5dad48d27bc9faa99836fb81f3b07c9dc62cfe005475d6b83a2ca",
            "0x000000000000000000000000f649b92fea08eaad2fa5c00553dda561eb1379ee",
            "0x0000000000000000000000000000000000000000000000000000000000000001"
          ],
          "data": "0x",
          "blockHash": "0xe953217fac96b6c0abe272f1f53997f4dbab1e433df8290eda361afb109960af",
          "blockNumber": "0x831f74",
          "blockTimestamp": "0x687812d0",
          "transactionHash": "0x679da21d74836b5a138fa2ede498bb000d98164bef44ea517ef962295daeb9b7",
          "transactionIndex": "0x0",
          "logIndex": "0x0",
          "removed": false
        }
      ],
      "logsBloom": "0x00000000000000002000000000000000000000000000000000004000000000000000000000000000000000000000000000000040000000000000000000040000000000000000000000000000000000000000000000040000000800000000000000000000000000000000000000000000000000000000000000000000000000000000000000000000000000000000000000000001000000000000000000000000000010000000000000000000000000000000000000000000008000000000000000000000000000000000000000000000000000000000000000000000000040000000000000000000000000000000040000000000040000000000000000000000",
      "type": "0x0",
      "transactionHash": "0x679da21d74836b5a138fa2ede498bb000d98164bef44ea517ef962295daeb9b7",
      "transactionIndex": "0x0",
      "blockHash": "0xe953217fac96b6c0abe272f1f53997f4dbab1e433df8290eda361afb109960af",
      "blockNumber": "0x831f74",
      "gasUsed": "0x1c1bf",
      "effectiveGasPrice": "0x2ae966bb",
      "from": "0x318d0059efe546b5687fa6744af4339391153981",
      "to": "0x93bd1d61b54bb80edf95f40e80cc16da61c34a3f",
      "contractAddress": null
    },
    {
      "status": "0x1",
      "cumulativeGasUsed": "0xd12e",
      "logs": [
        {
          "address": "0x93bd1d61b54bb80edf95f40e80cc16da61c34a3f",
          "topics": [
            "0xb3eef2123fec1523a6bbc90aceb203000154c1a4974335fe06b544c7534d4b89",
            "0x000000000000000000000000318d0059efe546b5687fa6744af4339391153981",
            "0x000000000000000000000000f649b92fea08eaad2fa5c00553dda561eb1379ee"
          ],
          "data": "0x0000000000000000000000000000000000000000204fce5e3e25026110000000",
          "blockHash": "0xf2a9bca4a1ae8a5877d1d29234fe64b344009969332fb38ad6159c4269adf363",
          "blockNumber": "0x831fb1",
          "blockTimestamp": "0x6878130c",
          "transactionHash": "0x3a2b578bdb1e47a9235a7875058eec0089c00bb003001162dbb67e826f0bdce0",
          "transactionIndex": "0x0",
          "logIndex": "0x0",
          "removed": false
        }
      ],
      "logsBloom": "0x00000000000000000000000400000000000000000000100000000000000000000000020000000000000000000000000000000040000000000000000000000000000000000000000000000000000000000000000000000000000800000000000000000000000000000000000000000000000000000000000100000000000000000000000000000010000000000000000000000000000000000000000000000000000010000000000000000000000000000000000000000000008000000000000000000000000000000000000000000000000000000000000000000000100000000000000000000000000000000000040000000000040000000000000000000000",
      "type": "0x0",
      "transactionHash": "0x3a2b578bdb1e47a9235a7875058eec0089c00bb003001162dbb67e826f0bdce0",
      "transactionIndex": "0x0",
      "blockHash": "0xf2a9bca4a1ae8a5877d1d29234fe64b344009969332fb38ad6159c4269adf363",
      "blockNumber": "0x831fb1",
      "gasUsed": "0xd12e",
      "effectiveGasPrice": "0x2ae966bb",
      "from": "0x318d0059efe546b5687fa6744af4339391153981",
      "to": "0x93bd1d61b54bb80edf95f40e80cc16da61c34a3f",
      "contractAddress": null
    },
    {
      "status": "0x1",
      "cumulativeGasUsed": "0x3b4bc",
      "logs": [
        {
          "address": "0x41f4e8b09699ef33a603bd4afa3afc68b4b0f1d5",
          "topics": [
            "0xff54978127edd34aec0f9061fb3b155fbe0ededdfa881ee3e0d541d3a1eef438",
            "0x000000000000000000000000318d0059efe546b5687fa6744af4339391153981"
          ],
          "data": "0x",
          "blockHash": "0xbf03b92edba234b727b789bd499d13ee5fcc1a5d48a340159dc915f1d69172d4",
          "blockNumber": "0x831fee",
          "blockTimestamp": "0x68781348",
          "transactionHash": "0x3c0237dc0d2b0068b5584e2c66e995b567290395e82ee72a5483ed9f19073fcb",
          "transactionIndex": "0x4",
          "logIndex": "0x5",
          "removed": false
        }
      ],
      "logsBloom": "0x00000000000000000000000004000000000000000000100000000000000000000000020000000000000000000000000000000000000000001000000000000000000000000000000000000000000000000000000000000000000000000000000000100000000000000000000000000000000000000000000000800000000000000000000000000000000000000000000000000000000000000000000000000000000000000000000000000000000000000000000000000000000000000000000000000000000000000000000000000000000000000000000000000000100000000000000200000000400000000000000000000000000000000000000000000000",
      "type": "0x0",
      "transactionHash": "0x3c0237dc0d2b0068b5584e2c66e995b567290395e82ee72a5483ed9f19073fcb",
      "transactionIndex": "0x4",
      "blockHash": "0xbf03b92edba234b727b789bd499d13ee5fcc1a5d48a340159dc915f1d69172d4",
      "blockNumber": "0x831fee",
      "gasUsed": "0x78eb",
      "effectiveGasPrice": "0x2ae966bb",
      "from": "0x318d0059efe546b5687fa6744af4339391153981",
      "to": "0x41f4e8b09699ef33a603bd4afa3afc68b4b0f1d5",
      "contractAddress": null
    },
    {
      "status": "0x1",
      "cumulativeGasUsed": "0x119ddcd",
      "logs": [
        {
          "address": "0x41f4e8b09699ef33a603bd4afa3afc68b4b0f1d5",
          "topics": [
            "0xf361aed463da6fa20358e45c6209f1d3e16d4eca706e6eab0b0aeb338729c77a"
          ],
          "data": "0x0000000000000000000000000000000000000000000000000000000000015180",
          "blockHash": "0xaf0fdd1f6381830fbafbd29924773478c2991a4816d95987294891ce248ec312",
          "blockNumber": "0x83202b",
          "blockTimestamp": "0x68781384",
          "transactionHash": "0xcc1714d87211c0407e6b325f3cacd47d5acb7a93a3d5f7318f58955abf769177",
          "transactionIndex": "0x5",
          "logIndex": "0x84",
          "removed": false
        }
      ],
      "logsBloom": "0x00000000000000000000000000000000000000000000000000000000000020000000000000000000000000000000000000000000000000001000000000000000000000000000000000000002000000000000000000000000000000000000000000100000000000000000000000000000000000000000000000020000000000000000000000000000000000000000000000000000000000000000000000000000000000000000000000000000000000000000000000000000000000000000000000000000000000000000000000000000000000000000000000000000000000000000000000000000400000000000000000000000000000000000000000000000",
      "type": "0x0",
      "transactionHash": "0xcc1714d87211c0407e6b325f3cacd47d5acb7a93a3d5f7318f58955abf769177",
      "transactionIndex": "0x5",
      "blockHash": "0xaf0fdd1f6381830fbafbd29924773478c2991a4816d95987294891ce248ec312",
      "blockNumber": "0x83202b",
      "gasUsed": "0x810d",
      "effectiveGasPrice": "0x2ae966bb",
      "from": "0x318d0059efe546b5687fa6744af4339391153981",
      "to": "0x41f4e8b09699ef33a603bd4afa3afc68b4b0f1d5",
      "contractAddress": null
    },
    {
      "status": "0x1",
      "cumulativeGasUsed": "0x3b1a8",
      "logs": [],
      "logsBloom": "0x00000000000000000000000000000000000000000000000000000000000000000000000000000000000000000000000000000000000000000000000000000000000000000000000000000000000000000000000000000000000000000000000000000000000000000000000000000000000000000000000000000000000000000000000000000000000000000000000000000000000000000000000000000000000000000000000000000000000000000000000000000000000000000000000000000000000000000000000000000000000000000000000000000000000000000000000000000000000000000000000000000000000000000000000000000000",
      "type": "0x0",
      "transactionHash": "0x626a3ac821daca3f27ce6e0a1a251903cc0cf0b5730b31988f5dcafcb64bdb3e",
      "transactionIndex": "0x4",
      "blockHash": "0xbafc576769642a29c243ed39c6086936315e1d81c7c203a5f907951b9f426770",
      "blockNumber": "0x832068",
      "gasUsed": "0xc4c6",
      "effectiveGasPrice": "0x2ae966bb",
      "from": "0x318d0059efe546b5687fa6744af4339391153981",
      "to": "0x41f4e8b09699ef33a603bd4afa3afc68b4b0f1d5",
      "contractAddress": null
    },
    {
      "status": "0x1",
      "cumulativeGasUsed": "0x16fef",
      "logs": [
        {
          "address": "0x41f4e8b09699ef33a603bd4afa3afc68b4b0f1d5",
          "topics": [
            "0xd74668a8c80a07cc56d7c3318a06439eaa815e740d97dcd83487e1fc75076b8b",
            "0x0000000000000000000000005e061c197d69c0e809e9269ed212730d91e8cb39"
          ],
          "data": "0x",
          "blockHash": "0xc54a743cebe91c9d63bfe67e97c5568099f495d7f3f3eadb7f9b5480075d606f",
          "blockNumber": "0x8320a5",
          "blockTimestamp": "0x687813fc",
          "transactionHash": "0xe16e02251815a10e517b25f3a1bcff0a55fee527a2e138c68af9882cd7ddcb1e",
          "transactionIndex": "0x1",
          "logIndex": "0x1",
          "removed": false
        }
      ],
      "logsBloom": "0x00000000000000000000000000000400000000000000000000000000000000000000000000000000000000000000000000000000000000001000000000000000000004000000000000000000000000000000000000000000000200000000000000100000000000000000000000000000000000000000000200200000000000000000000000000000000000000000000000000000000000000000000000000000000000000000000000000000000000000000000000000000000000000000000000000000000000000000000000000000000000000000000000000000000000000000008000000000400000000000000000000000000000000000000000000000",
      "type": "0x0",
      "transactionHash": "0xe16e02251815a10e517b25f3a1bcff0a55fee527a2e138c68af9882cd7ddcb1e",
      "transactionIndex": "0x1",
      "blockHash": "0xc54a743cebe91c9d63bfe67e97c5568099f495d7f3f3eadb7f9b5480075d606f",
      "blockNumber": "0x8320a5",
      "gasUsed": "0xc597",
      "effectiveGasPrice": "0x2ae966bb",
      "from": "0x318d0059efe546b5687fa6744af4339391153981",
      "to": "0x41f4e8b09699ef33a603bd4afa3afc68b4b0f1d5",
      "contractAddress": null
    },
    {
      "status": "0x1",
      "cumulativeGasUsed": "0x6359d",
      "logs": [
        {
          "address": "0x41f4e8b09699ef33a603bd4afa3afc68b4b0f1d5",
          "topics": [
            "0xdc843735e683348ec21c302ffff45462399c5c46f75f67b0a1a5395c53599753"
          ],
          "data": "0x0000000000000000000000000000000000000000000000000000000000000000",
          "blockHash": "0xc3c476588aacd7e3355a71b907a6bbe7268d654a2bd6af8ea11c0d66ed482e96",
          "blockNumber": "0x8320e2",
          "blockTimestamp": "0x68781438",
          "transactionHash": "0xfd96dfc93ed0c614cdaf7ac04c05d7df09d06c16a6aecdb65d7df2d8306189e1",
          "transactionIndex": "0x3",
          "logIndex": "0x2",
          "removed": false
        }
      ],
      "logsBloom": "0x00000000000000000000000000000000000000000000000000000000000000000000000000000000000000000000000000000000000000001000000000000000000000000000000000000000000000000000000000000000000000000000000000100200000000000000000000000000000000000000000000000008000000000000000000000000000000000000000000000000000000000000000000000000000000000000000000000000000000000000000000000000000000000000000000000000000000000000000000000000000000000000000000000000000000040000000000000000400000000000000000000000000000000000000000000000",
      "type": "0x0",
      "transactionHash": "0xfd96dfc93ed0c614cdaf7ac04c05d7df09d06c16a6aecdb65d7df2d8306189e1",
      "transactionIndex": "0x3",
      "blockHash": "0xc3c476588aacd7e3355a71b907a6bbe7268d654a2bd6af8ea11c0d66ed482e96",
      "blockNumber": "0x8320e2",
      "gasUsed": "0x8137",
      "effectiveGasPrice": "0x2ae966bb",
      "from": "0x318d0059efe546b5687fa6744af4339391153981",
      "to": "0x41f4e8b09699ef33a603bd4afa3afc68b4b0f1d5",
      "contractAddress": null
    },
    {
      "status": "0x1",
      "cumulativeGasUsed": "0x3b565",
      "logs": [
        {
          "address": "0xf649b92fea08eaad2fa5c00553dda561eb1379ee",
          "topics": [
            "0xff54978127edd34aec0f9061fb3b155fbe0ededdfa881ee3e0d541d3a1eef438",
            "0x000000000000000000000000318d0059efe546b5687fa6744af4339391153981"
          ],
          "data": "0x",
          "blockHash": "0x865c3c2951f9a84dd40ffc1a434af7d29e0ddde0ba577806326d4ddf84974f67",
          "blockNumber": "0x83211f",
          "blockTimestamp": "0x68781474",
          "transactionHash": "0x880d01a95e00ba86e6e74436cfae940724fc513b0081bf515ca6ffaa0d6fd9bd",
          "transactionIndex": "0x2",
          "logIndex": "0x1",
          "removed": false
        }
      ],
      "logsBloom": "0x00000000000000000000000004000000000000000000100000000000000000000000020000000000000000000000000000008000000000000000000000000000000000000000000000000000000000000000000000000000000000000000000000000000000000000000000000000000000000000000000000800000000000000000000000000000000000000000000000000000000000000000000000000000000000000000000000000000000000000000000000000000000000000000000000000000000000000000000000000000000000000000000000000000100002000000000200000000000000000000000000000000000000000000000000000002",
      "type": "0x0",
      "transactionHash": "0x880d01a95e00ba86e6e74436cfae940724fc513b0081bf515ca6ffaa0d6fd9bd",
      "transactionIndex": "0x2",
      "blockHash": "0x865c3c2951f9a84dd40ffc1a434af7d29e0ddde0ba577806326d4ddf84974f67",
      "blockNumber": "0x83211f",
      "gasUsed": "0x78eb",
      "effectiveGasPrice": "0x2ae966bb",
      "from": "0x318d0059efe546b5687fa6744af4339391153981",
      "to": "0xf649b92fea08eaad2fa5c00553dda561eb1379ee",
      "contractAddress": null
    },
    {
      "status": "0x1",
      "cumulativeGasUsed": "0x810d",
      "logs": [
        {
          "address": "0xf649b92fea08eaad2fa5c00553dda561eb1379ee",
          "topics": [
            "0xf361aed463da6fa20358e45c6209f1d3e16d4eca706e6eab0b0aeb338729c77a"
          ],
          "data": "0x0000000000000000000000000000000000000000000000000000000000015180",
          "blockHash": "0x990603057fb6baa5df51a6efc1a5ff96d56b8ab3483bbb58d003c32d2ac2d048",
          "blockNumber": "0x83215c",
          "blockTimestamp": "0x687814b0",
          "transactionHash": "0xcfc0764f1e1ddcfaab363af2e53c0359e7e043b70a8cdb092f7ef7087cc53295",
          "transactionIndex": "0x0",
          "logIndex": "0x0",
          "removed": false
        }
      ],
      "logsBloom": "0x00000000000000000000000000000000000000000000000000000000000020000000000000000000000000000000000000008000000000000000000000000000000000000000000000000002000000000000000000000000000000000000000000000000000000000000000000000000000000000000000000020000000000000000000000000000000000000000000000000000000000000000000000000000000000000000000000000000000000000000000000000000000000000000000000000000000000000000000000000000000000000000000000000000000002000000000000000000000000000000000000000000000000000000000000000002",
      "type": "0x0",
      "transactionHash": "0xcfc0764f1e1ddcfaab363af2e53c0359e7e043b70a8cdb092f7ef7087cc53295",
      "transactionIndex": "0x0",
      "blockHash": "0x990603057fb6baa5df51a6efc1a5ff96d56b8ab3483bbb58d003c32d2ac2d048",
      "blockNumber": "0x83215c",
      "gasUsed": "0x810d",
      "effectiveGasPrice": "0x2ae966bb",
      "from": "0x318d0059efe546b5687fa6744af4339391153981",
      "to": "0xf649b92fea08eaad2fa5c00553dda561eb1379ee",
      "contractAddress": null
    },
    {
      "status": "0x1",
      "cumulativeGasUsed": "0x41609",
      "logs": [],
      "logsBloom": "0x00000000000000000000000000000000000000000000000000000000000000000000000000000000000000000000000000000000000000000000000000000000000000000000000000000000000000000000000000000000000000000000000000000000000000000000000000000000000000000000000000000000000000000000000000000000000000000000000000000000000000000000000000000000000000000000000000000000000000000000000000000000000000000000000000000000000000000000000000000000000000000000000000000000000000000000000000000000000000000000000000000000000000000000000000000000",
      "type": "0x0",
      "transactionHash": "0x0541f2c5a4d1cd88bf7a69bd145b3b6d5b18519da7f4c1a4cc4b64afd486c789",
      "transactionIndex": "0x1",
      "blockHash": "0x2ffe4118d781cd500d45e630583ec09b101f0b3b0f2822c52dd1fd60e45d9e9b",
      "blockNumber": "0x832199",
      "gasUsed": "0xc4c6",
      "effectiveGasPrice": "0x2ae966bb",
      "from": "0x318d0059efe546b5687fa6744af4339391153981",
      "to": "0xf649b92fea08eaad2fa5c00553dda561eb1379ee",
      "contractAddress": null
    },
    {
      "status": "0x1",
      "cumulativeGasUsed": "0xc597",
      "logs": [
        {
          "address": "0xf649b92fea08eaad2fa5c00553dda561eb1379ee",
          "topics": [
            "0xd74668a8c80a07cc56d7c3318a06439eaa815e740d97dcd83487e1fc75076b8b",
            "0x0000000000000000000000005e061c197d69c0e809e9269ed212730d91e8cb39"
          ],
          "data": "0x",
          "blockHash": "0x386562ae50f4addac17fde245db39bd4928319973f50ff755221c09511f58a8b",
          "blockNumber": "0x8321d6",
          "blockTimestamp": "0x68781528",
          "transactionHash": "0xac8514bde34efa8d111b37de7ab13e8da24fccffd0edce577d44c353a262f7d1",
          "transactionIndex": "0x0",
          "logIndex": "0x0",
          "removed": false
        }
      ],
      "logsBloom": "0x00000000000000000000000000000400000000000000000000000000000000000000000000000000000000000000000000008000000000000000000000000000000004000000000000000000000000000000000000000000000200000000000000000000000000000000000000000000000000000000000200200000000000000000000000000000000000000000000000000000000000000000000000000000000000000000000000000000000000000000000000000000000000000000000000000000000000000000000000000000000000000000000000000000000002000000008000000000000000000000000000000000000000000000000000000002",
      "type": "0x0",
      "transactionHash": "0xac8514bde34efa8d111b37de7ab13e8da24fccffd0edce577d44c353a262f7d1",
      "transactionIndex": "0x0",
      "blockHash": "0x386562ae50f4addac17fde245db39bd4928319973f50ff755221c09511f58a8b",
      "blockNumber": "0x8321d6",
      "gasUsed": "0xc597",
      "effectiveGasPrice": "0x2ae966bb",
      "from": "0x318d0059efe546b5687fa6744af4339391153981",
      "to": "0xf649b92fea08eaad2fa5c00553dda561eb1379ee",
      "contractAddress": null
    },
    {
      "status": "0x1",
      "cumulativeGasUsed": "0x8137",
      "logs": [
        {
          "address": "0xf649b92fea08eaad2fa5c00553dda561eb1379ee",
          "topics": [
            "0xdc843735e683348ec21c302ffff45462399c5c46f75f67b0a1a5395c53599753"
          ],
          "data": "0x0000000000000000000000000000000000000000000000000000000000000000",
          "blockHash": "0xc78363c6642a567a7dcda942700ba363c0dd3f63e870b249bb4c1af38aa41a0e",
          "blockNumber": "0x832213",
          "blockTimestamp": "0x68781564",
          "transactionHash": "0x1c7b6906c1ece584c7f68893e422e10b11cb7e7dbbec0208be9567d677ecdef1",
          "transactionIndex": "0x0",
          "logIndex": "0x0",
          "removed": false
        }
      ],
      "logsBloom": "0x00000000000000000000000000000000000000000000000000000000000000000000000000000000000000000000000000008000000000000000000000000000000000000000000000000000000000000000000000000000000000000000000000000200000000000000000000000000000000000000000000000008000000000000000000000000000000000000000000000000000000000000000000000000000000000000000000000000000000000000000000000000000000000000000000000000000000000000000000000000000000000000000000000000000002040000000000000000000000000000000000000000000000000000000000000002",
      "type": "0x0",
      "transactionHash": "0x1c7b6906c1ece584c7f68893e422e10b11cb7e7dbbec0208be9567d677ecdef1",
      "transactionIndex": "0x0",
      "blockHash": "0xc78363c6642a567a7dcda942700ba363c0dd3f63e870b249bb4c1af38aa41a0e",
      "blockNumber": "0x832213",
      "gasUsed": "0x8137",
      "effectiveGasPrice": "0x2ae966bb",
      "from": "0x318d0059efe546b5687fa6744af4339391153981",
      "to": "0xf649b92fea08eaad2fa5c00553dda561eb1379ee",
      "contractAddress": null
    }
  ],
  "libraries": [],
  "pending": [],
  "returns": {},
  "timestamp": 1752700311431,
  "chain": 999,
  "commit": "ee8d12e"
}