{
  "transactions": [
    {
      "hash": "0x645c7f9898d2edb57fec8af9f3308aa17b4fdeb531821f6ffea87900d674342f",
      "transactionType": "CALL",
      "contractName": null,
      "contractAddress": "0x1981ad9f44f2ea9add2dc4ad7d075c102c70af92",
      "function": "setOracle(address,address)",
      "arguments": [
        "0xF481e436124ED61982045278E8B3D02476264351",
        "0x0f4A7b0831046e60271E8eF815dFE1CBf8163E0D"
      ],
      "transaction": {
        "from": "0x420acf637d662b80cca8befb327aa24039e7e0fa",
        "to": "0x1981ad9f44f2ea9add2dc4ad7d075c102c70af92",
        "gas": "0x11d36",
        "value": "0x0",
        "input": "0x5c38eb3a000000000000000000000000f481e436124ed61982045278e8b3d024762643510000000000000000000000000f4a7b0831046e60271e8ef815dfe1cbf8163e0d",
        "nonce": "0x93",
        "chainId": "0xa4b1"
      },
      "additionalContracts": [],
      "isFixedGasLimit": false
    },
    {
      "hash": "0xff4bc03f9e27cf0ae155b5c15862075941616dc4ae34b65a2b6fc6d1a09aa2ae",
      "transactionType": "CALL",
      "contractName": null,
      "contractAddress": "0xa045d4daea28ba7bfe234c96eaa03dafae85a147",
      "function": "setCustomStrategyTrigger(address,address)",
      "arguments": [
        "0xF481e436124ED61982045278E8B3D02476264351",
        "0x105fb2A5e8dee81b11A0c6A21a1EB13cbb08E3B0"
      ],
      "transaction": {
        "from": "0x420acf637d662b80cca8befb327aa24039e7e0fa",
        "to": "0xa045d4daea28ba7bfe234c96eaa03dafae85a147",
        "gas": "0x11a48",
        "value": "0x0",
        "input": "0xdc7cc1ef000000000000000000000000f481e436124ed61982045278e8b3d02476264351000000000000000000000000105fb2a5e8dee81b11a0c6a21a1eb13cbb08e3b0",
        "nonce": "0x94",
        "chainId": "0xa4b1"
      },
      "additionalContracts": [],
      "isFixedGasLimit": false
    },
    {
      "hash": "0x1effc759ea339b5aad6a95619023d75a9de6570e6db4e1e513d607dbff5e57ff",
      "transactionType": "CALL",
      "contractName": null,
      "contractAddress": "0x1981ad9f44f2ea9add2dc4ad7d075c102c70af92",
      "function": "setOracle(address,address)",
      "arguments": [
        "0xd629feA11620FC50781aA64c845cf7099F6E0a42",
        "0x0f4A7b0831046e60271E8eF815dFE1CBf8163E0D"
      ],
      "transaction": {
        "from": "0x420acf637d662b80cca8befb327aa24039e7e0fa",
        "to": "0x1981ad9f44f2ea9add2dc4ad7d075c102c70af92",
        "gas": "0x11d36",
        "value": "0x0",
        "input": "0x5c38eb3a000000000000000000000000d629fea11620fc50781aa64c845cf7099f6e0a420000000000000000000000000f4a7b0831046e60271e8ef815dfe1cbf8163e0d",
        "nonce": "0x95",
        "chainId": "0xa4b1"
      },
      "additionalContracts": [],
      "isFixedGasLimit": false
    },
    {
      "hash": "0x3d444e072b909e89c10e18541644f58659d9391cc95cd307803a59259e932b5d",
      "transactionType": "CALL",
      "contractName": null,
      "contractAddress": "0xa045d4daea28ba7bfe234c96eaa03dafae85a147",
      "function": "setCustomStrategyTrigger(address,address)",
      "arguments": [
        "0xd629feA11620FC50781aA64c845cf7099F6E0a42",
        "0x105fb2A5e8dee81b11A0c6A21a1EB13cbb08E3B0"
      ],
      "transaction": {
        "from": "0x420acf637d662b80cca8befb327aa24039e7e0fa",
        "to": "0xa045d4daea28ba7bfe234c96eaa03dafae85a147",
        "gas": "0x11a48",
        "value": "0x0",
        "input": "0xdc7cc1ef000000000000000000000000d629fea11620fc50781aa64c845cf7099f6e0a42000000000000000000000000105fb2a5e8dee81b11a0c6a21a1eb13cbb08e3b0",
        "nonce": "0x96",
        "chainId": "0xa4b1"
      },
      "additionalContracts": [],
      "isFixedGasLimit": false
    },
    {
      "hash": "0xac2fa4235087feed420c9b041832b9cef971b1ee69ff6ecdfbf69bc500c1f2da",
      "transactionType": "CALL",
      "contractName": null,
      "contractAddress": "0x1981ad9f44f2ea9add2dc4ad7d075c102c70af92",
      "function": "setOracle(address,address)",
      "arguments": [
        "0x9498F94baBb2D026b8413C7Bd5372CD989026B45",
        "0x0f4A7b0831046e60271E8eF815dFE1CBf8163E0D"
      ],
      "transaction": {
        "from": "0x420acf637d662b80cca8befb327aa24039e7e0fa",
        "to": "0x1981ad9f44f2ea9add2dc4ad7d075c102c70af92",
        "gas": "0x11d35",
        "value": "0x0",
        "input": "0x5c38eb3a0000000000000000000000009498f94babb2d026b8413c7bd5372cd989026b450000000000000000000000000f4a7b0831046e60271e8ef815dfe1cbf8163e0d",
        "nonce": "0x97",
        "chainId": "0xa4b1"
      },
      "additionalContracts": [],
      "isFixedGasLimit": false
    },
    {
      "hash": "0xc697be4276d487c57911707294f6bac246086c650fd6f43f23abebaa8b5b204b",
      "transactionType": "CALL",
      "contractName": null,
      "contractAddress": "0xa045d4daea28ba7bfe234c96eaa03dafae85a147",
      "function": "setCustomStrategyTrigger(address,address)",
      "arguments": [
        "0x9498F94baBb2D026b8413C7Bd5372CD989026B45",
        "0x105fb2A5e8dee81b11A0c6A21a1EB13cbb08E3B0"
      ],
      "transaction": {
        "from": "0x420acf637d662b80cca8befb327aa24039e7e0fa",
        "to": "0xa045d4daea28ba7bfe234c96eaa03dafae85a147",
        "gas": "0x11a47",
        "value": "0x0",
        "input": "0xdc7cc1ef0000000000000000000000009498f94babb2d026b8413c7bd5372cd989026b45000000000000000000000000105fb2a5e8dee81b11a0c6a21a1eb13cbb08e3b0",
        "nonce": "0x98",
        "chainId": "0xa4b1"
      },
      "additionalContracts": [],
      "isFixedGasLimit": false
    },
    {
      "hash": "0xd228d5305353f81138ced8bc57fe46d235583f70b36888eb6580a66666ccb6dc",
      "transactionType": "CALL",
      "contractName": null,
      "contractAddress": "0x1981ad9f44f2ea9add2dc4ad7d075c102c70af92",
      "function": "setOracle(address,address)",
      "arguments": [
        "0x38d95EaFE81DAE368927BcE18B110dFF0c3f15e5",
        "0x0f4A7b0831046e60271E8eF815dFE1CBf8163E0D"
      ],
      "transaction": {
        "from": "0x420acf637d662b80cca8befb327aa24039e7e0fa",
        "to": "0x1981ad9f44f2ea9add2dc4ad7d075c102c70af92",
        "gas": "0x11d35",
        "value": "0x0",
        "input": "0x5c38eb3a00000000000000000000000038d95eafe81dae368927bce18b110dff0c3f15e50000000000000000000000000f4a7b0831046e60271e8ef815dfe1cbf8163e0d",
        "nonce": "0x99",
        "chainId": "0xa4b1"
      },
      "additionalContracts": [],
      "isFixedGasLimit": false
    },
    {
      "hash": "0xf6c16624431dc84e99c567cf1de62c9ca2093f6c06c03d9f60fe8b3b1200db21",
      "transactionType": "CALL",
      "contractName": null,
      "contractAddress": "0xa045d4daea28ba7bfe234c96eaa03dafae85a147",
      "function": "setCustomStrategyTrigger(address,address)",
      "arguments": [
        "0x38d95EaFE81DAE368927BcE18B110dFF0c3f15e5",
        "0x105fb2A5e8dee81b11A0c6A21a1EB13cbb08E3B0"
      ],
      "transaction": {
        "from": "0x420acf637d662b80cca8befb327aa24039e7e0fa",
        "to": "0xa045d4daea28ba7bfe234c96eaa03dafae85a147",
        "gas": "0x11a47",
        "value": "0x0",
        "input": "0xdc7cc1ef00000000000000000000000038d95eafe81dae368927bce18b110dff0c3f15e5000000000000000000000000105fb2a5e8dee81b11a0c6a21a1eb13cbb08e3b0",
        "nonce": "0x9a",
        "chainId": "0xa4b1"
      },
      "additionalContracts": [],
      "isFixedGasLimit": false
    },
    {
      "hash": "0xd5d666a48c2b3564747ac18966e90a463a078d668c6a41bedb1ac6266d789a45",
      "transactionType": "CALL",
      "contractName": null,
      "contractAddress": "0x1981ad9f44f2ea9add2dc4ad7d075c102c70af92",
      "function": "setOracle(address,address)",
      "arguments": [
        "0x10548930e6D4E390fFD665d52037FcC6d1a51D47",
        "0x0f4A7b0831046e60271E8eF815dFE1CBf8163E0D"
      ],
      "transaction": {
        "from": "0x420acf637d662b80cca8befb327aa24039e7e0fa",
        "to": "0x1981ad9f44f2ea9add2dc4ad7d075c102c70af92",
        "gas": "0x11d37",
        "value": "0x0",
        "input": "0x5c38eb3a00000000000000000000000010548930e6d4e390ffd665d52037fcc6d1a51d470000000000000000000000000f4a7b0831046e60271e8ef815dfe1cbf8163e0d",
        "nonce": "0x9b",
        "chainId": "0xa4b1"
      },
      "additionalContracts": [],
      "isFixedGasLimit": false
    },
    {
      "hash": "0x05dd7381736e885a14bc3150a011d8a54fd820dd33f25fcca2b41417ba3bdcc2",
      "transactionType": "CALL",
      "contractName": null,
      "contractAddress": "0xa045d4daea28ba7bfe234c96eaa03dafae85a147",
      "function": "setCustomStrategyTrigger(address,address)",
      "arguments": [
        "0x10548930e6D4E390fFD665d52037FcC6d1a51D47",
        "0x105fb2A5e8dee81b11A0c6A21a1EB13cbb08E3B0"
      ],
      "transaction": {
        "from": "0x420acf637d662b80cca8befb327aa24039e7e0fa",
        "to": "0xa045d4daea28ba7bfe234c96eaa03dafae85a147",
        "gas": "0x11a49",
        "value": "0x0",
        "input": "0xdc7cc1ef00000000000000000000000010548930e6d4e390ffd665d52037fcc6d1a51d47000000000000000000000000105fb2a5e8dee81b11a0c6a21a1eb13cbb08e3b0",
        "nonce": "0x9c",
        "chainId": "0xa4b1"
      },
      "additionalContracts": [],
      "isFixedGasLimit": false
    },
    {
      "hash": "0x5e0c8b7dbc99725fa1ff1f97aae6fed1a6455a3d9ffa12e2553c0e1a35cb9a23",
      "transactionType": "CALL",
      "contractName": null,
      "contractAddress": "0x1981ad9f44f2ea9add2dc4ad7d075c102c70af92",
      "function": "setOracle(address,address)",
      "arguments": [
        "0x3ec055FC8B81Ad3F942A41a8730989683100C4cC",
        "0x0f4A7b0831046e60271E8eF815dFE1CBf8163E0D"
      ],
      "transaction": {
        "from": "0x420acf637d662b80cca8befb327aa24039e7e0fa",
        "to": "0x1981ad9f44f2ea9add2dc4ad7d075c102c70af92",
        "gas": "0x11d26",
        "value": "0x0",
        "input": "0x5c38eb3a0000000000000000000000003ec055fc8b81ad3f942a41a8730989683100c4cc0000000000000000000000000f4a7b0831046e60271e8ef815dfe1cbf8163e0d",
        "nonce": "0x9d",
        "chainId": "0xa4b1"
      },
      "additionalContracts": [],
      "isFixedGasLimit": false
    },
    {
      "hash": "0xd79b6864ac24765ff2cf65b0f45cdd67ec73d08625a2b12defd2f737f82be4aa",
      "transactionType": "CALL",
      "contractName": null,
      "contractAddress": "0xa045d4daea28ba7bfe234c96eaa03dafae85a147",
      "function": "setCustomStrategyTrigger(address,address)",
      "arguments": [
        "0x3ec055FC8B81Ad3F942A41a8730989683100C4cC",
        "0x105fb2A5e8dee81b11A0c6A21a1EB13cbb08E3B0"
      ],
      "transaction": {
        "from": "0x420acf637d662b80cca8befb327aa24039e7e0fa",
        "to": "0xa045d4daea28ba7bfe234c96eaa03dafae85a147",
        "gas": "0x11a38",
        "value": "0x0",
        "input": "0xdc7cc1ef0000000000000000000000003ec055fc8b81ad3f942a41a8730989683100c4cc000000000000000000000000105fb2a5e8dee81b11a0c6a21a1eb13cbb08e3b0",
        "nonce": "0x9e",
        "chainId": "0xa4b1"
      },
      "additionalContracts": [],
      "isFixedGasLimit": false
    },
    {
      "hash": "0xd48dab748f84da55473f39a88c554e7939adea62e1ad97f0d6880e11a5095a10",
      "transactionType": "CALL",
      "contractName": null,
      "contractAddress": "0x1981ad9f44f2ea9add2dc4ad7d075c102c70af92",
      "function": "setOracle(address,address)",
      "arguments": [
        "0x836312c0e36bDe6F509250E6C799dB072Aa7C264",
        "0x0f4A7b0831046e60271E8eF815dFE1CBf8163E0D"
      ],
      "transaction": {
        "from": "0x420acf637d662b80cca8befb327aa24039e7e0fa",
        "to": "0x1981ad9f44f2ea9add2dc4ad7d075c102c70af92",
        "gas": "0x11d36",
        "value": "0x0",
        "input": "0x5c38eb3a000000000000000000000000836312c0e36bde6f509250e6c799db072aa7c2640000000000000000000000000f4a7b0831046e60271e8ef815dfe1cbf8163e0d",
        "nonce": "0x9f",
        "chainId": "0xa4b1"
      },
      "additionalContracts": [],
      "isFixedGasLimit": false
    },
    {
      "hash": "0xc9e93e31bff39fca757e4e62c97346b5ec2510c80b7d9eb9f5fe19b35cbf7174",
      "transactionType": "CALL",
      "contractName": null,
      "contractAddress": "0xa045d4daea28ba7bfe234c96eaa03dafae85a147",
      "function": "setCustomStrategyTrigger(address,address)",
      "arguments": [
        "0x836312c0e36bDe6F509250E6C799dB072Aa7C264",
        "0x105fb2A5e8dee81b11A0c6A21a1EB13cbb08E3B0"
      ],
      "transaction": {
        "from": "0x420acf637d662b80cca8befb327aa24039e7e0fa",
        "to": "0xa045d4daea28ba7bfe234c96eaa03dafae85a147",
        "gas": "0x11a48",
        "value": "0x0",
        "input": "0xdc7cc1ef000000000000000000000000836312c0e36bde6f509250e6c799db072aa7c264000000000000000000000000105fb2a5e8dee81b11a0c6a21a1eb13cbb08e3b0",
        "nonce": "0xa0",
        "chainId": "0xa4b1"
      },
      "additionalContracts": [],
      "isFixedGasLimit": false
    },
    {
      "hash": "0x4bf5ee2de56aac58347e0a644e887c7bbbb647709c459708c6aaf6b1139d2684",
      "transactionType": "CALL",
      "contractName": null,
      "contractAddress": "0x1981ad9f44f2ea9add2dc4ad7d075c102c70af92",
      "function": "setOracle(address,address)",
      "arguments": [
        "0xb6434621bB2237CDc958059F0b153F15690896f2",
        "0x0f4A7b0831046e60271E8eF815dFE1CBf8163E0D"
      ],
      "transaction": {
        "from": "0x420acf637d662b80cca8befb327aa24039e7e0fa",
        "to": "0x1981ad9f44f2ea9add2dc4ad7d075c102c70af92",
        "gas": "0x11d36",
        "value": "0x0",
        "input": "0x5c38eb3a000000000000000000000000b6434621bb2237cdc958059f0b153f15690896f20000000000000000000000000f4a7b0831046e60271e8ef815dfe1cbf8163e0d",
        "nonce": "0xa1",
        "chainId": "0xa4b1"
      },
      "additionalContracts": [],
      "isFixedGasLimit": false
    },
    {
      "hash": "0xb1f4b5f9871834aea01f760a995469b7ca97196e446f7b162ed49c4de2b5ee40",
      "transactionType": "CALL",
      "contractName": null,
      "contractAddress": "0xa045d4daea28ba7bfe234c96eaa03dafae85a147",
      "function": "setCustomStrategyTrigger(address,address)",
      "arguments": [
        "0xb6434621bB2237CDc958059F0b153F15690896f2",
        "0x105fb2A5e8dee81b11A0c6A21a1EB13cbb08E3B0"
      ],
      "transaction": {
        "from": "0x420acf637d662b80cca8befb327aa24039e7e0fa",
        "to": "0xa045d4daea28ba7bfe234c96eaa03dafae85a147",
        "gas": "0x11a48",
        "value": "0x0",
        "input": "0xdc7cc1ef000000000000000000000000b6434621bb2237cdc958059f0b153f15690896f2000000000000000000000000105fb2a5e8dee81b11a0c6a21a1eb13cbb08e3b0",
        "nonce": "0xa2",
        "chainId": "0xa4b1"
      },
      "additionalContracts": [],
      "isFixedGasLimit": false
    }
  ],
  "receipts": [
    {
      "status": "0x1",
      "cumulativeGasUsed": "0x174c52",
      "logs": [],
      "logsBloom": "0x00000000000000000000000000000000000000000000000000000000000000000000000000000000000000000000000000000000000000000000000000000000000000000000000000000000000000000000000000000000000000000000000000000000000000000000000000000000000000000000000000000000000000000000000000000000000000000000000000000000000000000000000000000000000000000000000000000000000000000000000000000000000000000000000000000000000000000000000000000000000000000000000000000000000000000000000000000000000000000000000000000000000000000000000000000000",
      "type": "0x2",
      "transactionHash": "0x645c7f9898d2edb57fec8af9f3308aa17b4fdeb531821f6ffea87900d674342f",
      "transactionIndex": "0x6",
      "blockHash": "0xe286d071873487c61d31c972beb106c11665a01f6bb0c1b787d918df2838e942",
      "blockNumber": "0x175dc74c",
      "gasUsed": "0xd7de",
      "effectiveGasPrice": "0x1547828",
      "blobGasUsed": "0x0",
      "from": "0x420acf637d662b80cca8befb327aa24039e7e0fa",
      "to": "0x1981ad9f44f2ea9add2dc4ad7d075c102c70af92",
      "contractAddress": null,
      "gasUsedForL1": "0x7a",
      "l1BlockNumber": "0x1688db6"
    },
    {
      "status": "0x1",
      "cumulativeGasUsed": "0x2ad09a",
      "logs": [
        {
          "address": "0xa045d4daea28ba7bfe234c96eaa03dafae85a147",
          "topics": [
            "0x73377b61b22fc875803de44d9946a61753ba80d2539c51f226d765946eb642f2",
            "0x000000000000000000000000f481e436124ed61982045278e8b3d02476264351",
            "0x000000000000000000000000105fb2a5e8dee81b11a0c6a21a1eb13cbb08e3b0"
          ],
          "data": "0x",
          "blockHash": "0x491f3869d1467e6d8de0e5a3b5b9c3ea9b2130dd924b6b14ef0fe694963aeed9",
          "blockNumber": "0x175dc753",
          "transactionHash": "0xff4bc03f9e27cf0ae155b5c15862075941616dc4ae34b65a2b6fc6d1a09aa2ae",
          "transactionIndex": "0x11",
          "logIndex": "0x37",
          "removed": false
        }
      ],
      "logsBloom": "0x00000000000040000000000000002800000000000000000000000000000000000000000000000000000000000000000000020000000000000000000000000000000000000000000000000000000000002000000000000000000000000000000000000000000000000000000000000000000000000000000000000000000000000000000000000000000000000000000000000010000000000000000000000000000000000000040000000000000000000000000000000000800800000000000000000000000000008000000000000000000000000000000000000000000000000080000000000000000020000000000000000000000000000000000000000000",
      "type": "0x2",
      "transactionHash": "0xff4bc03f9e27cf0ae155b5c15862075941616dc4ae34b65a2b6fc6d1a09aa2ae",
      "transactionIndex": "0x11",
      "blockHash": "0x491f3869d1467e6d8de0e5a3b5b9c3ea9b2130dd924b6b14ef0fe694963aeed9",
      "blockNumber": "0x175dc753",
      "gasUsed": "0xd59b",
      "effectiveGasPrice": "0x16091d0",
      "blobGasUsed": "0x0",
      "from": "0x420acf637d662b80cca8befb327aa24039e7e0fa",
      "to": "0xa045d4daea28ba7bfe234c96eaa03dafae85a147",
      "contractAddress": null,
      "gasUsedForL1": "0x75",
      "l1BlockNumber": "0x1688db6"
    },
    {
      "status": "0x1",
      "cumulativeGasUsed": "0x678dd",
      "logs": [],
      "logsBloom": "0x00000000000000000000000000000000000000000000000000000000000000000000000000000000000000000000000000000000000000000000000000000000000000000000000000000000000000000000000000000000000000000000000000000000000000000000000000000000000000000000000000000000000000000000000000000000000000000000000000000000000000000000000000000000000000000000000000000000000000000000000000000000000000000000000000000000000000000000000000000000000000000000000000000000000000000000000000000000000000000000000000000000000000000000000000000000",
      "type": "0x2",
      "transactionHash": "0x1effc759ea339b5aad6a95619023d75a9de6570e6db4e1e513d607dbff5e57ff",
      "transactionIndex": "0x4",
      "blockHash": "0x11e37e7a39d6ae5ed9a822ada1edb5a7bb8672dce853928cbd7cbc3a3a0ebc76",
      "blockNumber": "0x175dc760",
      "gasUsed": "0xd7d0",
      "effectiveGasPrice": "0x17d9398",
      "blobGasUsed": "0x0",
      "from": "0x420acf637d662b80cca8befb327aa24039e7e0fa",
      "to": "0x1981ad9f44f2ea9add2dc4ad7d075c102c70af92",
      "contractAddress": null,
      "gasUsedForL1": "0x6c",
      "l1BlockNumber": "0x1688db7"
    },
    {
      "status": "0x1",
      "cumulativeGasUsed": "0x197b9e",
      "logs": [
        {
          "address": "0xa045d4daea28ba7bfe234c96eaa03dafae85a147",
          "topics": [
            "0x73377b61b22fc875803de44d9946a61753ba80d2539c51f226d765946eb642f2",
            "0x000000000000000000000000d629fea11620fc50781aa64c845cf7099f6e0a42",
            "0x000000000000000000000000105fb2a5e8dee81b11a0c6a21a1eb13cbb08e3b0"
          ],
          "data": "0x",
          "blockHash": "0xfe21eddbcb8bfffc6fbafc1f344fb16c0917cd0e79719a826fa55c1540c217dc",
          "blockNumber": "0x175dc76d",
          "transactionHash": "0x3d444e072b909e89c10e18541644f58659d9391cc95cd307803a59259e932b5d",
          "transactionIndex": "0x6",
          "logIndex": "0x22",
          "removed": false
        }
      ],
      "logsBloom": "0x00000000000040000000000000000800000000000000000000000000000000000000000000000000000000000000000000000000000000020000000000000400001000000000000000000000000000002000000000000000000000000000000000000000000000000000000000000000000000000000000000000000000000000000000000000000000000000000000000000000000000000000000000000000000000000000040000000000000000000000000000000000800800000000000000000000000000008000000000000000000000000000000000000000000000000080000000000000000020000000000000000000000000000000000000000000",
      "type": "0x2",
      "transactionHash": "0x3d444e072b909e89c10e18541644f58659d9391cc95cd307803a59259e932b5d",
      "transactionIndex": "0x6",
      "blockHash": "0xfe21eddbcb8bfffc6fbafc1f344fb16c0917cd0e79719a826fa55c1540c217dc",
      "blockNumber": "0x175dc76d",
      "gasUsed": "0xd58a",
      "effectiveGasPrice": "0x19d5098",
      "blobGasUsed": "0x0",
      "from": "0x420acf637d662b80cca8befb327aa24039e7e0fa",
      "to": "0xa045d4daea28ba7bfe234c96eaa03dafae85a147",
      "contractAddress": null,
      "gasUsedForL1": "0x64",
      "l1BlockNumber": "0x1688db7"
    },
    {
      "status": "0x1",
      "cumulativeGasUsed": "0xa9cd1",
      "logs": [],
      "logsBloom": "0x00000000000000000000000000000000000000000000000000000000000000000000000000000000000000000000000000000000000000000000000000000000000000000000000000000000000000000000000000000000000000000000000000000000000000000000000000000000000000000000000000000000000000000000000000000000000000000000000000000000000000000000000000000000000000000000000000000000000000000000000000000000000000000000000000000000000000000000000000000000000000000000000000000000000000000000000000000000000000000000000000000000000000000000000000000000",
      "type": "0x2",
      "transactionHash": "0xac2fa4235087feed420c9b041832b9cef971b1ee69ff6ecdfbf69bc500c1f2da",
      "transactionIndex": "0x6",
      "blockHash": "0xbbe80b6f5180085ca14aff67d063f174579b274845a196741ce520866fcad2d1",
      "blockNumber": "0x175dc778",
      "gasUsed": "0xd7c6",
      "effectiveGasPrice": "0x1a5f388",
      "blobGasUsed": "0x0",
      "from": "0x420acf637d662b80cca8befb327aa24039e7e0fa",
      "to": "0x1981ad9f44f2ea9add2dc4ad7d075c102c70af92",
      "contractAddress": null,
      "gasUsedForL1": "0x62",
      "l1BlockNumber": "0x1688db7"
    },
    {
      "status": "0x1",
      "cumulativeGasUsed": "0x203a20",
      "logs": [
        {
          "address": "0xa045d4daea28ba7bfe234c96eaa03dafae85a147",
          "topics": [
            "0x73377b61b22fc875803de44d9946a61753ba80d2539c51f226d765946eb642f2",
            "0x0000000000000000000000009498f94babb2d026b8413c7bd5372cd989026b45",
            "0x000000000000000000000000105fb2a5e8dee81b11a0c6a21a1eb13cbb08e3b0"
          ],
          "data": "0x",
          "blockHash": "0xf96f3b66677c7b9283851e5398552a83c353734f83bab18573f8e8862379572e",
          "blockNumber": "0x175dc77d",
          "transactionHash": "0xc697be4276d487c57911707294f6bac246086c650fd6f43f23abebaa8b5b204b",
          "transactionIndex": "0xd",
          "logIndex": "0x2a",
          "removed": false
        }
      ],
      "logsBloom": "0x00000000000040000000000000000800000000200000000000000000000000002000000000000000000000000000000000000000000000000000000000000000000000000000000000000000000000002000000000800000000000000000000000000000000000000000000000000000000000000000000000000000000000000000000000000000000000000000000000000000000000000000000000000000000000000000040000000000000000000000000000000000800800000000000000000000000000008000000000000000000000000000000000000000000000000080000000000000000020000000000000000000000000000000000000000000",
      "type": "0x2",
      "transactionHash": "0xc697be4276d487c57911707294f6bac246086c650fd6f43f23abebaa8b5b204b",
      "transactionIndex": "0xd",
      "blockHash": "0xf96f3b66677c7b9283851e5398552a83c353734f83bab18573f8e8862379572e",
      "blockNumber": "0x175dc77d",
      "gasUsed": "0xd588",
      "effectiveGasPrice": "0x1a708e0",
      "blobGasUsed": "0x0",
      "from": "0x420acf637d662b80cca8befb327aa24039e7e0fa",
      "to": "0xa045d4daea28ba7bfe234c96eaa03dafae85a147",
      "contractAddress": null,
      "gasUsedForL1": "0x62",
      "l1BlockNumber": "0x1688db7"
    },
    {
      "status": "0x1",
      "cumulativeGasUsed": "0xe0332",
      "logs": [],
      "logsBloom": "0x00000000000000000000000000000000000000000000000000000000000000000000000000000000000000000000000000000000000000000000000000000000000000000000000000000000000000000000000000000000000000000000000000000000000000000000000000000000000000000000000000000000000000000000000000000000000000000000000000000000000000000000000000000000000000000000000000000000000000000000000000000000000000000000000000000000000000000000000000000000000000000000000000000000000000000000000000000000000000000000000000000000000000000000000000000000",
      "type": "0x2",
      "transactionHash": "0xd228d5305353f81138ced8bc57fe46d235583f70b36888eb6580a66666ccb6dc",
      "transactionIndex": "0x9",
      "blockHash": "0xd4530232f0e652aeb18ef7dcba5a41c2c7e02e4843f9ec9b164bf0f345ac5a99",
      "blockNumber": "0x175dc782",
      "gasUsed": "0xd7c2",
      "effectiveGasPrice": "0x1b6c820",
      "blobGasUsed": "0x0",
      "from": "0x420acf637d662b80cca8befb327aa24039e7e0fa",
      "to": "0x1981ad9f44f2ea9add2dc4ad7d075c102c70af92",
      "contractAddress": null,
      "gasUsedForL1": "0x5e",
      "l1BlockNumber": "0x1688db7"
    },
    {
      "status": "0x1",
      "cumulativeGasUsed": "0xd583",
      "logs": [
        {
          "address": "0xa045d4daea28ba7bfe234c96eaa03dafae85a147",
          "topics": [
            "0x73377b61b22fc875803de44d9946a61753ba80d2539c51f226d765946eb642f2",
            "0x00000000000000000000000038d95eafe81dae368927bce18b110dff0c3f15e5",
            "0x000000000000000000000000105fb2a5e8dee81b11a0c6a21a1eb13cbb08e3b0"
          ],
          "data": "0x",
          "blockHash": "0xfd38e758bf97c8cda771c39ce45b6c34243bd871aae98bc1fce7e04c2d5bb5fb",
          "blockNumber": "0x175dc78f",
          "transactionHash": "0xf6c16624431dc84e99c567cf1de62c9ca2093f6c06c03d9f60fe8b3b1200db21",
          "transactionIndex": "0x1",
          "logIndex": "0x0",
          "removed": false
        }
      ],
      "logsBloom": "0x00000000000040000000000000000800000000000000000000000000000000000000000000000000000000000000000000000000000000000000000000000000000000000000000000000000000000002000000000000000000000000000000000000000000000000000000000000000000000000000000000000000000000000000000000000000800000000000000000000000000000000000000000000000000000000000040000000000000000000000000000000000800802000000000000000000000000008000000000000000000000000000000000000000010000000080000000000000000020000000000000000000000000000000000000000000",
      "type": "0x2",
      "transactionHash": "0xf6c16624431dc84e99c567cf1de62c9ca2093f6c06c03d9f60fe8b3b1200db21",
      "transactionIndex": "0x1",
      "blockHash": "0xfd38e758bf97c8cda771c39ce45b6c34243bd871aae98bc1fce7e04c2d5bb5fb",
      "blockNumber": "0x175dc78f",
      "gasUsed": "0xd583",
      "effectiveGasPrice": "0x1be0798",
      "blobGasUsed": "0x0",
      "from": "0x420acf637d662b80cca8befb327aa24039e7e0fa",
      "to": "0xa045d4daea28ba7bfe234c96eaa03dafae85a147",
      "contractAddress": null,
      "gasUsedForL1": "0x5d",
      "l1BlockNumber": "0x1688db7"
    },
    {
      "status": "0x1",
      "cumulativeGasUsed": "0x2d69ec",
      "logs": [],
      "logsBloom": "0x00000000000000000000000000000000000000000000000000000000000000000000000000000000000000000000000000000000000000000000000000000000000000000000000000000000000000000000000000000000000000000000000000000000000000000000000000000000000000000000000000000000000000000000000000000000000000000000000000000000000000000000000000000000000000000000000000000000000000000000000000000000000000000000000000000000000000000000000000000000000000000000000000000000000000000000000000000000000000000000000000000000000000000000000000000000",
      "type": "0x2",
      "transactionHash": "0xd5d666a48c2b3564747ac18966e90a463a078d668c6a41bedb1ac6266d789a45",
      "transactionIndex": "0x5",
      "blockHash": "0xfdde93953e688976d1724251cd06bc86376153d03916d61e3829cad1439ef739",
      "blockNumber": "0x175dc794",
      "gasUsed": "0xd7c1",
      "effectiveGasPrice": "0x1bbf070",
      "blobGasUsed": "0x0",
      "from": "0x420acf637d662b80cca8befb327aa24039e7e0fa",
      "to": "0x1981ad9f44f2ea9add2dc4ad7d075c102c70af92",
      "contractAddress": null,
      "gasUsedForL1": "0x5d",
      "l1BlockNumber": "0x1688db7"
    },
    {
      "status": "0x1",
      "cumulativeGasUsed": "0x9b1d3",
      "logs": [
        {
          "address": "0xa045d4daea28ba7bfe234c96eaa03dafae85a147",
          "topics": [
            "0x73377b61b22fc875803de44d9946a61753ba80d2539c51f226d765946eb642f2",
            "0x00000000000000000000000010548930e6d4e390ffd665d52037fcc6d1a51d47",
            "0x000000000000000000000000105fb2a5e8dee81b11a0c6a21a1eb13cbb08e3b0"
          ],
          "data": "0x",
          "blockHash": "0xa7ced1901ada90ca03e6e7f62087ede0a8964968ebbd6c40445433f75d555733",
          "blockNumber": "0x175dc799",
          "transactionHash": "0x05dd7381736e885a14bc3150a011d8a54fd820dd33f25fcca2b41417ba3bdcc2",
          "transactionIndex": "0x4",
          "logIndex": "0x9",
          "removed": false
        }
      ],
      "logsBloom": "0x00000000000040000000000000000800000000000000000000000000000000000000000000000000000000000000000000000000000000000000000000000000000000000000000000000000000000002000000000000000000000000000000000000000000000000000000000000000000000000000000000000000000008000000004000000000000000000000000000000000000000000000000000000000000000000000040000000000000000000000000000000000800800000000000000000000000000008000000100000000000000000000000000000000000000000080000000000000000020000000000000000000000000000000000000000000",
      "type": "0x2",
      "transactionHash": "0x05dd7381736e885a14bc3150a011d8a54fd820dd33f25fcca2b41417ba3bdcc2",
      "transactionIndex": "0x4",
      "blockHash": "0xa7ced1901ada90ca03e6e7f62087ede0a8964968ebbd6c40445433f75d555733",
      "blockNumber": "0x175dc799",
      "gasUsed": "0xd582",
      "effectiveGasPrice": "0x1bf0968",
      "blobGasUsed": "0x0",
      "from": "0x420acf637d662b80cca8befb327aa24039e7e0fa",
      "to": "0xa045d4daea28ba7bfe234c96eaa03dafae85a147",
      "contractAddress": null,
      "gasUsedForL1": "0x5c",
      "l1BlockNumber": "0x1688db8"
    },
    {
      "status": "0x1",
      "cumulativeGasUsed": "0x2bcb6",
      "logs": [],
      "logsBloom": "0x00000000000000000000000000000000000000000000000000000000000000000000000000000000000000000000000000000000000000000000000000000000000000000000000000000000000000000000000000000000000000000000000000000000000000000000000000000000000000000000000000000000000000000000000000000000000000000000000000000000000000000000000000000000000000000000000000000000000000000000000000000000000000000000000000000000000000000000000000000000000000000000000000000000000000000000000000000000000000000000000000000000000000000000000000000000",
      "type": "0x2",
      "transactionHash": "0x5e0c8b7dbc99725fa1ff1f97aae6fed1a6455a3d9ffa12e2553c0e1a35cb9a23",
      "transactionIndex": "0x2",
      "blockHash": "0xcd9dbbc02cc75f04c775a2b78b0e4691cb12c97e4c264990ff5e1ce8750df86d",
      "blockNumber": "0x175dc79f",
      "gasUsed": "0xd7b5",
      "effectiveGasPrice": "0x1bce688",
      "blobGasUsed": "0x0",
      "from": "0x420acf637d662b80cca8befb327aa24039e7e0fa",
      "to": "0x1981ad9f44f2ea9add2dc4ad7d075c102c70af92",
      "contractAddress": null,
      "gasUsedForL1": "0x5d",
      "l1BlockNumber": "0x1688db8"
    },
    {
      "status": "0x1",
      "cumulativeGasUsed": "0x625e5",
      "logs": [
        {
          "address": "0xa045d4daea28ba7bfe234c96eaa03dafae85a147",
          "topics": [
            "0x73377b61b22fc875803de44d9946a61753ba80d2539c51f226d765946eb642f2",
            "0x0000000000000000000000003ec055fc8b81ad3f942a41a8730989683100c4cc",
            "0x000000000000000000000000105fb2a5e8dee81b11a0c6a21a1eb13cbb08e3b0"
          ],
          "data": "0x",
          "blockHash": "0xc7295e6701c3a6d6e298dfc122eca829e5d635c64869e53f2ea273d716a46400",
          "blockNumber": "0x175dc7a5",
          "transactionHash": "0xd79b6864ac24765ff2cf65b0f45cdd67ec73d08625a2b12defd2f737f82be4aa",
          "transactionIndex": "0x3",
          "logIndex": "0xb",
          "removed": false
        }
      ],
      "logsBloom": "0x00000000000040000000000000000800000000000000000000000000000000000000000000000000000000000100000000000000000000000000000000000000000000000000000000000000000000002000000000000000000000000000000000000000000000000000000000000000000000000000000000000000000000000000000000000000000000000000000000000000000000000000000000000000000000000000040000000000000000000000000000010000800800000000000000000000000000008000000000000000000000000000000000000000000000000080000000000000000020000000000020000000000000000000000000000000",
      "type": "0x2",
      "transactionHash": "0xd79b6864ac24765ff2cf65b0f45cdd67ec73d08625a2b12defd2f737f82be4aa",
      "transactionIndex": "0x3",
      "blockHash": "0xc7295e6701c3a6d6e298dfc122eca829e5d635c64869e53f2ea273d716a46400",
      "blockNumber": "0x175dc7a5",
      "gasUsed": "0xd578",
      "effectiveGasPrice": "0x1b83f20",
      "blobGasUsed": "0x0",
      "from": "0x420acf637d662b80cca8befb327aa24039e7e0fa",
      "to": "0xa045d4daea28ba7bfe234c96eaa03dafae85a147",
      "contractAddress": null,
      "gasUsedForL1": "0x5e",
      "l1BlockNumber": "0x1688db8"
    },
    {
      "status": "0x1",
      "cumulativeGasUsed": "0x16fb6",
      "logs": [],
      "logsBloom": "0x00000000000000000000000000000000000000000000000000000000000000000000000000000000000000000000000000000000000000000000000000000000000000000000000000000000000000000000000000000000000000000000000000000000000000000000000000000000000000000000000000000000000000000000000000000000000000000000000000000000000000000000000000000000000000000000000000000000000000000000000000000000000000000000000000000000000000000000000000000000000000000000000000000000000000000000000000000000000000000000000000000000000000000000000000000000",
      "type": "0x2",
      "transactionHash": "0xd48dab748f84da55473f39a88c554e7939adea62e1ad97f0d6880e11a5095a10",
      "transactionIndex": "0x2",
      "blockHash": "0x47bc53b469b083cc12fc405f3d642d6398f59ea7eea76b3fd9e3586c3764c693",
      "blockNumber": "0x175dc7b1",
      "gasUsed": "0xd7c1",
      "effectiveGasPrice": "0x1bd7710",
      "blobGasUsed": "0x0",
      "from": "0x420acf637d662b80cca8befb327aa24039e7e0fa",
      "to": "0x1981ad9f44f2ea9add2dc4ad7d075c102c70af92",
      "contractAddress": null,
      "gasUsedForL1": "0x5d",
      "l1BlockNumber": "0x1688db8"
    },
    {
      "status": "0x1",
      "cumulativeGasUsed": "0x3ba6a",
      "logs": [
        {
          "address": "0xa045d4daea28ba7bfe234c96eaa03dafae85a147",
          "topics": [
            "0x73377b61b22fc875803de44d9946a61753ba80d2539c51f226d765946eb642f2",
            "0x000000000000000000000000836312c0e36bde6f509250e6c799db072aa7c264",
            "0x000000000000000000000000105fb2a5e8dee81b11a0c6a21a1eb13cbb08e3b0"
          ],
          "data": "0x",
          "blockHash": "0x8afaf62d60d73425af61831249391eaa363a368e5dff620febccaa04b12f36b3",
          "blockNumber": "0x175dc7bd",
          "transactionHash": "0xc9e93e31bff39fca757e4e62c97346b5ec2510c80b7d9eb9f5fe19b35cbf7174",
          "transactionIndex": "0x3",
          "logIndex": "0x3",
          "removed": false
        }
      ],
      "logsBloom": "0x00000000000050000000000000000800000000000000000000000000000000000000000000000000000000000000000000000000000000000000040000000000000000000000000000000000000000002000000000000000000000000000000000000000000000000000000000000000000000000000000000000000000000000000000000000000000000000000000000000000000000000000000000000000000000000000040000000000000000000000000000000000800800000000000000000100000000008000000000000000000000000000000000000000000000000080000000000000000020000000000000000000000000000000000000000000",
      "type": "0x2",
      "transactionHash": "0xc9e93e31bff39fca757e4e62c97346b5ec2510c80b7d9eb9f5fe19b35cbf7174",
      "transactionIndex": "0x3",
      "blockHash": "0x8afaf62d60d73425af61831249391eaa363a368e5dff620febccaa04b12f36b3",
      "blockNumber": "0x175dc7bd",
      "gasUsed": "0xd585",
      "effectiveGasPrice": "0x1b3e9c0",
      "blobGasUsed": "0x0",
      "from": "0x420acf637d662b80cca8befb327aa24039e7e0fa",
      "to": "0xa045d4daea28ba7bfe234c96eaa03dafae85a147",
      "contractAddress": null,
      "gasUsedForL1": "0x5f",
      "l1BlockNumber": "0x1688db8"
    },
    {
      "status": "0x1",
      "cumulativeGasUsed": "0x991ae",
      "logs": [],
      "logsBloom": "0x00000000000000000000000000000000000000000000000000000000000000000000000000000000000000000000000000000000000000000000000000000000000000000000000000000000000000000000000000000000000000000000000000000000000000000000000000000000000000000000000000000000000000000000000000000000000000000000000000000000000000000000000000000000000000000000000000000000000000000000000000000000000000000000000000000000000000000000000000000000000000000000000000000000000000000000000000000000000000000000000000000000000000000000000000000000",
      "type": "0x2",
      "transactionHash": "0x4bf5ee2de56aac58347e0a644e887c7bbbb647709c459708c6aaf6b1139d2684",
      "transactionIndex": "0x5",
      "blockHash": "0x0d946cc18c20efda900d96bb88e5e452383fac3a64219e259ac507be9a7cf2e6",
      "blockNumber": "0x175dc7c2",
      "gasUsed": "0xd7c3",
      "effectiveGasPrice": "0x1b16d08",
      "blobGasUsed": "0x0",
      "from": "0x420acf637d662b80cca8befb327aa24039e7e0fa",
      "to": "0x1981ad9f44f2ea9add2dc4ad7d075c102c70af92",
      "contractAddress": null,
      "gasUsedForL1": "0x5f",
      "l1BlockNumber": "0x1688db8"
    },
    {
      "status": "0x1",
      "cumulativeGasUsed": "0x4299ef",
      "logs": [
        {
          "address": "0xa045d4daea28ba7bfe234c96eaa03dafae85a147",
          "topics": [
            "0x73377b61b22fc875803de44d9946a61753ba80d2539c51f226d765946eb642f2",
            "0x000000000000000000000000b6434621bb2237cdc958059f0b153f15690896f2",
            "0x000000000000000000000000105fb2a5e8dee81b11a0c6a21a1eb13cbb08e3b0"
          ],
          "data": "0x",
          "blockHash": "0x3fd79d07f7d338025dedca47900bd2d51a67ea97d99ca8484b6ea4ae0df7d72e",
          "blockNumber": "0x175dc7c7",
          "transactionHash": "0xb1f4b5f9871834aea01f760a995469b7ca97196e446f7b162ed49c4de2b5ee40",
          "transactionIndex": "0x13",
          "logIndex": "0x30",
          "removed": false
        }
      ],
      "logsBloom": "0x00000000000040000000000000000800000000000000000000000000000000000000000000000000000000000000000000000000000000020000000000000000000000000000000000000000000000002000000000004000000000000000000000000000000000000000000000000000000000000000000000000000000000000000000000000000000000000000000000000000000000000000000000000000000000040000040000000000000000000000000000000000800800000000000000000000000000008000000000000000000000000000000000000000000000000080000000000000000020000000000000000000000000000000000000000000",
      "type": "0x2",
      "transactionHash": "0xb1f4b5f9871834aea01f760a995469b7ca97196e446f7b162ed49c4de2b5ee40",
      "transactionIndex": "0x13",
      "blockHash": "0x3fd79d07f7d338025dedca47900bd2d51a67ea97d99ca8484b6ea4ae0df7d72e",
      "blockNumber": "0x175dc7c7",
      "gasUsed": "0xd585",
      "effectiveGasPrice": "0x1b3d250",
      "blobGasUsed": "0x0",
      "from": "0x420acf637d662b80cca8befb327aa24039e7e0fa",
      "to": "0xa045d4daea28ba7bfe234c96eaa03dafae85a147",
      "contractAddress": null,
      "gasUsedForL1": "0x5f",
      "l1BlockNumber": "0x1688db8"
    }
  ],
  "libraries": [],
  "pending": [],
  "returns": {},
  "timestamp": 1761089772620,
  "chain": 42161,
  "commit": "9a0870c"
}