{
  "transactions": [
    {
      "hash": "0x8a869769f6a5dd95ced4c721420da91acb30c5129c571a59a3b0acd2e20a2771",
      "transactionType": "CALL",
      "contractName": null,
      "contractAddress": "0x2048a730f564246411415f719198d6f7c10a7961",
      "function": "acceptManagement()",
      "arguments": [],
      "transaction": {
        "from": "0x285e3b1e82f74a99d07d2ad25e159e75382bb43b",
        "to": "0x2048a730f564246411415f719198d6f7c10a7961",
        "gas": "0xb0d7",
        "value": "0x0",
        "input": "0xc8c2fe6c",
        "nonce": "0x33a",
        "chainId": "0x1"
      },
      "additionalContracts": [],
      "isFixedGasLimit": false
    },
    {
      "hash": "0x7d943de15a98850a198e0cdeadee1f3df3414417f0adef2324df92a14f5be02f",
      "transactionType": "CALL",
      "contractName": null,
      "contractAddress": "0x2048a730f564246411415f719198d6f7c10a7961",
      "function": "setPerformanceFee(uint16)",
      "arguments": [
        "0"
      ],
      "transaction": {
        "from": "0x285e3b1e82f74a99d07d2ad25e159e75382bb43b",
        "to": "0x2048a730f564246411415f719198d6f7c10a7961",
        "gas": "0xb279",
        "value": "0x0",
        "input": "0xaa290e6d0000000000000000000000000000000000000000000000000000000000000000",
        "nonce": "0x33b",
        "chainId": "0x1"
      },
      "additionalContracts": [],
      "isFixedGasLimit": false
    },
    {
      "hash": "0x2a77ad31c363227c9d38760c5f1716e760b8febabd099ba695202c943014e979",
      "transactionType": "CALL",
      "contractName": null,
      "contractAddress": "0x2048a730f564246411415f719198d6f7c10a7961",
      "function": "setProfitMaxUnlockTime(uint256)",
      "arguments": [
        "0"
      ],
      "transaction": {
        "from": "0x285e3b1e82f74a99d07d2ad25e159e75382bb43b",
        "to": "0x2048a730f564246411415f719198d6f7c10a7961",
        "gas": "0xd5eb",
        "value": "0x0",
        "input": "0xdf69b22a0000000000000000000000000000000000000000000000000000000000000000",
        "nonce": "0x33c",
        "chainId": "0x1"
      },
      "additionalContracts": [],
      "isFixedGasLimit": false
    },
    {
      "hash": "0x920af920dccb3a6b1a3242cbb876dc54637a169c801d730bec85838622badc4f",
      "transactionType": "CALL",
      "contractName": null,
      "contractAddress": "0x2048a730f564246411415f719198d6f7c10a7961",
      "function": "setAllowed(address)",
      "arguments": [
        "0x9F4330700a36B29952869fac9b33f45EEdd8A3d8"
      ],
      "transaction": {
        "from": "0x285e3b1e82f74a99d07d2ad25e159e75382bb43b",
        "to": "0x2048a730f564246411415f719198d6f7c10a7961",
        "gas": "0x10fca",
        "value": "0x0",
        "input": "0xc0e79a110000000000000000000000009f4330700a36b29952869fac9b33f45eedd8a3d8",
        "nonce": "0x33d",
        "chainId": "0x1"
      },
      "additionalContracts": [],
      "isFixedGasLimit": false
    },
    {
      "hash": "0xbed551b6b59bcdd95162ad36c96c10ff2ac3f6d3c6af790a858131f5cfdc5fe4",
      "transactionType": "CALL",
      "contractName": null,
      "contractAddress": "0x46af61661b1e15da5bfe40756495b7881f426214",
      "function": "acceptManagement()",
      "arguments": [],
      "transaction": {
        "from": "0x285e3b1e82f74a99d07d2ad25e159e75382bb43b",
        "to": "0x46af61661b1e15da5bfe40756495b7881f426214",
        "gas": "0xb0d7",
        "value": "0x0",
        "input": "0xc8c2fe6c",
        "nonce": "0x33e",
        "chainId": "0x1"
      },
      "additionalContracts": [],
      "isFixedGasLimit": false
    },
    {
      "hash": "0xbb35204c8468dca635120abde9d33847461f072cb6be9fd47af04600c58fb3fd",
      "transactionType": "CALL",
      "contractName": null,
      "contractAddress": "0x46af61661b1e15da5bfe40756495b7881f426214",
      "function": "setPerformanceFee(uint16)",
      "arguments": [
        "0"
      ],
      "transaction": {
        "from": "0x285e3b1e82f74a99d07d2ad25e159e75382bb43b",
        "to": "0x46af61661b1e15da5bfe40756495b7881f426214",
        "gas": "0xb279",
        "value": "0x0",
        "input": "0xaa290e6d0000000000000000000000000000000000000000000000000000000000000000",
        "nonce": "0x33f",
        "chainId": "0x1"
      },
      "additionalContracts": [],
      "isFixedGasLimit": false
    },
    {
      "hash": "0x610ff82431f1b9a4d9fa528b0f06cc14248a5566f2b2a4d896d2c233cdc73aa9",
      "transactionType": "CALL",
      "contractName": null,
      "contractAddress": "0x46af61661b1e15da5bfe40756495b7881f426214",
      "function": "setProfitMaxUnlockTime(uint256)",
      "arguments": [
        "0"
      ],
      "transaction": {
        "from": "0x285e3b1e82f74a99d07d2ad25e159e75382bb43b",
        "to": "0x46af61661b1e15da5bfe40756495b7881f426214",
        "gas": "0xd5eb",
        "value": "0x0",
        "input": "0xdf69b22a0000000000000000000000000000000000000000000000000000000000000000",
        "nonce": "0x340",
        "chainId": "0x1"
      },
      "additionalContracts": [],
      "isFixedGasLimit": false
    },
    {
      "hash": "0x456cfb03dfcaa7e7a22984118395168120bbc8bce34cc99f09a38205d2d65fe1",
      "transactionType": "CALL",
      "contractName": null,
      "contractAddress": "0x46af61661b1e15da5bfe40756495b7881f426214",
      "function": "setAllowed(address)",
      "arguments": [
        "0x9F4330700a36B29952869fac9b33f45EEdd8A3d8"
      ],
      "transaction": {
        "from": "0x285e3b1e82f74a99d07d2ad25e159e75382bb43b",
        "to": "0x46af61661b1e15da5bfe40756495b7881f426214",
        "gas": "0x10fca",
        "value": "0x0",
        "input": "0xc0e79a110000000000000000000000009f4330700a36b29952869fac9b33f45eedd8a3d8",
        "nonce": "0x341",
        "chainId": "0x1"
      },
      "additionalContracts": [],
      "isFixedGasLimit": false
    },
    {
      "hash": "0x5f5f588e9daad922217daa3bb29cabddeb9bbe6b70245f8f654b93914e1aec95",
      "transactionType": "CALL",
      "contractName": null,
      "contractAddress": "0x2351e217269a4a53a392bffe8195efa1c502a1d2",
      "function": "acceptManagement()",
      "arguments": [],
      "transaction": {
        "from": "0x285e3b1e82f74a99d07d2ad25e159e75382bb43b",
        "to": "0x2351e217269a4a53a392bffe8195efa1c502a1d2",
        "gas": "0xb0d7",
        "value": "0x0",
        "input": "0xc8c2fe6c",
        "nonce": "0x342",
        "chainId": "0x1"
      },
      "additionalContracts": [],
      "isFixedGasLimit": false
    },
    {
      "hash": "0x096722303d95fac91d506940e5b26c7747a78ce11fcd70723add9f8bf3389274",
      "transactionType": "CALL",
      "contractName": null,
      "contractAddress": "0x2351e217269a4a53a392bffe8195efa1c502a1d2",
      "function": "setPerformanceFee(uint16)",
      "arguments": [
        "0"
      ],
      "transaction": {
        "from": "0x285e3b1e82f74a99d07d2ad25e159e75382bb43b",
        "to": "0x2351e217269a4a53a392bffe8195efa1c502a1d2",
        "gas": "0xb279",
        "value": "0x0",
        "input": "0xaa290e6d0000000000000000000000000000000000000000000000000000000000000000",
        "nonce": "0x343",
        "chainId": "0x1"
      },
      "additionalContracts": [],
      "isFixedGasLimit": false
    },
    {
      "hash": "0x1af3956387c06f0f87899bc047e86096b6626fbe32d483cdd77fc4934a127a26",
      "transactionType": "CALL",
      "contractName": null,
      "contractAddress": "0x2351e217269a4a53a392bffe8195efa1c502a1d2",
      "function": "setProfitMaxUnlockTime(uint256)",
      "arguments": [
        "0"
      ],
      "transaction": {
        "from": "0x285e3b1e82f74a99d07d2ad25e159e75382bb43b",
        "to": "0x2351e217269a4a53a392bffe8195efa1c502a1d2",
        "gas": "0xd5eb",
        "value": "0x0",
        "input": "0xdf69b22a0000000000000000000000000000000000000000000000000000000000000000",
        "nonce": "0x344",
        "chainId": "0x1"
      },
      "additionalContracts": [],
      "isFixedGasLimit": false
    },
    {
      "hash": "0xb105862e4566e79ad90579d4ef726db0241dd7306e8602853f169e24696b166c",
      "transactionType": "CALL",
      "contractName": null,
      "contractAddress": "0x2351e217269a4a53a392bffe8195efa1c502a1d2",
      "function": "setAllowed(address)",
      "arguments": [
        "0x9F4330700a36B29952869fac9b33f45EEdd8A3d8"
      ],
      "transaction": {
        "from": "0x285e3b1e82f74a99d07d2ad25e159e75382bb43b",
        "to": "0x2351e217269a4a53a392bffe8195efa1c502a1d2",
        "gas": "0x10fca",
        "value": "0x0",
        "input": "0xc0e79a110000000000000000000000009f4330700a36b29952869fac9b33f45eedd8a3d8",
        "nonce": "0x345",
        "chainId": "0x1"
      },
      "additionalContracts": [],
      "isFixedGasLimit": false
    }
  ],
  "receipts": [
    {
      "status": "0x1",
      "cumulativeGasUsed": "0x11e5d53",
      "logs": [
        {
          "address": "0x2048a730f564246411415f719198d6f7c10a7961",
          "topics": [
            "0xff54978127edd34aec0f9061fb3b155fbe0ededdfa881ee3e0d541d3a1eef438",
            "0x000000000000000000000000285e3b1e82f74a99d07d2ad25e159e75382bb43b"
          ],
          "data": "0x",
          "blockHash": "0x142a41c5685286888fe2da1b0546eaed88fe7aff01a2cc7ce7a0a1f9019bebb6",
          "blockNumber": "0x15863eb",
          "transactionHash": "0x8a869769f6a5dd95ced4c721420da91acb30c5129c571a59a3b0acd2e20a2771",
          "transactionIndex": "0xcc",
          "logIndex": "0x20d",
          "removed": false
        }
      ],
      "logsBloom": "0x00000000000000000000000004000000000000000000000000000000000000000000000000000000000000000000000000000000000000000000000000000000000000000000000000000000000000000000000000000000008000000000000000000000000000000000000000000000000000000000000000800001000000000000000000000000000000000000000000000000000000200000000000000000000000000000000000000000000000000000000000000000000000080000000000000000000000000000000000000000000004000000000000000000000000000000000200000000000000000000000000000000000000000100000000000000",
      "type": "0x0",
      "transactionHash": "0x8a869769f6a5dd95ced4c721420da91acb30c5129c571a59a3b0acd2e20a2771",
      "transactionIndex": "0xcc",
      "blockHash": "0x142a41c5685286888fe2da1b0546eaed88fe7aff01a2cc7ce7a0a1f9019bebb6",
      "blockNumber": "0x15863eb",
      "gasUsed": "0x78eb",
      "effectiveGasPrice": "0x23786b4d",
      "blobGasUsed": "0x0",
      "from": "0x285e3b1e82f74a99d07d2ad25e159e75382bb43b",
      "to": "0x2048a730f564246411415f719198d6f7c10a7961",
      "contractAddress": null
    },
    {
      "status": "0x1",
      "cumulativeGasUsed": "0xa7e05b",
      "logs": [
        {
          "address": "0x2048a730f564246411415f719198d6f7c10a7961",
          "topics": [
            "0xdc843735e683348ec21c302ffff45462399c5c46f75f67b0a1a5395c53599753"
          ],
          "data": "0x0000000000000000000000000000000000000000000000000000000000000000",
          "blockHash": "0xad5e0643cb5bdda8d8099b781a9bb6aa29639a120f2be623ca7da31f397c5553",
          "blockNumber": "0x15863ed",
          "transactionHash": "0x7d943de15a98850a198e0cdeadee1f3df3414417f0adef2324df92a14f5be02f",
          "transactionIndex": "0x78",
          "logIndex": "0x12c",
          "removed": false
        }
      ],
      "logsBloom": "0x00000000000000000000000000000000000000000000000000000000000000000000000000000000000000000000000000000000000000000000000000000000000000000000000000000000000000000000000000000000000000000000000000000200000000000000000000000000000000000000000000000009000000000000000000000000000000000000000000000000000000200000000000000000000000000000000000000000000000000000000000000000000000000000000000000000000000000000000000000000000004000000000000000000000000040000000000000000000000000000000000000000000000000000000000000000",
      "type": "0x0",
      "transactionHash": "0x7d943de15a98850a198e0cdeadee1f3df3414417f0adef2324df92a14f5be02f",
      "transactionIndex": "0x78",
      "blockHash": "0xad5e0643cb5bdda8d8099b781a9bb6aa29639a120f2be623ca7da31f397c5553",
      "blockNumber": "0x15863ed",
      "gasUsed": "0x8137",
      "effectiveGasPrice": "0x23786b4d",
      "blobGasUsed": "0x0",
      "from": "0x285e3b1e82f74a99d07d2ad25e159e75382bb43b",
      "to": "0x2048a730f564246411415f719198d6f7c10a7961",
      "contractAddress": null
    },
    {
      "status": "0x1",
      "cumulativeGasUsed": "0xa87b3b",
      "logs": [
        {
          "address": "0x2048a730f564246411415f719198d6f7c10a7961",
          "topics": [
            "0xf361aed463da6fa20358e45c6209f1d3e16d4eca706e6eab0b0aeb338729c77a"
          ],
          "data": "0x0000000000000000000000000000000000000000000000000000000000000000",
          "blockHash": "0xad5e0643cb5bdda8d8099b781a9bb6aa29639a120f2be623ca7da31f397c5553",
          "blockNumber": "0x15863ed",
          "transactionHash": "0x2a77ad31c363227c9d38760c5f1716e760b8febabd099ba695202c943014e979",
          "transactionIndex": "0x79",
          "logIndex": "0x12d",
          "removed": false
        }
      ],
      "logsBloom": "0x00000000000000000000000000000000000000000000000000000000000020000000000000000000000000000000000000000000000000000000000000000000000000000000000000000002000000000000000000000000000000000000000000000000000000000000000000000000000000000000000000020001000000000000000000000000000000000000000000000000000000200000000000000000000000000000000000000000000000000000000000000000000000000000000000000000000000000000000000000000000004000000000000000000000000000000000000000000000000000000000000000000000000000000000000000000",
      "type": "0x0",
      "transactionHash": "0x2a77ad31c363227c9d38760c5f1716e760b8febabd099ba695202c943014e979",
      "transactionIndex": "0x79",
      "blockHash": "0xad5e0643cb5bdda8d8099b781a9bb6aa29639a120f2be623ca7da31f397c5553",
      "blockNumber": "0x15863ed",
      "gasUsed": "0x9ae0",
      "effectiveGasPrice": "0x23786b4d",
      "blobGasUsed": "0x0",
      "from": "0x285e3b1e82f74a99d07d2ad25e159e75382bb43b",
      "to": "0x2048a730f564246411415f719198d6f7c10a7961",
      "contractAddress": null
    },
    {
      "status": "0x1",
      "cumulativeGasUsed": "0xa94001",
      "logs": [],
      "logsBloom": "0x00000000000000000000000000000000000000000000000000000000000000000000000000000000000000000000000000000000000000000000000000000000000000000000000000000000000000000000000000000000000000000000000000000000000000000000000000000000000000000000000000000000000000000000000000000000000000000000000000000000000000000000000000000000000000000000000000000000000000000000000000000000000000000000000000000000000000000000000000000000000000000000000000000000000000000000000000000000000000000000000000000000000000000000000000000000",
      "type": "0x0",
      "transactionHash": "0x920af920dccb3a6b1a3242cbb876dc54637a169c801d730bec85838622badc4f",
      "transactionIndex": "0x7a",
      "blockHash": "0xad5e0643cb5bdda8d8099b781a9bb6aa29639a120f2be623ca7da31f397c5553",
      "blockNumber": "0x15863ed",
      "gasUsed": "0xc4c6",
      "effectiveGasPrice": "0x23786b4d",
      "blobGasUsed": "0x0",
      "from": "0x285e3b1e82f74a99d07d2ad25e159e75382bb43b",
      "to": "0x2048a730f564246411415f719198d6f7c10a7961",
      "contractAddress": null
    },
    {
      "status": "0x1",
      "cumulativeGasUsed": "0xaa0af4",
      "logs": [
        {
          "address": "0x46af61661b1e15da5bfe40756495b7881f426214",
          "topics": [
            "0xff54978127edd34aec0f9061fb3b155fbe0ededdfa881ee3e0d541d3a1eef438",
            "0x000000000000000000000000285e3b1e82f74a99d07d2ad25e159e75382bb43b"
          ],
          "data": "0x",
          "blockHash": "0xad5e0643cb5bdda8d8099b781a9bb6aa29639a120f2be623ca7da31f397c5553",
          "blockNumber": "0x15863ed",
          "transactionHash": "0xbed551b6b59bcdd95162ad36c96c10ff2ac3f6d3c6af790a858131f5cfdc5fe4",
          "transactionIndex": "0x7c",
          "logIndex": "0x12e",
          "removed": false
        }
      ],
      "logsBloom": "0x00000000000000000000000004000000000000000000000000000000000000000000000000000000000000000000000000000000000000000000000000000000000000000800000000000000000000000000000000000000008000000000000000000000000000000000000000000000000000000000000000800000000000000000000200000000000000000000000000000000000000000000000000000000000000000000000000000000000000000000000000000000000000080000000000000000000000000000000000000000000000000000000000000000000200000000000200000000000000000000000000000000000000000100000000000000",
      "type": "0x0",
      "transactionHash": "0xbed551b6b59bcdd95162ad36c96c10ff2ac3f6d3c6af790a858131f5cfdc5fe4",
      "transactionIndex": "0x7c",
      "blockHash": "0xad5e0643cb5bdda8d8099b781a9bb6aa29639a120f2be623ca7da31f397c5553",
      "blockNumber": "0x15863ed",
      "gasUsed": "0x78eb",
      "effectiveGasPrice": "0x23786b4d",
      "blobGasUsed": "0x0",
      "from": "0x285e3b1e82f74a99d07d2ad25e159e75382bb43b",
      "to": "0x46af61661b1e15da5bfe40756495b7881f426214",
      "contractAddress": null
    },
    {
      "status": "0x1",
      "cumulativeGasUsed": "0xaa8c2b",
      "logs": [
        {
          "address": "0x46af61661b1e15da5bfe40756495b7881f426214",
          "topics": [
            "0xdc843735e683348ec21c302ffff45462399c5c46f75f67b0a1a5395c53599753"
          ],
          "data": "0x0000000000000000000000000000000000000000000000000000000000000000",
          "blockHash": "0xad5e0643cb5bdda8d8099b781a9bb6aa29639a120f2be623ca7da31f397c5553",
          "blockNumber": "0x15863ed",
          "transactionHash": "0xbb35204c8468dca635120abde9d33847461f072cb6be9fd47af04600c58fb3fd",
          "transactionIndex": "0x7d",
          "logIndex": "0x12f",
          "removed": false
        }
      ],
      "logsBloom": "0x00000000000000000000000000000000000000000000000000000000000000000000000000000000000000000000000000000000000000000000000000000000000000000800000000000000000000000000000000000000000000000000000000000200000000000000000000000000000000000000000000000008000000000000000200000000000000000000000000000000000000000000000000000000000000000000000000000000000000000000000000000000000000000000000000000000000000000000000000000000000000000000000000000000000200040000000000000000000000000000000000000000000000000000000000000000",
      "type": "0x0",
      "transactionHash": "0xbb35204c8468dca635120abde9d33847461f072cb6be9fd47af04600c58fb3fd",
      "transactionIndex": "0x7d",
      "blockHash": "0xad5e0643cb5bdda8d8099b781a9bb6aa29639a120f2be623ca7da31f397c5553",
      "blockNumber": "0x15863ed",
      "gasUsed": "0x8137",
      "effectiveGasPrice": "0x23786b4d",
      "blobGasUsed": "0x0",
      "from": "0x285e3b1e82f74a99d07d2ad25e159e75382bb43b",
      "to": "0x46af61661b1e15da5bfe40756495b7881f426214",
      "contractAddress": null
    },
    {
      "status": "0x1",
      "cumulativeGasUsed": "0xab270b",
      "logs": [
        {
          "address": "0x46af61661b1e15da5bfe40756495b7881f426214",
          "topics": [
            "0xf361aed463da6fa20358e45c6209f1d3e16d4eca706e6eab0b0aeb338729c77a"
          ],
          "data": "0x0000000000000000000000000000000000000000000000000000000000000000",
          "blockHash": "0xad5e0643cb5bdda8d8099b781a9bb6aa29639a120f2be623ca7da31f397c5553",
          "blockNumber": "0x15863ed",
          "transactionHash": "0x610ff82431f1b9a4d9fa528b0f06cc14248a5566f2b2a4d896d2c233cdc73aa9",
          "transactionIndex": "0x7e",
          "logIndex": "0x130",
          "removed": false
        }
      ],
      "logsBloom": "0x00000000000000000000000000000000000000000000000000000000000020000000000000000000000000000000000000000000000000000000000000000000000000000800000000000002000000000000000000000000000000000000000000000000000000000000000000000000000000000000000000020000000000000000000200000000000000000000000000000000000000000000000000000000000000000000000000000000000000000000000000000000000000000000000000000000000000000000000000000000000000000000000000000000000200000000000000000000000000000000000000000000000000000000000000000000",
      "type": "0x0",
      "transactionHash": "0x610ff82431f1b9a4d9fa528b0f06cc14248a5566f2b2a4d896d2c233cdc73aa9",
      "transactionIndex": "0x7e",
      "blockHash": "0xad5e0643cb5bdda8d8099b781a9bb6aa29639a120f2be623ca7da31f397c5553",
      "blockNumber": "0x15863ed",
      "gasUsed": "0x9ae0",
      "effectiveGasPrice": "0x23786b4d",
      "blobGasUsed": "0x0",
      "from": "0x285e3b1e82f74a99d07d2ad25e159e75382bb43b",
      "to": "0x46af61661b1e15da5bfe40756495b7881f426214",
      "contractAddress": null
    },
    {
      "status": "0x1",
      "cumulativeGasUsed": "0xabebd1",
      "logs": [],
      "logsBloom": "0x00000000000000000000000000000000000000000000000000000000000000000000000000000000000000000000000000000000000000000000000000000000000000000000000000000000000000000000000000000000000000000000000000000000000000000000000000000000000000000000000000000000000000000000000000000000000000000000000000000000000000000000000000000000000000000000000000000000000000000000000000000000000000000000000000000000000000000000000000000000000000000000000000000000000000000000000000000000000000000000000000000000000000000000000000000000",
      "type": "0x0",
      "transactionHash": "0x456cfb03dfcaa7e7a22984118395168120bbc8bce34cc99f09a38205d2d65fe1",
      "transactionIndex": "0x7f",
      "blockHash": "0xad5e0643cb5bdda8d8099b781a9bb6aa29639a120f2be623ca7da31f397c5553",
      "blockNumber": "0x15863ed",
      "gasUsed": "0xc4c6",
      "effectiveGasPrice": "0x23786b4d",
      "blobGasUsed": "0x0",
      "from": "0x285e3b1e82f74a99d07d2ad25e159e75382bb43b",
      "to": "0x46af61661b1e15da5bfe40756495b7881f426214",
      "contractAddress": null
    },
    {
      "status": "0x1",
      "cumulativeGasUsed": "0xac64bc",
      "logs": [
        {
          "address": "0x2351e217269a4a53a392bffe8195efa1c502a1d2",
          "topics": [
            "0xff54978127edd34aec0f9061fb3b155fbe0ededdfa881ee3e0d541d3a1eef438",
            "0x000000000000000000000000285e3b1e82f74a99d07d2ad25e159e75382bb43b"
          ],
          "data": "0x",
          "blockHash": "0xad5e0643cb5bdda8d8099b781a9bb6aa29639a120f2be623ca7da31f397c5553",
          "blockNumber": "0x15863ed",
          "transactionHash": "0x5f5f588e9daad922217daa3bb29cabddeb9bbe6b70245f8f654b93914e1aec95",
          "transactionIndex": "0x80",
          "logIndex": "0x131",
          "removed": false
        }
      ],
      "logsBloom": "0x00000000000000000000000004000000000000000000000000000000000000000002000000000000000000000100000000000000000000000000000000000000000000000000000000000000000000000000000000000400008000000000000000000000000000000000000000000000000000000000000000800000000000000000000000000000000000000000000000000000000000000000000000000000000000000000000000000000000000000000000000000000000000080000000000000000000000000000000000000000000000000000000000000000000000000000000200000000000000000000000000000000000000000100000000000000",
      "type": "0x0",
      "transactionHash": "0x5f5f588e9daad922217daa3bb29cabddeb9bbe6b70245f8f654b93914e1aec95",
      "transactionIndex": "0x80",
      "blockHash": "0xad5e0643cb5bdda8d8099b781a9bb6aa29639a120f2be623ca7da31f397c5553",
      "blockNumber": "0x15863ed",
      "gasUsed": "0x78eb",
      "effectiveGasPrice": "0x23786b4d",
      "blobGasUsed": "0x0",
      "from": "0x285e3b1e82f74a99d07d2ad25e159e75382bb43b",
      "to": "0x2351e217269a4a53a392bffe8195efa1c502a1d2",
      "contractAddress": null
    },
    {
      "status": "0x1",
      "cumulativeGasUsed": "0x18319c",
      "logs": [
        {
          "address": "0x2351e217269a4a53a392bffe8195efa1c502a1d2",
          "topics": [
            "0xdc843735e683348ec21c302ffff45462399c5c46f75f67b0a1a5395c53599753"
          ],
          "data": "0x0000000000000000000000000000000000000000000000000000000000000000",
          "blockHash": "0x7a181658df550595ac1dbdc262779317db918d57b19a7f0c4aab704d5938917b",
          "blockNumber": "0x15863ef",
          "transactionHash": "0x096722303d95fac91d506940e5b26c7747a78ce11fcd70723add9f8bf3389274",
          "transactionIndex": "0x15",
          "logIndex": "0x1a",
          "removed": false
        }
      ],
      "logsBloom": "0x00000000000000000000000000000000000000000000000000000000000000000002000000000000000000000100000000000000000000000000000000000000000000000000000000000000000000000000000000000400000000000000000000000200000000000000000000000000000000000000000000000008000000000000000000000000000000000000000000000000000000000000000000000000000000000000000000000000000000000000000000000000000000000000000000000000000000000000000000000000000000000000000000000000000000040000000000000000000000000000000000000000000000000000000000000000",
      "type": "0x0",
      "transactionHash": "0x096722303d95fac91d506940e5b26c7747a78ce11fcd70723add9f8bf3389274",
      "transactionIndex": "0x15",
      "blockHash": "0x7a181658df550595ac1dbdc262779317db918d57b19a7f0c4aab704d5938917b",
      "blockNumber": "0x15863ef",
      "gasUsed": "0x8137",
      "effectiveGasPrice": "0x23786b4d",
      "blobGasUsed": "0x0",
      "from": "0x285e3b1e82f74a99d07d2ad25e159e75382bb43b",
      "to": "0x2351e217269a4a53a392bffe8195efa1c502a1d2",
      "contractAddress": null
    },
    {
      "status": "0x1",
      "cumulativeGasUsed": "0x157753a",
      "logs": [
        {
          "address": "0x2351e217269a4a53a392bffe8195efa1c502a1d2",
          "topics": [
            "0xf361aed463da6fa20358e45c6209f1d3e16d4eca706e6eab0b0aeb338729c77a"
          ],
          "data": "0x0000000000000000000000000000000000000000000000000000000000000000",
          "blockHash": "0xad8037c4d0eace98fe24430bba4c3d07c7a3e485e58d1a42ad79856759c5fb8c",
          "blockNumber": "0x15863f2",
          "transactionHash": "0x1af3956387c06f0f87899bc047e86096b6626fbe32d483cdd77fc4934a127a26",
          "transactionIndex": "0x83",
          "logIndex": "0x524",
          "removed": false
        }
      ],
      "logsBloom": "0x00000000000000000000000000000000000000000000000000000000000020000002000000000000000000000100000000000000000000000000000000000000000000000000000000000002000000000000000000000400000000000000000000000000000000000000000000000000000000000000000000020000000000000000000000000000000000000000000000000000000000000000000000000000000000000000000000000000000000000000000000000000000000000000000000000000000000000000000000000000000000000000000000000000000000000000000000000000000000000000000000000000000000000000000000000000",
      "type": "0x0",
      "transactionHash": "0x1af3956387c06f0f87899bc047e86096b6626fbe32d483cdd77fc4934a127a26",
      "transactionIndex": "0x83",
      "blockHash": "0xad8037c4d0eace98fe24430bba4c3d07c7a3e485e58d1a42ad79856759c5fb8c",
      "blockNumber": "0x15863f2",
      "gasUsed": "0x9ae0",
      "effectiveGasPrice": "0x23786b4d",
      "blobGasUsed": "0x0",
      "from": "0x285e3b1e82f74a99d07d2ad25e159e75382bb43b",
      "to": "0x2351e217269a4a53a392bffe8195efa1c502a1d2",
      "contractAddress": null
    },
    {
      "status": "0x1",
      "cumulativeGasUsed": "0xcbc226",
      "logs": [],
      "logsBloom": "0x00000000000000000000000000000000000000000000000000000000000000000000000000000000000000000000000000000000000000000000000000000000000000000000000000000000000000000000000000000000000000000000000000000000000000000000000000000000000000000000000000000000000000000000000000000000000000000000000000000000000000000000000000000000000000000000000000000000000000000000000000000000000000000000000000000000000000000000000000000000000000000000000000000000000000000000000000000000000000000000000000000000000000000000000000000000",
      "type": "0x0",
      "transactionHash": "0xb105862e4566e79ad90579d4ef726db0241dd7306e8602853f169e24696b166c",
      "transactionIndex": "0x8c",
      "blockHash": "0xd8e81b51e1a164064424c27883d2e62adf8147b6dc91724dc37ab43c0288abe8",
      "blockNumber": "0x15863f4",
      "gasUsed": "0xc4c6",
      "effectiveGasPrice": "0x23786b4d",
      "blobGasUsed": "0x0",
      "from": "0x285e3b1e82f74a99d07d2ad25e159e75382bb43b",
      "to": "0x2351e217269a4a53a392bffe8195efa1c502a1d2",
      "contractAddress": null
    }
  ],
  "libraries": [],
  "pending": [],
  "returns": {},
  "timestamp": 1748298796,
  "chain": 1,
  "commit": "d199c6a"
}