{
  "transactions": [
    {
      "hash": "0x753050d5b94db75168ca2e605ed55b5947925e4ce410289a85f61fcefab809d0",
      "transactionType": "CALL",
      "contractName": null,
      "contractAddress": "0xecf4dcbb6aba1925a77038914e406037011b676f",
      "function": "acceptManagement()",
      "arguments": [],
      "transaction": {
        "from": "0x285e3b1e82f74a99d07d2ad25e159e75382bb43b",
        "to": "0xecf4dcbb6aba1925a77038914e406037011b676f",
        "gas": "0x22020",
        "value": "0x0",
        "input": "0xc8c2fe6c",
        "nonce": "0x368",
        "chainId": "0x1"
      },
      "additionalContracts": [],
      "isFixedGasLimit": false
    },
    {
      "hash": "0x978f78f74a530475ceeeb5631187beb2146c15981a6f54dbb91cdb88d0e2f048",
      "transactionType": "CALL",
      "contractName": null,
      "contractAddress": "0xecf4dcbb6aba1925a77038914e406037011b676f",
      "function": "setProfitMaxUnlockTime(uint256)",
      "arguments": [
        "259200"
      ],
      "transaction": {
        "from": "0x285e3b1e82f74a99d07d2ad25e159e75382bb43b",
        "to": "0xecf4dcbb6aba1925a77038914e406037011b676f",
        "gas": "0x22474",
        "value": "0x0",
        "input": "0xdf69b22a000000000000000000000000000000000000000000000000000000000003f480",
        "nonce": "0x369",
        "chainId": "0x1"
      },
      "additionalContracts": [],
      "isFixedGasLimit": false
    },
    {
      "hash": "0xc24da608211be93a356db20150bea74cbc5329f7a8d670acef7a2ecfc0108252",
      "transactionType": "CALL",
      "contractName": null,
      "contractAddress": "0xecf4dcbb6aba1925a77038914e406037011b676f",
      "function": "setAllowed(address)",
      "arguments": [
        "0x0aBd93dA8387B5Ef0511a2859d85D84fe4519e94"
      ],
      "transaction": {
        "from": "0x285e3b1e82f74a99d07d2ad25e159e75382bb43b",
        "to": "0xecf4dcbb6aba1925a77038914e406037011b676f",
        "gas": "0x34448",
        "value": "0x0",
        "input": "0xc0e79a110000000000000000000000000abd93da8387b5ef0511a2859d85d84fe4519e94",
        "nonce": "0x36a",
        "chainId": "0x1"
      },
      "additionalContracts": [],
      "isFixedGasLimit": false
    },
    {
      "hash": "0x832629a7b34e195c77a439c42f0ca20da3046aa8603706192e973755f8c0e44e",
      "transactionType": "CALL",
      "contractName": null,
      "contractAddress": "0xecf4dcbb6aba1925a77038914e406037011b676f",
      "function": "setPendingManagement(address)",
      "arguments": [
        "0x16388463d60FFE0661Cf7F1f31a7D658aC790ff7"
      ],
      "transaction": {
        "from": "0x285e3b1e82f74a99d07d2ad25e159e75382bb43b",
        "to": "0xecf4dcbb6aba1925a77038914e406037011b676f",
        "gas": "0x347c0",
        "value": "0x0",
        "input": "0xf629b79000000000000000000000000016388463d60ffe0661cf7f1f31a7d658ac790ff7",
        "nonce": "0x36b",
        "chainId": "0x1"
      },
      "additionalContracts": [],
      "isFixedGasLimit": false
    },
    {
      "hash": null,
      "transactionType": "CALL",
      "contractName": null,
      "contractAddress": "0x32029d42311ae0a7e00f9700c50e569b94fdfcd7",
      "function": "acceptManagement()",
      "arguments": [],
      "transaction": {
        "from": "0x285e3b1e82f74a99d07d2ad25e159e75382bb43b",
        "to": "0x32029d42311ae0a7e00f9700c50e569b94fdfcd7",
        "gas": "0x22020",
        "value": "0x0",
        "input": "0xc8c2fe6c",
        "nonce": "0x36c",
        "chainId": "0x1"
      },
      "additionalContracts": [],
      "isFixedGasLimit": false
    },
    {
      "hash": null,
      "transactionType": "CALL",
      "contractName": null,
      "contractAddress": "0x32029d42311ae0a7e00f9700c50e569b94fdfcd7",
      "function": "setProfitMaxUnlockTime(uint256)",
      "arguments": [
        "259200"
      ],
      "transaction": {
        "from": "0x285e3b1e82f74a99d07d2ad25e159e75382bb43b",
        "to": "0x32029d42311ae0a7e00f9700c50e569b94fdfcd7",
        "gas": "0x22474",
        "value": "0x0",
        "input": "0xdf69b22a000000000000000000000000000000000000000000000000000000000003f480",
        "nonce": "0x36d",
        "chainId": "0x1"
      },
      "additionalContracts": [],
      "isFixedGasLimit": false
    },
    {
      "hash": null,
      "transactionType": "CALL",
      "contractName": null,
      "contractAddress": "0x32029d42311ae0a7e00f9700c50e569b94fdfcd7",
      "function": "setAllowed(address)",
      "arguments": [
        "0x0aBd93dA8387B5Ef0511a2859d85D84fe4519e94"
      ],
      "transaction": {
        "from": "0x285e3b1e82f74a99d07d2ad25e159e75382bb43b",
        "to": "0x32029d42311ae0a7e00f9700c50e569b94fdfcd7",
        "gas": "0x34448",
        "value": "0x0",
        "input": "0xc0e79a110000000000000000000000000abd93da8387b5ef0511a2859d85d84fe4519e94",
        "nonce": "0x36e",
        "chainId": "0x1"
      },
      "additionalContracts": [],
      "isFixedGasLimit": false
    },
    {
      "hash": null,
      "transactionType": "CALL",
      "contractName": null,
      "contractAddress": "0x32029d42311ae0a7e00f9700c50e569b94fdfcd7",
      "function": "setPendingManagement(address)",
      "arguments": [
        "0x16388463d60FFE0661Cf7F1f31a7D658aC790ff7"
      ],
      "transaction": {
        "from": "0x285e3b1e82f74a99d07d2ad25e159e75382bb43b",
        "to": "0x32029d42311ae0a7e00f9700c50e569b94fdfcd7",
        "gas": "0x347c0",
        "value": "0x0",
        "input": "0xf629b79000000000000000000000000016388463d60ffe0661cf7f1f31a7d658ac790ff7",
        "nonce": "0x36f",
        "chainId": "0x1"
      },
      "additionalContracts": [],
      "isFixedGasLimit": false
    },
    {
      "hash": null,
      "transactionType": "CALL",
      "contractName": null,
      "contractAddress": "0x40f680d259283d1493f14a062c6a59621bbce285",
      "function": "acceptManagement()",
      "arguments": [],
      "transaction": {
        "from": "0x285e3b1e82f74a99d07d2ad25e159e75382bb43b",
        "to": "0x40f680d259283d1493f14a062c6a59621bbce285",
        "gas": "0x22020",
        "value": "0x0",
        "input": "0xc8c2fe6c",
        "nonce": "0x370",
        "chainId": "0x1"
      },
      "additionalContracts": [],
      "isFixedGasLimit": false
    },
    {
      "hash": null,
      "transactionType": "CALL",
      "contractName": null,
      "contractAddress": "0x40f680d259283d1493f14a062c6a59621bbce285",
      "function": "setProfitMaxUnlockTime(uint256)",
      "arguments": [
        "259200"
      ],
      "transaction": {
        "from": "0x285e3b1e82f74a99d07d2ad25e159e75382bb43b",
        "to": "0x40f680d259283d1493f14a062c6a59621bbce285",
        "gas": "0x22474",
        "value": "0x0",
        "input": "0xdf69b22a000000000000000000000000000000000000000000000000000000000003f480",
        "nonce": "0x371",
        "chainId": "0x1"
      },
      "additionalContracts": [],
      "isFixedGasLimit": false
    },
    {
      "hash": null,
      "transactionType": "CALL",
      "contractName": null,
      "contractAddress": "0x40f680d259283d1493f14a062c6a59621bbce285",
      "function": "setAllowed(address)",
      "arguments": [
        "0x0aBd93dA8387B5Ef0511a2859d85D84fe4519e94"
      ],
      "transaction": {
        "from": "0x285e3b1e82f74a99d07d2ad25e159e75382bb43b",
        "to": "0x40f680d259283d1493f14a062c6a59621bbce285",
        "gas": "0x34448",
        "value": "0x0",
        "input": "0xc0e79a110000000000000000000000000abd93da8387b5ef0511a2859d85d84fe4519e94",
        "nonce": "0x372",
        "chainId": "0x1"
      },
      "additionalContracts": [],
      "isFixedGasLimit": false
    },
    {
      "hash": null,
      "transactionType": "CALL",
      "contractName": null,
      "contractAddress": "0x40f680d259283d1493f14a062c6a59621bbce285",
      "function": "setPendingManagement(address)",
      "arguments": [
        "0x16388463d60FFE0661Cf7F1f31a7D658aC790ff7"
      ],
      "transaction": {
        "from": "0x285e3b1e82f74a99d07d2ad25e159e75382bb43b",
        "to": "0x40f680d259283d1493f14a062c6a59621bbce285",
        "gas": "0x347c0",
        "value": "0x0",
        "input": "0xf629b79000000000000000000000000016388463d60ffe0661cf7f1f31a7d658ac790ff7",
        "nonce": "0x373",
        "chainId": "0x1"
      },
      "additionalContracts": [],
      "isFixedGasLimit": false
    },
    {
      "hash": null,
      "transactionType": "CALL",
      "contractName": null,
      "contractAddress": "0x4308b3e0b787a367ba31aa35b29310cfd7745b9a",
      "function": "acceptManagement()",
      "arguments": [],
      "transaction": {
        "from": "0x285e3b1e82f74a99d07d2ad25e159e75382bb43b",
        "to": "0x4308b3e0b787a367ba31aa35b29310cfd7745b9a",
        "gas": "0x22020",
        "value": "0x0",
        "input": "0xc8c2fe6c",
        "nonce": "0x374",
        "chainId": "0x1"
      },
      "additionalContracts": [],
      "isFixedGasLimit": false
    },
    {
      "hash": null,
      "transactionType": "CALL",
      "contractName": null,
      "contractAddress": "0x4308b3e0b787a367ba31aa35b29310cfd7745b9a",
      "function": "setProfitMaxUnlockTime(uint256)",
      "arguments": [
        "259200"
      ],
      "transaction": {
        "from": "0x285e3b1e82f74a99d07d2ad25e159e75382bb43b",
        "to": "0x4308b3e0b787a367ba31aa35b29310cfd7745b9a",
        "gas": "0x22474",
        "value": "0x0",
        "input": "0xdf69b22a000000000000000000000000000000000000000000000000000000000003f480",
        "nonce": "0x375",
        "chainId": "0x1"
      },
      "additionalContracts": [],
      "isFixedGasLimit": false
    },
    {
      "hash": null,
      "transactionType": "CALL",
      "contractName": null,
      "contractAddress": "0x4308b3e0b787a367ba31aa35b29310cfd7745b9a",
      "function": "setAllowed(address)",
      "arguments": [
        "0x0aBd93dA8387B5Ef0511a2859d85D84fe4519e94"
      ],
      "transaction": {
        "from": "0x285e3b1e82f74a99d07d2ad25e159e75382bb43b",
        "to": "0x4308b3e0b787a367ba31aa35b29310cfd7745b9a",
        "gas": "0x34448",
        "value": "0x0",
        "input": "0xc0e79a110000000000000000000000000abd93da8387b5ef0511a2859d85d84fe4519e94",
        "nonce": "0x376",
        "chainId": "0x1"
      },
      "additionalContracts": [],
      "isFixedGasLimit": false
    },
    {
      "hash": null,
      "transactionType": "CALL",
      "contractName": null,
      "contractAddress": "0x4308b3e0b787a367ba31aa35b29310cfd7745b9a",
      "function": "setPendingManagement(address)",
      "arguments": [
        "0x16388463d60FFE0661Cf7F1f31a7D658aC790ff7"
      ],
      "transaction": {
        "from": "0x285e3b1e82f74a99d07d2ad25e159e75382bb43b",
        "to": "0x4308b3e0b787a367ba31aa35b29310cfd7745b9a",
        "gas": "0x347c0",
        "value": "0x0",
        "input": "0xf629b79000000000000000000000000016388463d60ffe0661cf7f1f31a7d658ac790ff7",
        "nonce": "0x377",
        "chainId": "0x1"
      },
      "additionalContracts": [],
      "isFixedGasLimit": false
    },
    {
      "hash": null,
      "transactionType": "CALL",
      "contractName": null,
      "contractAddress": "0x268350b21732d47f6b1e4a45cc67f30820175c9a",
      "function": "acceptManagement()",
      "arguments": [],
      "transaction": {
        "from": "0x285e3b1e82f74a99d07d2ad25e159e75382bb43b",
        "to": "0x268350b21732d47f6b1e4a45cc67f30820175c9a",
        "gas": "0x22020",
        "value": "0x0",
        "input": "0xc8c2fe6c",
        "nonce": "0x378",
        "chainId": "0x1"
      },
      "additionalContracts": [],
      "isFixedGasLimit": false
    },
    {
      "hash": null,
      "transactionType": "CALL",
      "contractName": null,
      "contractAddress": "0x268350b21732d47f6b1e4a45cc67f30820175c9a",
      "function": "setProfitMaxUnlockTime(uint256)",
      "arguments": [
        "259200"
      ],
      "transaction": {
        "from": "0x285e3b1e82f74a99d07d2ad25e159e75382bb43b",
        "to": "0x268350b21732d47f6b1e4a45cc67f30820175c9a",
        "gas": "0x22474",
        "value": "0x0",
        "input": "0xdf69b22a000000000000000000000000000000000000000000000000000000000003f480",
        "nonce": "0x379",
        "chainId": "0x1"
      },
      "additionalContracts": [],
      "isFixedGasLimit": false
    },
    {
      "hash": null,
      "transactionType": "CALL",
      "contractName": null,
      "contractAddress": "0x268350b21732d47f6b1e4a45cc67f30820175c9a",
      "function": "setAllowed(address)",
      "arguments": [
        "0x0aBd93dA8387B5Ef0511a2859d85D84fe4519e94"
      ],
      "transaction": {
        "from": "0x285e3b1e82f74a99d07d2ad25e159e75382bb43b",
        "to": "0x268350b21732d47f6b1e4a45cc67f30820175c9a",
        "gas": "0x34448",
        "value": "0x0",
        "input": "0xc0e79a110000000000000000000000000abd93da8387b5ef0511a2859d85d84fe4519e94",
        "nonce": "0x37a",
        "chainId": "0x1"
      },
      "additionalContracts": [],
      "isFixedGasLimit": false
    },
    {
      "hash": null,
      "transactionType": "CALL",
      "contractName": null,
      "contractAddress": "0x268350b21732d47f6b1e4a45cc67f30820175c9a",
      "function": "setPendingManagement(address)",
      "arguments": [
        "0x16388463d60FFE0661Cf7F1f31a7D658aC790ff7"
      ],
      "transaction": {
        "from": "0x285e3b1e82f74a99d07d2ad25e159e75382bb43b",
        "to": "0x268350b21732d47f6b1e4a45cc67f30820175c9a",
        "gas": "0x347c0",
        "value": "0x0",
        "input": "0xf629b79000000000000000000000000016388463d60ffe0661cf7f1f31a7d658ac790ff7",
        "nonce": "0x37b",
        "chainId": "0x1"
      },
      "additionalContracts": [],
      "isFixedGasLimit": false
    },
    {
      "hash": null,
      "transactionType": "CALL",
      "contractName": null,
      "contractAddress": "0xe6d0f1c9cb9d4ba55f7ee3c38e34e7a488864f6c",
      "function": "acceptManagement()",
      "arguments": [],
      "transaction": {
        "from": "0x285e3b1e82f74a99d07d2ad25e159e75382bb43b",
        "to": "0xe6d0f1c9cb9d4ba55f7ee3c38e34e7a488864f6c",
        "gas": "0x22020",
        "value": "0x0",
        "input": "0xc8c2fe6c",
        "nonce": "0x37c",
        "chainId": "0x1"
      },
      "additionalContracts": [],
      "isFixedGasLimit": false
    },
    {
      "hash": null,
      "transactionType": "CALL",
      "contractName": null,
      "contractAddress": "0xe6d0f1c9cb9d4ba55f7ee3c38e34e7a488864f6c",
      "function": "setProfitMaxUnlockTime(uint256)",
      "arguments": [
        "259200"
      ],
      "transaction": {
        "from": "0x285e3b1e82f74a99d07d2ad25e159e75382bb43b",
        "to": "0xe6d0f1c9cb9d4ba55f7ee3c38e34e7a488864f6c",
        "gas": "0x22474",
        "value": "0x0",
        "input": "0xdf69b22a000000000000000000000000000000000000000000000000000000000003f480",
        "nonce": "0x37d",
        "chainId": "0x1"
      },
      "additionalContracts": [],
      "isFixedGasLimit": false
    },
    {
      "hash": null,
      "transactionType": "CALL",
      "contractName": null,
      "contractAddress": "0xe6d0f1c9cb9d4ba55f7ee3c38e34e7a488864f6c",
      "function": "setAllowed(address)",
      "arguments": [
        "0x0aBd93dA8387B5Ef0511a2859d85D84fe4519e94"
      ],
      "transaction": {
        "from": "0x285e3b1e82f74a99d07d2ad25e159e75382bb43b",
        "to": "0xe6d0f1c9cb9d4ba55f7ee3c38e34e7a488864f6c",
        "gas": "0x34448",
        "value": "0x0",
        "input": "0xc0e79a110000000000000000000000000abd93da8387b5ef0511a2859d85d84fe4519e94",
        "nonce": "0x37e",
        "chainId": "0x1"
      },
      "additionalContracts": [],
      "isFixedGasLimit": false
    },
    {
      "hash": null,
      "transactionType": "CALL",
      "contractName": null,
      "contractAddress": "0xe6d0f1c9cb9d4ba55f7ee3c38e34e7a488864f6c",
      "function": "setPendingManagement(address)",
      "arguments": [
        "0x16388463d60FFE0661Cf7F1f31a7D658aC790ff7"
      ],
      "transaction": {
        "from": "0x285e3b1e82f74a99d07d2ad25e159e75382bb43b",
        "to": "0xe6d0f1c9cb9d4ba55f7ee3c38e34e7a488864f6c",
        "gas": "0x347c0",
        "value": "0x0",
        "input": "0xf629b79000000000000000000000000016388463d60ffe0661cf7f1f31a7d658ac790ff7",
        "nonce": "0x37f",
        "chainId": "0x1"
      },
      "additionalContracts": [],
      "isFixedGasLimit": false
    },
    {
      "hash": null,
      "transactionType": "CALL",
      "contractName": null,
      "contractAddress": "0xdb265804c3d7819918744f713b82c57a25dc827e",
      "function": "acceptManagement()",
      "arguments": [],
      "transaction": {
        "from": "0x285e3b1e82f74a99d07d2ad25e159e75382bb43b",
        "to": "0xdb265804c3d7819918744f713b82c57a25dc827e",
        "gas": "0x22020",
        "value": "0x0",
        "input": "0xc8c2fe6c",
        "nonce": "0x380",
        "chainId": "0x1"
      },
      "additionalContracts": [],
      "isFixedGasLimit": false
    },
    {
      "hash": null,
      "transactionType": "CALL",
      "contractName": null,
      "contractAddress": "0xdb265804c3d7819918744f713b82c57a25dc827e",
      "function": "setProfitMaxUnlockTime(uint256)",
      "arguments": [
        "259200"
      ],
      "transaction": {
        "from": "0x285e3b1e82f74a99d07d2ad25e159e75382bb43b",
        "to": "0xdb265804c3d7819918744f713b82c57a25dc827e",
        "gas": "0x22474",
        "value": "0x0",
        "input": "0xdf69b22a000000000000000000000000000000000000000000000000000000000003f480",
        "nonce": "0x381",
        "chainId": "0x1"
      },
      "additionalContracts": [],
      "isFixedGasLimit": false
    },
    {
      "hash": null,
      "transactionType": "CALL",
      "contractName": null,
      "contractAddress": "0xdb265804c3d7819918744f713b82c57a25dc827e",
      "function": "setAllowed(address)",
      "arguments": [
        "0x0aBd93dA8387B5Ef0511a2859d85D84fe4519e94"
      ],
      "transaction": {
        "from": "0x285e3b1e82f74a99d07d2ad25e159e75382bb43b",
        "to": "0xdb265804c3d7819918744f713b82c57a25dc827e",
        "gas": "0x34448",
        "value": "0x0",
        "input": "0xc0e79a110000000000000000000000000abd93da8387b5ef0511a2859d85d84fe4519e94",
        "nonce": "0x382",
        "chainId": "0x1"
      },
      "additionalContracts": [],
      "isFixedGasLimit": false
    },
    {
      "hash": null,
      "transactionType": "CALL",
      "contractName": null,
      "contractAddress": "0xdb265804c3d7819918744f713b82c57a25dc827e",
      "function": "setPendingManagement(address)",
      "arguments": [
        "0x16388463d60FFE0661Cf7F1f31a7D658aC790ff7"
      ],
      "transaction": {
        "from": "0x285e3b1e82f74a99d07d2ad25e159e75382bb43b",
        "to": "0xdb265804c3d7819918744f713b82c57a25dc827e",
        "gas": "0x347c0",
        "value": "0x0",
        "input": "0xf629b79000000000000000000000000016388463d60ffe0661cf7f1f31a7d658ac790ff7",
        "nonce": "0x383",
        "chainId": "0x1"
      },
      "additionalContracts": [],
      "isFixedGasLimit": false
    },
    {
      "hash": null,
      "transactionType": "CALL",
      "contractName": null,
      "contractAddress": "0xf7cca584454ee2f103a6a8d6d7dfcd5db018dee4",
      "function": "acceptManagement()",
      "arguments": [],
      "transaction": {
        "from": "0x285e3b1e82f74a99d07d2ad25e159e75382bb43b",
        "to": "0xf7cca584454ee2f103a6a8d6d7dfcd5db018dee4",
        "gas": "0x22020",
        "value": "0x0",
        "input": "0xc8c2fe6c",
        "nonce": "0x384",
        "chainId": "0x1"
      },
      "additionalContracts": [],
      "isFixedGasLimit": false
    },
    {
      "hash": null,
      "transactionType": "CALL",
      "contractName": null,
      "contractAddress": "0xf7cca584454ee2f103a6a8d6d7dfcd5db018dee4",
      "function": "setProfitMaxUnlockTime(uint256)",
      "arguments": [
        "259200"
      ],
      "transaction": {
        "from": "0x285e3b1e82f74a99d07d2ad25e159e75382bb43b",
        "to": "0xf7cca584454ee2f103a6a8d6d7dfcd5db018dee4",
        "gas": "0x22474",
        "value": "0x0",
        "input": "0xdf69b22a000000000000000000000000000000000000000000000000000000000003f480",
        "nonce": "0x385",
        "chainId": "0x1"
      },
      "additionalContracts": [],
      "isFixedGasLimit": false
    },
    {
      "hash": null,
      "transactionType": "CALL",
      "contractName": null,
      "contractAddress": "0xf7cca584454ee2f103a6a8d6d7dfcd5db018dee4",
      "function": "setAllowed(address)",
      "arguments": [
        "0x0aBd93dA8387B5Ef0511a2859d85D84fe4519e94"
      ],
      "transaction": {
        "from": "0x285e3b1e82f74a99d07d2ad25e159e75382bb43b",
        "to": "0xf7cca584454ee2f103a6a8d6d7dfcd5db018dee4",
        "gas": "0x34448",
        "value": "0x0",
        "input": "0xc0e79a110000000000000000000000000abd93da8387b5ef0511a2859d85d84fe4519e94",
        "nonce": "0x386",
        "chainId": "0x1"
      },
      "additionalContracts": [],
      "isFixedGasLimit": false
    },
    {
      "hash": null,
      "transactionType": "CALL",
      "contractName": null,
      "contractAddress": "0xf7cca584454ee2f103a6a8d6d7dfcd5db018dee4",
      "function": "setPendingManagement(address)",
      "arguments": [
        "0x16388463d60FFE0661Cf7F1f31a7D658aC790ff7"
      ],
      "transaction": {
        "from": "0x285e3b1e82f74a99d07d2ad25e159e75382bb43b",
        "to": "0xf7cca584454ee2f103a6a8d6d7dfcd5db018dee4",
        "gas": "0x347c0",
        "value": "0x0",
        "input": "0xf629b79000000000000000000000000016388463d60ffe0661cf7f1f31a7d658ac790ff7",
        "nonce": "0x387",
        "chainId": "0x1"
      },
      "additionalContracts": [],
      "isFixedGasLimit": false
    }
  ],
  "receipts": [],
  "libraries": [],
  "pending": [
    "0x753050d5b94db75168ca2e605ed55b5947925e4ce410289a85f61fcefab809d0",
    "0x978f78f74a530475ceeeb5631187beb2146c15981a6f54dbb91cdb88d0e2f048",
    "0xc24da608211be93a356db20150bea74cbc5329f7a8d670acef7a2ecfc0108252",
    "0x832629a7b34e195c77a439c42f0ca20da3046aa8603706192e973755f8c0e44e"
  ],
  "returns": {},
  "timestamp": 1748453011,
  "chain": 1,
  "commit": "377a8e7"
}