{
  "transactions": [
    {
      "hash": "0xd7867dc2258aef25544933732bba5d0e5b81c3892138d2213de4f763ab11a2e3",
      "transactionType": "CALL",
      "contractName": null,
      "contractAddress": "0x9f4330700a36b29952869fac9b33f45eedd8a3d8",
      "function": "set_role(address,uint256)",
      "arguments": [
        "0x285E3b1E82f74A99D07D2aD25e159E75382bB43B",
        "16383"
      ],
      "transaction": {
        "from": "0x285e3b1e82f74a99d07d2ad25e159e75382bb43b",
        "to": "0x9f4330700a36b29952869fac9b33f45eedd8a3d8",
        "gas": "0x120e6",
        "value": "0x0",
        "input": "0x2cf7fd85000000000000000000000000285e3b1e82f74a99d07d2ad25e159e75382bb43b0000000000000000000000000000000000000000000000000000000000003fff",
        "nonce": "0x32c",
        "chainId": "0x1"
      },
      "additionalContracts": [],
      "isFixedGasLimit": false
    },
    {
      "hash": "0xda97698d8e0157439fdcb964b310b1fcb35601c2fefa6027ce8b1dd25548f79b",
      "transactionType": "CALL",
      "contractName": null,
      "contractAddress": "0x9f4330700a36b29952869fac9b33f45eedd8a3d8",
      "function": "set_role(address,uint256)",
      "arguments": [
        "0x604e586F17cE106B64185A7a0d2c1Da5bAce711E",
        "32"
      ],
      "transaction": {
        "from": "0x285e3b1e82f74a99d07d2ad25e159e75382bb43b",
        "to": "0x9f4330700a36b29952869fac9b33f45eedd8a3d8",
        "gas": "0x110c8",
        "value": "0x0",
        "input": "0x2cf7fd85000000000000000000000000604e586f17ce106b64185a7a0d2c1da5bace711e0000000000000000000000000000000000000000000000000000000000000020",
        "nonce": "0x32d",
        "chainId": "0x1"
      },
      "additionalContracts": [],
      "isFixedGasLimit": false
    },
    {
      "hash": "0xcd42bf233daab96dd008c481a62449e09e9269479946551f76ac7781aca7453e",
      "transactionType": "CALL",
      "contractName": null,
      "contractAddress": "0x9f4330700a36b29952869fac9b33f45eedd8a3d8",
      "function": "set_deposit_limit(uint256)",
      "arguments": [
        "100000000000000000000000000000"
      ],
      "transaction": {
        "from": "0x285e3b1e82f74a99d07d2ad25e159e75382bb43b",
        "to": "0x9f4330700a36b29952869fac9b33f45eedd8a3d8",
        "gas": "0x122d4",
        "value": "0x0",
        "input": "0x6fe01d1e0000000000000000000000000000000000000001431e0fae6d7217caa0000000",
        "nonce": "0x32e",
        "chainId": "0x1"
      },
      "additionalContracts": [],
      "isFixedGasLimit": false
    },
    {
      "hash": "0x2481af3c0d7464ceadcbde8e8b02226da2bb0474aba165353b91d4c08a16126e",
      "transactionType": "CALL",
      "contractName": null,
      "contractAddress": "0x9f4330700a36b29952869fac9b33f45eedd8a3d8",
      "function": "set_accountant(address)",
      "arguments": [
        "0x53acEBB9470Cfc9D231075154f5dcF1586A4c6fa"
      ],
      "transaction": {
        "from": "0x285e3b1e82f74a99d07d2ad25e159e75382bb43b",
        "to": "0x9f4330700a36b29952869fac9b33f45eedd8a3d8",
        "gas": "0x10cb0",
        "value": "0x0",
        "input": "0x71da8a8d00000000000000000000000053acebb9470cfc9d231075154f5dcf1586a4c6fa",
        "nonce": "0x32f",
        "chainId": "0x1"
      },
      "additionalContracts": [],
      "isFixedGasLimit": false
    },
    {
      "hash": "0xefe92ca2a881fbf5a8494d8d72d645fafe38fdc64fc523f1db16c186fa0ffb05",
      "transactionType": "CALL",
      "contractName": null,
      "contractAddress": "0x9f4330700a36b29952869fac9b33f45eedd8a3d8",
      "function": "add_strategy(address)",
      "arguments": [
        "0x2048A730f564246411415f719198d6f7c10A7961"
      ],
      "transaction": {
        "from": "0x285e3b1e82f74a99d07d2ad25e159e75382bb43b",
        "to": "0x9f4330700a36b29952869fac9b33f45eedd8a3d8",
        "gas": "0x2f371",
        "value": "0x0",
        "input": "0xde7aeb410000000000000000000000002048a730f564246411415f719198d6f7c10a7961",
        "nonce": "0x330",
        "chainId": "0x1"
      },
      "additionalContracts": [],
      "isFixedGasLimit": false
    },
    {
      "hash": "0x3d21d7d26812b84a1fa3f835cbead38c86e31d07e15b9d17d16e1f395d6949c4",
      "transactionType": "CALL",
      "contractName": null,
      "contractAddress": "0x9f4330700a36b29952869fac9b33f45eedd8a3d8",
      "function": "update_max_debt_for_strategy(address,uint256)",
      "arguments": [
        "0x2048A730f564246411415f719198d6f7c10A7961",
        "10000000000000000000000000000"
      ],
      "transaction": {
        "from": "0x285e3b1e82f74a99d07d2ad25e159e75382bb43b",
        "to": "0x9f4330700a36b29952869fac9b33f45eedd8a3d8",
        "gas": "0x120ec",
        "value": "0x0",
        "input": "0xb9ddcd680000000000000000000000002048a730f564246411415f719198d6f7c10a79610000000000000000000000000000000000000000204fce5e3e25026110000000",
        "nonce": "0x331",
        "chainId": "0x1"
      },
      "additionalContracts": [],
      "isFixedGasLimit": false
    },
    {
      "hash": "0xd0c068c1223d59761aea1b5cef18aae7ed836240a5ea5a85ccc850d2352ef3ef",
      "transactionType": "CALL",
      "contractName": null,
      "contractAddress": "0x9f4330700a36b29952869fac9b33f45eedd8a3d8",
      "function": "add_strategy(address)",
      "arguments": [
        "0x46af61661B1e15DA5bFE40756495b7881F426214"
      ],
      "transaction": {
        "from": "0x285e3b1e82f74a99d07d2ad25e159e75382bb43b",
        "to": "0x9f4330700a36b29952869fac9b33f45eedd8a3d8",
        "gas": "0x26d35",
        "value": "0x0",
        "input": "0xde7aeb4100000000000000000000000046af61661b1e15da5bfe40756495b7881f426214",
        "nonce": "0x332",
        "chainId": "0x1"
      },
      "additionalContracts": [],
      "isFixedGasLimit": false
    },
    {
      "hash": "0xa56517839965ae8fc89e2c7638da8f533dc0b26f9978450881487e636d99cc1a",
      "transactionType": "CALL",
      "contractName": null,
      "contractAddress": "0x9f4330700a36b29952869fac9b33f45eedd8a3d8",
      "function": "update_max_debt_for_strategy(address,uint256)",
      "arguments": [
        "0x46af61661B1e15DA5bFE40756495b7881F426214",
        "10000000000000000000000000000"
      ],
      "transaction": {
        "from": "0x285e3b1e82f74a99d07d2ad25e159e75382bb43b",
        "to": "0x9f4330700a36b29952869fac9b33f45eedd8a3d8",
        "gas": "0x120ec",
        "value": "0x0",
        "input": "0xb9ddcd6800000000000000000000000046af61661b1e15da5bfe40756495b7881f4262140000000000000000000000000000000000000000204fce5e3e25026110000000",
        "nonce": "0x333",
        "chainId": "0x1"
      },
      "additionalContracts": [],
      "isFixedGasLimit": false
    },
    {
      "hash": "0x43616d5166552da77fe3b8259ccca19f2a76a545b2be1f064df319353394a232",
      "transactionType": "CALL",
      "contractName": null,
      "contractAddress": "0x9f4330700a36b29952869fac9b33f45eedd8a3d8",
      "function": "add_strategy(address)",
      "arguments": [
        "0x2351E217269A4a53a392bffE8195Efa1c502A1D2"
      ],
      "transaction": {
        "from": "0x285e3b1e82f74a99d07d2ad25e159e75382bb43b",
        "to": "0x9f4330700a36b29952869fac9b33f45eedd8a3d8",
        "gas": "0x26d35",
        "value": "0x0",
        "input": "0xde7aeb410000000000000000000000002351e217269a4a53a392bffe8195efa1c502a1d2",
        "nonce": "0x334",
        "chainId": "0x1"
      },
      "additionalContracts": [],
      "isFixedGasLimit": false
    },
    {
      "hash": "0x2930fd31262b003d388a16399b618faf62176284d4c9c8ba5d5cba2acba8d175",
      "transactionType": "CALL",
      "contractName": null,
      "contractAddress": "0x9f4330700a36b29952869fac9b33f45eedd8a3d8",
      "function": "update_max_debt_for_strategy(address,uint256)",
      "arguments": [
        "0x2351E217269A4a53a392bffE8195Efa1c502A1D2",
        "10000000000000000000000000000"
      ],
      "transaction": {
        "from": "0x285e3b1e82f74a99d07d2ad25e159e75382bb43b",
        "to": "0x9f4330700a36b29952869fac9b33f45eedd8a3d8",
        "gas": "0x120ec",
        "value": "0x0",
        "input": "0xb9ddcd680000000000000000000000002351e217269a4a53a392bffe8195efa1c502a1d20000000000000000000000000000000000000000204fce5e3e25026110000000",
        "nonce": "0x335",
        "chainId": "0x1"
      },
      "additionalContracts": [],
      "isFixedGasLimit": false
    },
    {
      "hash": "0x5247389971059a14acaed53b86f25a271e60c3a07150451c308aaee962f63ac9",
      "transactionType": "CALL",
      "contractName": null,
      "contractAddress": "0x9f4330700a36b29952869fac9b33f45eedd8a3d8",
      "function": "transfer_role_manager(address)",
      "arguments": [
        "0xb3bd6B2E61753C311EFbCF0111f75D29706D9a41"
      ],
      "transaction": {
        "from": "0x285e3b1e82f74a99d07d2ad25e159e75382bb43b",
        "to": "0x9f4330700a36b29952869fac9b33f45eedd8a3d8",
        "gas": "0x10dc1",
        "value": "0x0",
        "input": "0xef54cefd000000000000000000000000b3bd6b2e61753c311efbcf0111f75d29706d9a41",
        "nonce": "0x336",
        "chainId": "0x1"
      },
      "additionalContracts": [],
      "isFixedGasLimit": false
    }
  ],
  "receipts": [
    {
      "status": "0x1",
      "cumulativeGasUsed": "0xcd9753",
      "logs": [
        {
          "address": "0x9f4330700a36b29952869fac9b33f45eedd8a3d8",
          "topics": [
            "0x78557646b1d8efa2cd49740d66df5aca39eb610ca8ca0e1ccac08979b6b2c46e",
            "0x000000000000000000000000285e3b1e82f74a99d07d2ad25e159e75382bb43b",
            "0x0000000000000000000000000000000000000000000000000000000000003fff"
          ],
          "data": "0x",
          "blockHash": "0x0c61203f852f9c0bd7bb6ea1eedba5a65a313cb33af48158da8d70025e9bd7e8",
          "blockNumber": "0x158637f",
          "transactionHash": "0xd7867dc2258aef25544933732bba5d0e5b81c3892138d2213de4f763ab11a2e3",
          "transactionIndex": "0x95",
          "logIndex": "0x170",
          "removed": false
        }
      ],
      "logsBloom": "0x00000020000000000000000000000000000000000000040000000000001000000000000000080000000000000000000000000000000000000000000000000000000000000000000000000000000000000000000000000000008040000000000000000000000000000000000000000000000000000000000000000000000000000000000000000000000000000000000000000000000000000000000000000000000000000000000000000040000000000000000000000000000000080000000000000000000000000000000000000000000000000102000000000000000000000000000000000000000000010000000000000000000000000100000000000000",
      "type": "0x0",
      "transactionHash": "0xd7867dc2258aef25544933732bba5d0e5b81c3892138d2213de4f763ab11a2e3",
      "transactionIndex": "0x95",
      "blockHash": "0x0c61203f852f9c0bd7bb6ea1eedba5a65a313cb33af48158da8d70025e9bd7e8",
      "blockNumber": "0x158637f",
      "gasUsed": "0xc58a",
      "effectiveGasPrice": "0x26f2b338",
      "blobGasUsed": "0x0",
      "from": "0x285e3b1e82f74a99d07d2ad25e159e75382bb43b",
      "to": "0x9f4330700a36b29952869fac9b33f45eedd8a3d8",
      "contractAddress": null
    },
    {
      "status": "0x1",
      "cumulativeGasUsed": "0xce5cd1",
      "logs": [
        {
          "address": "0x9f4330700a36b29952869fac9b33f45eedd8a3d8",
          "topics": [
            "0x78557646b1d8efa2cd49740d66df5aca39eb610ca8ca0e1ccac08979b6b2c46e",
            "0x000000000000000000000000604e586f17ce106b64185a7a0d2c1da5bace711e",
            "0x0000000000000000000000000000000000000000000000000000000000000020"
          ],
          "data": "0x",
          "blockHash": "0x0c61203f852f9c0bd7bb6ea1eedba5a65a313cb33af48158da8d70025e9bd7e8",
          "blockNumber": "0x158637f",
          "transactionHash": "0xda97698d8e0157439fdcb964b310b1fcb35601c2fefa6027ce8b1dd25548f79b",
          "transactionIndex": "0x96",
          "logIndex": "0x171",
          "removed": false
        }
      ],
      "logsBloom": "0x00000020000000000000000000000000000000000000040000000000000000000000000000080000000000000000000000400000000000000000000000000000000000000000000000000000000000000000000000000000000040000000000000000000000000000000000000000002000000000020000000000000000000000000000000000000000000000000000000000000000000000000000000000000000400000000000000000040000000000000000000000000000000000000000000000000000000000000000000000000080000000002000000000000000000000000400000000000000000000000000000000000000000000000000000000000",
      "type": "0x0",
      "transactionHash": "0xda97698d8e0157439fdcb964b310b1fcb35601c2fefa6027ce8b1dd25548f79b",
      "transactionIndex": "0x96",
      "blockHash": "0x0c61203f852f9c0bd7bb6ea1eedba5a65a313cb33af48158da8d70025e9bd7e8",
      "blockNumber": "0x158637f",
      "gasUsed": "0xc57e",
      "effectiveGasPrice": "0x26f2b338",
      "blobGasUsed": "0x0",
      "from": "0x285e3b1e82f74a99d07d2ad25e159e75382bb43b",
      "to": "0x9f4330700a36b29952869fac9b33f45eedd8a3d8",
      "contractAddress": null
    },
    {
      "status": "0x1",
      "cumulativeGasUsed": "0xcf2f60",
      "logs": [
        {
          "address": "0x9f4330700a36b29952869fac9b33f45eedd8a3d8",
          "topics": [
            "0xae565aab888bca5e19e25a13db7b0c9144305bf55cb0f3f4d724f730e5acdd62"
          ],
          "data": "0x0000000000000000000000000000000000000001431e0fae6d7217caa0000000",
          "blockHash": "0x0c61203f852f9c0bd7bb6ea1eedba5a65a313cb33af48158da8d70025e9bd7e8",
          "blockNumber": "0x158637f",
          "transactionHash": "0xcd42bf233daab96dd008c481a62449e09e9269479946551f76ac7781aca7453e",
          "transactionIndex": "0x97",
          "logIndex": "0x172",
          "removed": false
        }
      ],
      "logsBloom": "0x00000020000000000000000000000000000000000000040000001000000000000000000000080000000000000000000000000000000000000000000000000000000000000000000000000000000000000000000000000000000000000000000000000000000000000000000000000000000000040000000000000800000000000000000000000000000000000000000000000000000000000000000000000000000000000000000000000000000000000000000000000000000000000000000000000000000000000000000000000000000000000000000000000000000000000000000000000000000000000000000000000000000000000000000000000000",
      "type": "0x0",
      "transactionHash": "0xcd42bf233daab96dd008c481a62449e09e9269479946551f76ac7781aca7453e",
      "transactionIndex": "0x97",
      "blockHash": "0x0c61203f852f9c0bd7bb6ea1eedba5a65a313cb33af48158da8d70025e9bd7e8",
      "blockNumber": "0x158637f",
      "gasUsed": "0xd28f",
      "effectiveGasPrice": "0x26f2b338",
      "blobGasUsed": "0x0",
      "from": "0x285e3b1e82f74a99d07d2ad25e159e75382bb43b",
      "to": "0x9f4330700a36b29952869fac9b33f45eedd8a3d8",
      "contractAddress": null
    },
    {
      "status": "0x1",
      "cumulativeGasUsed": "0xcff1e7",
      "logs": [
        {
          "address": "0x9f4330700a36b29952869fac9b33f45eedd8a3d8",
          "topics": [
            "0x28709a2dab2a5d5e8688e96159011151c51644ab21839a8a45b449634d7c8b2b",
            "0x00000000000000000000000053acebb9470cfc9d231075154f5dcf1586a4c6fa"
          ],
          "data": "0x",
          "blockHash": "0x0c61203f852f9c0bd7bb6ea1eedba5a65a313cb33af48158da8d70025e9bd7e8",
          "blockNumber": "0x158637f",
          "transactionHash": "0x2481af3c0d7464ceadcbde8e8b02226da2bb0474aba165353b91d4c08a16126e",
          "transactionIndex": "0x98",
          "logIndex": "0x173",
          "removed": false
        }
      ],
      "logsBloom": "0x00000020000000000000000000001000000000000000840000000000002000000000000000080000000000000000000000000000000000000000000000000000000000000000000000000000000000000000000000000000000000000000000000000000000000000000000000000000000200000000000000000000000000000000000000000000000000000000000000000000000000000000000000000000000000000000000000000000000000000000000000000000000020000000000000000000000000000000000000000000000000800000000000000000000000000000000000000000000000000000000000000000000000000000000000000000",
      "type": "0x0",
      "transactionHash": "0x2481af3c0d7464ceadcbde8e8b02226da2bb0474aba165353b91d4c08a16126e",
      "transactionIndex": "0x98",
      "blockHash": "0x0c61203f852f9c0bd7bb6ea1eedba5a65a313cb33af48158da8d70025e9bd7e8",
      "blockNumber": "0x158637f",
      "gasUsed": "0xc287",
      "effectiveGasPrice": "0x26f2b338",
      "blobGasUsed": "0x0",
      "from": "0x285e3b1e82f74a99d07d2ad25e159e75382bb43b",
      "to": "0x9f4330700a36b29952869fac9b33f45eedd8a3d8",
      "contractAddress": null
    },
    {
      "status": "0x1",
      "cumulativeGasUsed": "0xbde2c8",
      "logs": [
        {
          "address": "0x9f4330700a36b29952869fac9b33f45eedd8a3d8",
          "topics": [
            "0xde8ff765a5c5dad48d27bc9faa99836fb81f3b07c9dc62cfe005475d6b83a2ca",
            "0x0000000000000000000000002048a730f564246411415f719198d6f7c10a7961",
            "0x0000000000000000000000000000000000000000000000000000000000000001"
          ],
          "data": "0x",
          "blockHash": "0x2f62b2738518deb04bbb4cb22c36a0a641597c42d8ae28838b50a54a9da31c5d",
          "blockNumber": "0x1586384",
          "transactionHash": "0xefe92ca2a881fbf5a8494d8d72d645fafe38fdc64fc523f1db16c186fa0ffb05",
          "transactionIndex": "0x70",
          "logIndex": "0x197",
          "removed": false
        }
      ],
      "logsBloom": "0x00000020000000002000000000000000000000000000040000004000000000000000000000080000800000000000000000000000000000000000000000040000000000000000000000000000000000000000000000040000000000000000000000000000000000000000000000000000000000000000000000000000000000000000000000000000000000000000000000000001000000000000000000000000000000000000000000000000000000000000000000000000000000000000001000000000000000000000000000000000000000000000000000000000400040000000000000000000000000000000000000000000000000000000000000000000",
      "type": "0x0",
      "transactionHash": "0xefe92ca2a881fbf5a8494d8d72d645fafe38fdc64fc523f1db16c186fa0ffb05",
      "transactionIndex": "0x70",
      "blockHash": "0x2f62b2738518deb04bbb4cb22c36a0a641597c42d8ae28838b50a54a9da31c5d",
      "blockNumber": "0x1586384",
      "gasUsed": "0x2048b",
      "effectiveGasPrice": "0x26f2b338",
      "blobGasUsed": "0x0",
      "from": "0x285e3b1e82f74a99d07d2ad25e159e75382bb43b",
      "to": "0x9f4330700a36b29952869fac9b33f45eedd8a3d8",
      "contractAddress": null
    },
    {
      "status": "0x1",
      "cumulativeGasUsed": "0xbeb3f6",
      "logs": [
        {
          "address": "0x9f4330700a36b29952869fac9b33f45eedd8a3d8",
          "topics": [
            "0xb3eef2123fec1523a6bbc90aceb203000154c1a4974335fe06b544c7534d4b89",
            "0x000000000000000000000000285e3b1e82f74a99d07d2ad25e159e75382bb43b",
            "0x0000000000000000000000002048a730f564246411415f719198d6f7c10a7961"
          ],
          "data": "0x0000000000000000000000000000000000000000204fce5e3e25026110000000",
          "blockHash": "0x2f62b2738518deb04bbb4cb22c36a0a641597c42d8ae28838b50a54a9da31c5d",
          "blockNumber": "0x1586384",
          "transactionHash": "0x3d21d7d26812b84a1fa3f835cbead38c86e31d07e15b9d17d16e1f395d6949c4",
          "transactionIndex": "0x71",
          "logIndex": "0x198",
          "removed": false
        }
      ],
      "logsBloom": "0x00000020000000000000000400000000000000000000040000000000000000000000000000080000800000000000000000000000000000000000000000000000000000000000000000000000000000000000000000000000008000000000000000000000000000000000000000000000000000000000000100000000000000000000000000000010000000000000000000000000000000000000000000000000000000000000000000000000000000000000000000000000000000080000001000000000000000000000000000000000000000000000000000000000400000000000000000000000000000000000000000000000000000000100000000000000",
      "type": "0x0",
      "transactionHash": "0x3d21d7d26812b84a1fa3f835cbead38c86e31d07e15b9d17d16e1f395d6949c4",
      "transactionIndex": "0x71",
      "blockHash": "0x2f62b2738518deb04bbb4cb22c36a0a641597c42d8ae28838b50a54a9da31c5d",
      "blockNumber": "0x1586384",
      "gasUsed": "0xd12e",
      "effectiveGasPrice": "0x26f2b338",
      "blobGasUsed": "0x0",
      "from": "0x285e3b1e82f74a99d07d2ad25e159e75382bb43b",
      "to": "0x9f4330700a36b29952869fac9b33f45eedd8a3d8",
      "contractAddress": null
    },
    {
      "status": "0x1",
      "cumulativeGasUsed": "0xc075b5",
      "logs": [
        {
          "address": "0x9f4330700a36b29952869fac9b33f45eedd8a3d8",
          "topics": [
            "0xde8ff765a5c5dad48d27bc9faa99836fb81f3b07c9dc62cfe005475d6b83a2ca",
            "0x00000000000000000000000046af61661b1e15da5bfe40756495b7881f426214",
            "0x0000000000000000000000000000000000000000000000000000000000000001"
          ],
          "data": "0x",
          "blockHash": "0x2f62b2738518deb04bbb4cb22c36a0a641597c42d8ae28838b50a54a9da31c5d",
          "blockNumber": "0x1586384",
          "transactionHash": "0xd0c068c1223d59761aea1b5cef18aae7ed836240a5ea5a85ccc850d2352ef3ef",
          "transactionIndex": "0x72",
          "logIndex": "0x199",
          "removed": false
        }
      ],
      "logsBloom": "0x00000020000000002000000000000000000000000000040000004000000000000000000000080000000000000000000000000000000000000008000000040000000000000000040000000000000000000000000000040000000000000000000000000000000000000000000000000000000000000000000000000000000000000000000000000000000000000000000000000001000000000000000000000000000000000000000000000000000000000000000000000000000000000000000000000000000000000000000000000000000000000000000000000000000040000000000000000000000000010000000000000000000000000000000000000000",
      "type": "0x0",
      "transactionHash": "0xd0c068c1223d59761aea1b5cef18aae7ed836240a5ea5a85ccc850d2352ef3ef",
      "transactionIndex": "0x72",
      "blockHash": "0x2f62b2738518deb04bbb4cb22c36a0a641597c42d8ae28838b50a54a9da31c5d",
      "blockNumber": "0x1586384",
      "gasUsed": "0x1c1bf",
      "effectiveGasPrice": "0x26f2b338",
      "blobGasUsed": "0x0",
      "from": "0x285e3b1e82f74a99d07d2ad25e159e75382bb43b",
      "to": "0x9f4330700a36b29952869fac9b33f45eedd8a3d8",
      "contractAddress": null
    },
    {
      "status": "0x1",
      "cumulativeGasUsed": "0xc146e3",
      "logs": [
        {
          "address": "0x9f4330700a36b29952869fac9b33f45eedd8a3d8",
          "topics": [
            "0xb3eef2123fec1523a6bbc90aceb203000154c1a4974335fe06b544c7534d4b89",
            "0x000000000000000000000000285e3b1e82f74a99d07d2ad25e159e75382bb43b",
            "0x00000000000000000000000046af61661b1e15da5bfe40756495b7881f426214"
          ],
          "data": "0x0000000000000000000000000000000000000000204fce5e3e25026110000000",
          "blockHash": "0x2f62b2738518deb04bbb4cb22c36a0a641597c42d8ae28838b50a54a9da31c5d",
          "blockNumber": "0x1586384",
          "transactionHash": "0xa56517839965ae8fc89e2c7638da8f533dc0b26f9978450881487e636d99cc1a",
          "transactionIndex": "0x73",
          "logIndex": "0x19a",
          "removed": false
        }
      ],
      "logsBloom": "0x00000020000000000000000400000000000000000000040000000000000000000000000000080000000000000000000000000000000000000008000000000000000000000000040000000000000000000000000000000000008000000000000000000000000000000000000000000000000000000000000100000000000000000000000000000010000000000000000000000000000000000000000000000000000000000000000000000000000000000000000000000000000000080000000000000000000000000000000000000000000000000000000000000000000000000000000000000000000000010000000000000000000000000100000000000000",
      "type": "0x0",
      "transactionHash": "0xa56517839965ae8fc89e2c7638da8f533dc0b26f9978450881487e636d99cc1a",
      "transactionIndex": "0x73",
      "blockHash": "0x2f62b2738518deb04bbb4cb22c36a0a641597c42d8ae28838b50a54a9da31c5d",
      "blockNumber": "0x1586384",
      "gasUsed": "0xd12e",
      "effectiveGasPrice": "0x26f2b338",
      "blobGasUsed": "0x0",
      "from": "0x285e3b1e82f74a99d07d2ad25e159e75382bb43b",
      "to": "0x9f4330700a36b29952869fac9b33f45eedd8a3d8",
      "contractAddress": null
    },
    {
      "status": "0x1",
      "cumulativeGasUsed": "0xc308a2",
      "logs": [
        {
          "address": "0x9f4330700a36b29952869fac9b33f45eedd8a3d8",
          "topics": [
            "0xde8ff765a5c5dad48d27bc9faa99836fb81f3b07c9dc62cfe005475d6b83a2ca",
            "0x0000000000000000000000002351e217269a4a53a392bffe8195efa1c502a1d2",
            "0x0000000000000000000000000000000000000000000000000000000000000001"
          ],
          "data": "0x",
          "blockHash": "0x2f62b2738518deb04bbb4cb22c36a0a641597c42d8ae28838b50a54a9da31c5d",
          "blockNumber": "0x1586384",
          "transactionHash": "0x43616d5166552da77fe3b8259ccca19f2a76a545b2be1f064df319353394a232",
          "transactionIndex": "0x74",
          "logIndex": "0x19b",
          "removed": false
        }
      ],
      "logsBloom": "0x00000020000000002000000000000000000000000000040000004000000000000000000000080000000000000000000000000000000000000000000000040000000000000000000000000000000000000000000000040000000000000000000000000000000000000000000000000000000000000000000000000000000000000000000000000000000000000000000000000001000000000000000000000000000000000000000000000000000000000000000000000000000000000000000000000000000000000000000000000000000000000000000000000000800040000100000000000000000000000000000000000000000800000000000000000000",
      "type": "0x0",
      "transactionHash": "0x43616d5166552da77fe3b8259ccca19f2a76a545b2be1f064df319353394a232",
      "transactionIndex": "0x74",
      "blockHash": "0x2f62b2738518deb04bbb4cb22c36a0a641597c42d8ae28838b50a54a9da31c5d",
      "blockNumber": "0x1586384",
      "gasUsed": "0x1c1bf",
      "effectiveGasPrice": "0x26f2b338",
      "blobGasUsed": "0x0",
      "from": "0x285e3b1e82f74a99d07d2ad25e159e75382bb43b",
      "to": "0x9f4330700a36b29952869fac9b33f45eedd8a3d8",
      "contractAddress": null
    },
    {
      "status": "0x1",
      "cumulativeGasUsed": "0xc3d9d0",
      "logs": [
        {
          "address": "0x9f4330700a36b29952869fac9b33f45eedd8a3d8",
          "topics": [
            "0xb3eef2123fec1523a6bbc90aceb203000154c1a4974335fe06b544c7534d4b89",
            "0x000000000000000000000000285e3b1e82f74a99d07d2ad25e159e75382bb43b",
            "0x0000000000000000000000002351e217269a4a53a392bffe8195efa1c502a1d2"
          ],
          "data": "0x0000000000000000000000000000000000000000204fce5e3e25026110000000",
          "blockHash": "0x2f62b2738518deb04bbb4cb22c36a0a641597c42d8ae28838b50a54a9da31c5d",
          "blockNumber": "0x1586384",
          "transactionHash": "0x2930fd31262b003d388a16399b618faf62176284d4c9c8ba5d5cba2acba8d175",
          "transactionIndex": "0x75",
          "logIndex": "0x19c",
          "removed": false
        }
      ],
      "logsBloom": "0x00000020000000000000000400000000000000000000040000000000000000000000000000080000000000000000000000000000000000000000000000000000000000000000000000000000000000000000000000000000008000000000000000000000000000000000000000000000000000000000000100000000000000000000000000000010000000000000000000000000000000000000000000000000000000000000000000000000000000000000000000000000000000080000000000000000000000000000000000000000000000000000000000000000800000000100000000000000000000000000000000000000000800000100000000000000",
      "type": "0x0",
      "transactionHash": "0x2930fd31262b003d388a16399b618faf62176284d4c9c8ba5d5cba2acba8d175",
      "transactionIndex": "0x75",
      "blockHash": "0x2f62b2738518deb04bbb4cb22c36a0a641597c42d8ae28838b50a54a9da31c5d",
      "blockNumber": "0x1586384",
      "gasUsed": "0xd12e",
      "effectiveGasPrice": "0x26f2b338",
      "blobGasUsed": "0x0",
      "from": "0x285e3b1e82f74a99d07d2ad25e159e75382bb43b",
      "to": "0x9f4330700a36b29952869fac9b33f45eedd8a3d8",
      "contractAddress": null
    },
    {
      "status": "0x1",
      "cumulativeGasUsed": "0xc49d1d",
      "logs": [
        {
          "address": "0x9f4330700a36b29952869fac9b33f45eedd8a3d8",
          "topics": [
            "0x364d2f5fdafcc5778c92c031ccf715352535731482158c029793bd034198f571",
            "0x000000000000000000000000b3bd6b2e61753c311efbcf0111f75d29706d9a41"
          ],
          "data": "0x",
          "blockHash": "0x2f62b2738518deb04bbb4cb22c36a0a641597c42d8ae28838b50a54a9da31c5d",
          "blockNumber": "0x1586384",
          "transactionHash": "0x5247389971059a14acaed53b86f25a271e60c3a07150451c308aaee962f63ac9",
          "transactionIndex": "0x76",
          "logIndex": "0x19d",
          "removed": false
        }
      ],
      "logsBloom": "0x00000020000000000000000000000000000000000000040000000000000000000000000000080002000000000000000000000000040000000000000000000000000000000002000000000000000000000000000000000000000000000000000000000000000000000000040000000000000000000000000000000000000000000000000000000000000000000000000000000000000000000000000000000000000000000000000000000000000800000000000000000000010000000000000000000000000000000000000000000000000000000000000000000000000000000000000000000000000000000000000000000000000000000000000000000000",
      "type": "0x0",
      "transactionHash": "0x5247389971059a14acaed53b86f25a271e60c3a07150451c308aaee962f63ac9",
      "transactionIndex": "0x76",
      "blockHash": "0x2f62b2738518deb04bbb4cb22c36a0a641597c42d8ae28838b50a54a9da31c5d",
      "blockNumber": "0x1586384",
      "gasUsed": "0xc34d",
      "effectiveGasPrice": "0x26f2b338",
      "blobGasUsed": "0x0",
      "from": "0x285e3b1e82f74a99d07d2ad25e159e75382bb43b",
      "to": "0x9f4330700a36b29952869fac9b33f45eedd8a3d8",
      "contractAddress": null
    }
  ],
  "libraries": [],
  "pending": [],
  "returns": {},
  "timestamp": 1748297452,
  "chain": 1,
  "commit": "d199c6a"
}